:1024E30066696E64206974006F6A626B0073686961
:0424F30062616900B9
:1024240090002E740DF090002DF07B017A00792E2F
:102434007D0112179090002EE04401F07B017A0098
:07244400792D7D020219E36E
:10244B0090002E740DF090002DF07B017A00792E08
:10245B007D0112179090002EE054FEF07B017A0064
:07246B00792D7D020219E347
:0E0A6D0090015BEBF0A3EAF0A3E9F0A3EDF03B
:100A7B00A37401F0A37403F0E4900182F0A3F0904F
:100A8B0000057409F0A37421F07B017A0079057DD0
:100A9B00021219E3900002E090000520E1087407B0
:100AAB00F0A3742F80067407F0A37413F07B017A04
:100ABB000079057D021219E3E4900167F0900002C2
:100ACB00E090016320E5087411F012242480037474
:100ADB0002F09001647401F0A37401F0A37467F049
:100AEB0090015EE0FD1313543F2401FFE433A2E7B2
:100AFB0013EF13900181F02403FFE433AB07FA905B
:100B0B000005748FF0A37491F0A3743DF0EAFFA37A
:100B1B00EFF0FEAF03EFC4F8540FC868FFA3EFF07C
:100B2B00900002E090000AF0A37401F0A3EDF090A6
:100B3B00015ED394004039E4A3F0900181E0FF9073
:100B4B00015FE0FEC39F502890015BE0FBA3E0FA3E
:100B5B00A3E0F98E82758300121348FF740D2EF5F6
:100B6B0082E43400F583EFF090015FE004F080CA7B
:100B7B00900161740CF0A304F07B017A0179617D23
:100B8B000212168B7F147E00121D645388FD43A83E
:100B9B00017B017A007905900181E02408FD122088
:100BAB00D49000017401F043881043870190015FDA
:100BBB00F0900163E0FF90015FE0C39F4003020CE4
:100BCB00AD9001327401F07F147E00121D644388D6
:100BDB0010E4900182F0A3F0438701900001E0B490
:100BEB000123900183E004F07006900182E004F091
:100BFB00900182E0B4FFE4A3E0B4F0DFE4900001E5
:100C0B00F0900004F0900161740FF07B017A017990
:100C1B00617D01121790900001E0B4FF1275A0FBEB
:100C2B007BFF7A2479E312239212252D75A0049071
:100C3B000161740FF07B017A017961121AA69001A0
:100C4B0063E06411703890015FE0C39410502F90F3
:100C5B0001617416F07B017A017961121AA6900179
:100C6B00617417F07B017A017961121AA690016108
:100C7B007414F07B017A017961121AA6801B900122
:100C8B0063E0B4110C90015FE0B4100512244B80AB
:100C9B0008900163E06402600990015FE004F002D8
:100CAB000BBC90015EE02404900180F0E013135420
:100CBB003F2401FFE433A2E713EF1314A3F09001D9
:100CCB0064E0FBA3E0FAA3E0F912132F7003020D0B
:100CDB007F900163E064116003020D7F74FF1213B8
:100CEB0075E490015FF090015BE0FBA3E0FAA3E0F9
:100CFB00F990015FE0FFF582758300121348FE74D3
:100D0B00782FF582E43401F583EEF090015FE00477
:100D1B00F0E0B408D1900180E020E214900164E08F
:100D2B00FBA3E0FAA3E0F912132FC454F0121397AC
:100D3B00900181E02478F582E43401F583C083C00F
:100D4B0082E0FF900164E0FBA3E0FAA3E0F9121349
:100D5B002FFEEF4ED082D083F07B017A0179789011
:100D6B000180E0FD120A6D90016574FFF5F012131E
:070D7B00DD020CC953A8FEC4
:010D8200224E
:05116000900156EDF0C6
:10116500900132F0748F121397900158E0900001AE
:1011750060047490800274911213A9900002743D6A
:101185001213A9900132E0FF7804A2E713D8FB906F
:1011950000031213A9EFC454F0FF900157E0FE4F6E
:1011A5009000041213A9900156E0D3940C400374E7
:1011B5000CF0900156E0700AEE60077401F09001A2
:1011C50032F0900156E02405FD1220D45388FD43EA
:1011D500A801900132E024F4F09001597411F090C7
:1011E50000017401F0900132E0FFD36480948040E7
:1011F50056438701D3EF6480948940089001567463
:101205000AF0800EC3EF64809481403BEF049001A7
:1012150056F0900159E0FF2404F582E43400F5838B
:10122500741FF07E0074042FF9EE3400FA7B0190F0
:101235000156E0FD121B33900132E024F7F09001D6
:1012450059E02409F0809E9001327401F09000016C
:10125500E0B4010F7F3C7E00121D64438810438774
:101265000180EA9000017401F07F3C7E00121D644C
:1012750043881090000AE0FF30E616A3E0FE6421E3
:101285006025EE64246020EE6427601BEE6429600F
:1012950016EF703890000BE054F0FF64206008EF03
:1012A50064306003BF40257F147E001224929001B4
:1012B5005A740FF07B017A01795A121AA690015AD5
:1012C5007414F07B017A01795A121AA6900001E094
:1012D500FF640160F7EFB4FF1A900006E07BFF7032
:1012E500067A2479EB80047A2479F0122392122568
:1012F5002D8031900001E0B402127F5B1225087F3A
:101305007A1225087F5D1225087F0022900001E0F2
:1013150070127F5B1225087F691225087F5D1225F3
:09132500087F012253A8FE7F019C
:01132E00229C
:101DDA004901920C00030410002101004701A70ADF
:101DEA0000030418002B4C019B0F00030418002168
:101DFA0000000000004801B70B0003041800270088
:101E0A004801BF0B0003041840290048018A0B004F
:101E1A000304180020004901AE0C00030418002C2A
:021E2A000000B6
:1023C500E4FF74922FF582E43401F583E0FE740591
:1023D5002FF582E43400F583EEF00FEFB409E390B6
:1023E5000005E024F8FF7B017A00790AFD0219E374
:05223F0090014FEFF0DB
:102244001223C5E4FF74B72FF582E43401F583E06B
:10225400FE74052FF582E43400F583EEF00FEFB43D
:1022640007E390014FE090000CF0900005E024F8A3
:10227400FF7B017A007905FDE4900157F0A3F00299
:022284001160E7
:0522860090014FEFF094
:10228B001223C5E4FF74BF2FF582E43401F583E01C
:10229B00FE74052FF582E43400F583EEF00FEFB4F6
:1022AB0007E390014FE090000CF0900005E024F85C
:1022BB00FF7B017A007905FDE4900157F0A3F00252
:0222CB001160A0
:102358001223C5E4FF74A72FF582E43401F583E066
:10236800FE74052FF582E43400F583EEF00FEFB428
:1023780007E3900005E024F8FF7B017A007905FD6A
:0A238800E4900157F0A3F002116089
:08219D0090014FEFF0A3EDF0FB
:1021A5001223C5E4FF74AE2FF582E43401F583E014
:1021B500FE74052FF582E43400F583EEF00FEFB4DD
:1021C50007E390014FE090000CF0900150E0900083
:1021D5000DF0900005E024F8FF7B017A007905FDFC
:0A21E500E4900157F0A3F00211602E
:0E1EBD0090014FEFF0A3EBF0A3EAF0A3E9F0E1
:101ECB001223C5E4FF749B2FF582E43401F583E004
:101EDB00FE74052FF582E43400F583EEF00FEFB4BA
:101EEB0007E390014FE090000CF0900150E0FBA352
:101EFB00E0FAA3E0F912132F90000DF090000112FD
:101F0B00134890000EF0900005E024F8FF7B017A57
:0E1F1B00007905FDE4900157F0A3F00211607B
:0522CD0090014FEFF04D
:1022D2001223C5E4FF748A2FF582E43401F583E00A
:1022E200FE74052FF582E43400F583EEF00FEFB4AF
:1022F20007E390014FE090000DF0900005E024F814
:10230200FF7B017A007905FDE4900157F0A3F0020A
:02231200116058
:101CEB00E490014FF0A37421F0A37401F0A304F06E
:101CFB007B017A01794F7D041219E37F057E001277
:101D0B0024929000027406F090014F7404F090003E
:101D1B0005E024F790015AF07B017A01794FE4FD3D
:101D2B00120A6DE490014FF0A304F0FB7A01794F96
:101D3B007D021219E37F017E0012249290014F74F1
:101D4B000CF0A304F07B017A01794F7D0212168B04
:091D5B007F0A7E001224928087A9
:051E2C0042020D0080E0
:0E19E300900184EBF0A3EAF0A3E9F0A3EDF08D
:1019F1005380F75380FE900187E0D3940050030297
:101A01001A87900184E0FBA3E0FAA3E0F912132FF7
:101A1100541F121397E4900188F0900188E0C39459
:101A21000250D3E4A3F0900184E0FBA3E0FAA3E029
:101A3100F912132FFF90020DE0FCA3E0FDED5F60B2
:101A41000543800480035380FB4380015380FEECF7
:101A5100C313FFED1390020DCFF0A3EFF0900189B6
:101A6100E004F0E0B408BF90020DE4F0A37480F04C
:101A7100900185E475F0011213DD900187E014F007
:091A8100A3E004F0809443800806
:011A8A002239
:0E1B330090015BEBF0A3EAF0A3E9F0A3EDF064
:101B41005380F75380FE90015BE0FBA3E0FAA3E032
:101B5100F912132F442012139790015BE0FBA3E0CD
:101B6100FAA3E0F912132F543F12139790015EE08C
:101B7100D39400405FE4A3F090015BE0FBA3E0FAA3
:101B8100A3E0F912132FFF90020DE0FCA3E0FDED9D
:101B91005F600543800480035380FB4380015380D1
:101BA100FEECC313FFED1390020DCFF0A3EFF09005
:101BB100015FE004F0E0B408BF90020DE4F0A3740B
:101BC10080F090015CE475F0011213DD90015EE09C
:071BD10014F0809843800826
:011BD80022EA
:10177E00741C121397900137E0FBA3E0FAA3E0F973
:02178E007D01DB
:0E179000900184EBF0A3EAF0A3E9F0A3EDF0E2
:10179E005380F7900187E0D3940050030218839092
:1017AE000184E0FBA3E0FAA3E0F912132F444012E8
:1017BE001397900184E0FBA3E0FAA3E0F912132F34
:1017CE00545F121397E4900188F0900184E0FBA31C
:1017DE00E0FAA3E0F912132FFF90020DE0FCA3E054
:1017EE00FDED5F600543800480035380FB43800161
:1017FE005380FEECC313FFED1390020DCFF0A3EF59
:10180E00F0900188E004F0E0B408BF90020DE4F01F
:10181E00A37480F0900184E0FBA3E0FAA3E0F9E466
:10182E00121397900188F0900184E0FBA3E0FAA3D5
:10183E00E0F912132F25E01213974380015380FE17
:10184E00E58030E113900184E0FBA3E0FAA3E0F918
:10185E0012132F4401121397900188E004F0E0B4A4
:10186E0008C5900185E475F0011213DD900187E043
:08187E0014F00217A1438008D9
:01188600223F
:10166600900137E0FBA3E0FAA3E0F9740C1213979C
:10167600900137E0FBA3E0FAA3E0F9900001740DB6
:051686001213A97D0212
:0E168B00900184EBF0A3EAF0A3E9F0A3EDF0E8
:101699005380F7900184E0FBA3E0FAA3E0F9121369
:1016A9002F4460121397900184E0FBA3E0FAA3E0B2
:1016B900F912132F547F121397E4900188F09001C7
:1016C90084E0FBA3E0FAA3E0F912132FFF90020DC7
:1016D900E0FCA3E0FDED5F600543800480035380D7
:1016E900FB4380015380FEECC313FFED1390020D01
:1016F900CFF0A3EFF0900188E004F0E0B408BF90C8
:10170900020DE4F0A37480F0900187E0D3940040C7
:1017190060900184E0FBA3E0FAA3E0F9E4121397D7
:10172900900188F0900184E0FBA3E0FAA3E0F912AC
:10173900132F25E01213974380015380FEE5803073
:10174900E113900184E0FBA3E0FAA3E0F912132F5F
:101759004401121397900188E004F0E0B408C590A1
:101769000185E475F0011213DD900187E014F08022
:04177900974380080A
:01177D002249
:101A8B00900137E0FBA3E0FAA3E0F9740F12139770
:0B1A9B00900137E0FBA3E0FAA3E0F9A4
:0B1AA600900184EBF0A3EAF0A3E9F04C
:101AB1005380F7900184E0FBA3E0FAA3E0F912134D
:101AC1002F4480121397900184E0FBA3E0FAA3E076
:101AD100F912132F549F121397E4900187F090018C
:101AE10084E0FBA3E0FAA3E0F912132FFF90020DAB
:101AF100E0FCA3E0FDED5F600543800480035380BB
:101B0100FB4380015380FEECC313FFED1390020DE4
:101B1100CFF0A3EFF0900187E004F0E0B408BF90AC
:101B2100020DE4F0A37480F04380015380FE4380F2
:011B310008AB
:011B32002290
:0520D400900184EDF015
:1020D9005380F7900184E0D394004051E4A3F012B7
:1020E900132FFF90020DE0FCA3E0FDED5F600543B7
:1020F900800480035380FB4380015380FEECC313AB
:10210900FFED1390020DCFF0A3EFF0900185E004ED
:10211900F0E0B408CA90020DE4F0A37480F07401F1
:1021290029F9E43AFA900184E014F080A643800882
:012139002283
:10000E009001487409F0A37431F07B017A017948AC
:05001E007D020219E360
:0B06C200900137EBF0A3EAF0A3E9F091
:1006CD0012132FFFB4A003020A47EFB48007E49082
:1006DD0000010209C0900137E0FBA3E0FAA3E0F9A5
:1006ED0012132F30E16F9000017402F07416121A7C
:1006FD0098900003740EF07B017A0079037D01124E
:10070D001790900003E024E090013AF0540F60043C
:10071D00E02410F090013AE0FFC4540FF0603390E4
:10072D000132E0FF3395E0FE74052FF58274003E33
:10073D00F583741FF074052FF974003EFA7B019058
:10074D00013AE0FD12168B90013AE0FF900132E084
:10075D002FF0020A63900137E0FBA3E0FAA3E0F962
:10076D0012132F6440600302087A900004E0B40273
:10077D00030209F1900137E0FBA3E0FAA3E0F912BF
:10078D00177E900137E0FBA3E0FAA3E0F912132FD7
:10079D00540F04121397900132E0FF3395E0FE746D
:1007AD00052FF58274003EF583741FF074052FF943
:1007BD0074003EFA7B01C003C002C001900137E016
:1007CD00FBA3E0FAA3E0F912132FFDD001D002D064
:1007DD000312168B900137E0FBA3E0FAA3E0F912A8
:1007ED00132FFF900132E02FF0741E12139790011A
:1007FD0037E0FBA3E0FAA3E0F97D0112168B90011F
:10080D0037E0FBA3E0FAA3E0F912132FFF30E05716
:10081D00EFC3135407121397900137E0FBA3E0FACF
:10082D00A3E0F912132FFFC374089F1213979001C1
:10083D0032E0FF3395E0FE74042FF58274003EF52F
:10084D0083C083C082E0FF900137E0FBA3E0FAA3F1
:10085D00E0F912132FFE74FFA806088002C333D8E7
:10086D00FC5FD082D083F0121A8B020A09900137F7
:10087D00E0FBA3E0FAA3E0F912132F64606003021A
:10088D000A1090000104F0900132E0FF3395E0FE74
:10089D0074052FF58274003EF583741FF074052FD7
:1008AD00F974003EFA7B017D0912168B900132E03E
:1008BD002409F0E58020E7030209F6121666538835
:1008CD00FD900137E0FBA3E0FAA3E0F912132F64CA
:1008DD004060030209DF12177E900137E0FBA3E0B1
:1008ED00FAA3E0F912132F04540F1213979001324B
:1008FD00E0FF3395E0FE74052FF58274003EF5831D
:10090D00741FF074052FF974003EFA7B01C003C00B
:10091D0002C001900137E0FBA3E0FAA3E0F9121346
:10092D002FFDD001D002D00312168B900137E0FBC2
:10093D00A3E0FAA3E0F912132FFF900132E02FF09C
:10094D00741E121780900137E0FBA3E0FAA3E0F9C3
:10095D0012132FFF30E057EFC31354071213979064
:10096D000137E0FBA3E0FAA3E0F912132FFFC374E4
:10097D00089F121397900132E0FF3395E0FE740447
:10098D002FF58274003EF583C083C082E0FF900195
:10099D0037E0FBA3E0FAA3E0F912132FFE74FFA8D2
:1009AD0006088002C333D8FC5FD082D083F090005C
:1009BD000174FFF0900137E0FBA3E0FAA3E0F974B6
:1009CD000F121397900137E0FBA3E0FAA3E0F902B1
:1009DD001AA6900137E0FBA3E0FAA3E0F912132F5A
:1009ED006450707B9000018049121666900137E0CB
:1009FD00FBA3E0FAA3E0F912132F706390000174CA
:100A0D00FFF022900137E0FBA3E0FAA3E0F9121307
:100A1D002FFF30E40A90000130E502800C8013EFC7
:100A2D0030E21390000130E5097401F090000404E8
:100A3D00F0227402F022EFB40106E4900001F022DE
:100A4D009000017402F0900137E0FBA3E0FAA3E0FF
:0F0A5D00F97416121A98121A8B1216665388FD26
:010A6C002267
:03000300022001D7
:10200100C0E0C0F0C083C082C0D075D000C000C0A5
:0D20110001C002C003C004C005C006C00726
:10201E005388EF5388FD900133740CF0A304F07BCA
:10202E00017A0179337D0212168B900133E064A0A0
:10203E00600E7B017A0179331206C2E58020E7D368
:03204E005387FDB8
:10205100D007D006D005D004D003D002D001D000E3
:0B206100D0D0D082D083D0F0D0E0328D
:0725370043880143E40F2279
:10249200D3EF9400EE940040147D107C27ED1D7064
:0D24A200011CED4C70F7EF1F70E61E80E38B
:0124AF00220A
:101D6400900184EEF0A3EFF0C28D5389F043890112
:101D7400538EFCD2A9D28C900184E0FEA3E0FF7CB8
:101D8400037DE81213CBAA06EA3395E0F9F8C3748D
:101D9400FF9FFF74FF9AFEE499FDE498FC78081213
:101DA40014098F8C900184E0FEA3E0FF7C037DE89E
:101DB4001213CBAA06EA3395E0F9F8C374FF9FFF28
:101DC40074FF9AFEE499FDE498FCE4FB7A01F9F8C7
:061DD4001223148F8A2285
:10247200E4FFFE75B28375B9800FBF00010EEF64F1
:0F248200144E70F543B9C0E5B930E5FBE4F5A998
:012491002228
:03000B00021F29A8
:101F2900C0E0C0F0C083C082C0D075D000C000C07E
:0D1F390001C002C003C004C005C006C007FF
:101F46005388EF900140740CF0A304F07B017A01F2
:101F560079407D0212168B900140E054F7F0600440
:101F6600E0B48007900001E4F0800690000174015F
:041F7600F05387FDA0
:101F7A00D007D006D005D004D003D002D001D000BB
:0B1F8A00D0D0D082D083D0F0D0E03265
:0B2518004765745F6E6962626C6500CD
:101E31004101EC014801E400000000000000004104
:0B1E410001EE004101E300C101C100FF
:0A25230043A41075E10175E24022A7
:07253E0043B20375EF042214
:1024CB00759810758D64538EF4438E01858D8B53E7
:0824DB00890F438920D28E22F3
:10250800C2ACC2AF8F993099FDC299D2ACD2AF227A
:0A252D007F0D1225087F0A02250821
:10239200900184EBF0A3EAF0A3E9F0900184E0FB62
:1023A200A3E0FAA3E0F912132F6017900184A3E4CB
:1023B20075F0011213F3A9F0FA12132FFF12250878
:0323C20080D9229D
:1024F700AE07EFD39409400474072EFE74302EFF05
:0125070022B1
:0224B000AD0776
:1024B200EDC4540FFF1224F7AE07122508ED540F96
:0924C200FF1224F7AE0702250801
:10213A007BFF7A2579181223927E01EE604F43873E
:10214A0001900000E0C3648094E14004E024E0F0E0
:10215A00900000E0FFC3648094B04008D3EF64802D
:10216A0094B94010C3EF648094C140CFD3EF648028
:10217A0094C650C7E4FE122508900000E0FFD3641D
:10218A008094B940B6EF540F2409F080AE90000055
:02219A00E0FF64
:01219C002220
:03002300021C6557
:0F1C6500C0E0C083C082C0D075D000C006C007E9
:101C7400309904C2998063C298AF99EFB4AA09D28B
:101C840001C2009001EEE4F030014F9001E3E0B4B2
:101C94001B059001EE8013EFB41B089001E3741B45
:101CA400F08037EFF49001EE6017E0FE04F074E486
:101CB4002EF582E43401F583EFF09001E3E4F08043
:101CC40019E0FE04F074E42EF582E43401F583EFA8
:0A1CD400F0C2019001E3E4F0D20039
:0D1CDE00D007D006D0D0D082D083D0E03225
:0E1F9500900209EBF0A3EAF0A3E9F0A3EDF04F
:101FA3007FAA1224B0E4FC90020CE0FFECC39F5024
:101FB3003A900209E0FBA3E0FAA3E0F98C8275836F
:101FC30000121348FFF46004EFB41B057F1B1224B7
:101FD300B0900209E0FBA3E0FAA3E0F98C827583D9
:101FE30000121348FF1224B00C80BC7FFF1224B0F0
:0E1FF3007FE87E031224927FE87E0302249290
:0B14EB009001C7E0FF7B017A0079064A
:0E14F600900203EFF0A3EBF0A3EAF0A3E9F0FD
:10150400E4900208F090003704F0A37408F07B0123
:101514007A0079377D021219E3E4900207F0900211
:1015240004E0FBA3E0FAA3E0F9A3E0FFF5827583EE
:1015340000121348FE740C2FF582E43400F583EE98
:10154400F0900207E004F0E0B405D3900005748F36
:10155400F0A37491F0A3743DF0E4A3F0A37470F0CD
:10156400900203E090000AF0A37470F07B017A000B
:1015740079057D0C1220D49000017401F0900132A1
:10158400F0900001E0640160F87401F07F0A7E00CD
:10159400121D64438810900001E0FF640160F7EFBE
:1015A400F46003021640900006E030E2487F2812FF
:1015B40025089002077401F0900132E0FF3395E0B2
:1015C400FE900207E0FDC39FEE6480F8748098509B
:1015D4001774052DF582E43400F583E0FF1224B07E
:1015E400900207E004F080D07F29122508900208B9
:1015F4007401F080677F5B1225089002077401F084
:10160400900132E0FF3395E0FE900207E0FDC39FB6
:10161400EE6480F8748098501774052DF582E434D4
:1016240000F583E0FF1224B0900207E004F080D0BC
:101634007F5D122508E4900208F08020900001E00C
:10164400B402097F5B1225087F7A8008900001E0CC
:10165400700A7F5B1225087F5D122508900208E05E
:01166400FF86
:011665002262
:100026009001C7EFF0A3EDF0A3EBF0A3EAF0A3E98C
:01003600F0D9
:10003700E49001D1F0A3F0A3F0A3F090003704F00F
:10004700A37488F07B017A0079377D021219E3E403
:10005700900004F0900003F09001C8E0FFC4540F33
:10006700FE2405FDEF540F602C0DEE24FE9001D207
:10007700F0EF5407FFE49001CCF09001CCE0C39F70
:1000870050139001D3E0FE25E0F0E004F09001CC9E
:10009700E004F080E5900005748FF09001C8E090CF
:1000A7000006B470057491F080037490F090000717
:1000B700743DF0E4A3F09001C8E0FF54F09000090C
:1000C700F0EF5407FF600AE0FEEF25E004FFEE4F74
:1000D700F09001C7E090000AF09001C8E090000B93
:1000E700F09001C9E0FBA3E0FAA3E0F912132F9007
:1000F700000CF090000112134890000DF0900002E0
:1001070012134890000EF090000312134890000F4E
:10011700F07B017A0079051220D49001327401F046
:10012700900001F0900001E0600F7F0A7E00121D31
:100137006443881043870180EB9000017401F0E469
:100147009001CCF0900001E0B4011B9001CCE0C31A
:1001570094025012E004F07F0A7E00121D64438867
:100167001043870180DE900004E0B402069000018E
:100177007402F0900001E0F4600302060A7F28127F
:1001870025089001CC7401F09001CCE0FFC39406E0
:10019700501774052FF582E43400F583E0FF12242D
:1001A700B09001CCE004F080DF7F29122508900190
:1001B700C7E0246B700302047124FE700302054A32
:1001C7002404600302062F900006E06488601590FF
:1001D70001C9E0FBA3E0FAA3E0F912132F648860DA
:1001E700030203549001D2E0D3940050030202C3E8
:1001F700E49001CCF09001CCE0FFC39404400302EB
:1002070003119001D2E014FEEFC39E502B9001C959
:10021700E0FBA3E0FAA3E0F9A3E0FD7C00E92DF9F8
:10022700EC3AFA900001121348FD74D52FF582E4D9
:100237003401F583EDF0807B9001CCE0FF6E704ACE
:100247009001C9E0FBA3E0FAA3E07E002FF9EE3AA4
:10025700FA900001121348FF9001D3E05FFF90016D
:10026700D2E0FD9001CCE0F9C39DFDE49400FC745D
:10027700072DF58274003CF583E0FE9001D3E0F48E
:10028700FDEE5D4FFF74D52980209001D2E0FF90ED
:1002970001CCE0FDC39FFFE49400FE74072FF582B5
:1002A70074003EF583E0FF74D52DF582E43401F543
:1002B70083EFF09001CCE004F00201FC9001C9E06B
:1002C700FBA3E0FAA3E0F912132FFF9001D3E0FE9E
:1002D7005FFFEEF4FE900007E05E4F9001D5F0E47B
:1002E7009001CCF09001CCE0FF2408F582E43400C3
:1002F700F583E0FE74D62FF582E43401F583EEF042
:100307009001CCE004F0E0B404DA9000067488F0C1
:10031700E49001CCF09001CCE0FF24D5F582E434E1
:1003270001F583E0FE74072FF582E43400F583EED0
:10033700F09001CCE004F0E0B404DA1214EB900181
:10034700C87420F09001D17401F00204687F5B1239
:1003570025089001D2E0D39400500302041A7F626B
:10036700122508E49001CCF09001CCE0FFC394047F
:1003770040030204639001D2E014FEEFC39E501BBA
:100387009001C9E0FBA3E0FAA3E0F97E00E92FF9A9
:10039700EE3AFA900001121348806B9001D2E0FF09
:1003A700149001CCF060449001C9E0FBA3E0FAA3EC
:1003B700E0F9A3E0FD7C00E92DF9EC3AFA900001A1
:1003C700121348FE9001D3E0F95EFEEFFD9001CCD9
:1003D700E0C39DFDE49CFC74072DF58274003CF599
:1003E70083E0FFE9F4FDEF5D4E801B9001D2E0FF53
:1003F7009001CCE0C39FFFE49400FE74072FF582C1
:1004070074003EF583E0FF1224B09001CCE004F0C5
:1004170002036F9001C9E0FBA3E0FAA3E0F912130E
:100427002FFF9001D3E0FE5FFFEEF4FE900006E0A1
:100437005E4FFF1224B0E49001CCF09001CCE0FFB6
:10044700C39404501774072FF582E43400F583E052
:10045700FF1224B09001CCE004F080DF7F5D12250D
:10046700089001C77495F002062F900006E0648893
:1004770070369001CCF09001CCE0FF2407F582E4C0
:100487003400F583E0FE74D92FF582E43401F58357
:10049700EEF09001CCE004F0E0B404DA1214EB9033
:1004A70001D17401F0020541E49001CCF09001CC38
:1004B700E0FF2406F582E43400F583E0FE74D92FCB
:1004C700F582E43401F583EEF09001CCE004F0E02E
:1004D700B405DA7F5B122508E49001CCF09001CCDB
:1004E700E0FFC39403501774D52FF582E43401F568
:1004F70083E0FF1224B09001CCE004F080DF90018C
:10050700D8E0FF1224B09001CC7404F09001CCE045
:10051700FFC39408501774D52FF582E43401F5838F
:10052700E0FF1224B09001CCE004F080DF9001DD01
:10053700E0FF1224B07F5D1225089001C77497F081
:1005470002062FE49001CCF09001CCE0FF2406F5E1
:1005570082E43400F583E0FE74DD2FF582E4340194
:10056700F583EEF09001CCE004F0E0B405DA7F5BB0
:10057700122508E49001CCF09001CCE0FFC394036E
:10058700501774D52FF582E43401F583E0FF122468
:10059700B09001CCE004F080DF9001D8E0FF122496
:1005A700B09001CC7404F09001CCE0FFC3940750E5
:1005B7001774D52FF582E43401F583E0FF1224B0D8
:1005C7009001CCE004F080DF9001DCE0FF1224B062
:1005D7009001CC7408F09001CCE0FFC3940C501745
:1005E70074D52FF582E43401F583E0FF1224B0902F
:1005F70001CCE004F080DF9001E1E0FF1224B07F3E
:100607005D8022900001E0B4020E7F281225087F4A
:100617007A1225087F29800D900001E0700A7F2853
:100627001225087F29122508900001E06402705DF9
:10063700900003E004F09001CC7401F09001CCE04D
:10064700FF2405F582E43400F583E0FE74CC2FF532
:1006570082E43401F583EEF09001CCE004F0E0B4DD
:1006670005DA7F787E00121D6443881090000174BC
:1006770001F0900001E0640160F89001C7E0FF908D
:100687000003E0FD7B017A0179CD1200269001D1AC
:10069700E0601A9001C7E0FFA3E0FDA3E0FBA3E041
:1006A700FAA3E0F91200269001D47401F09001D466
:0A06B700E0600475A0FB2275A004AA
:0106C1002216
:05193700900210EFF02A
:10193C00A37493F0A37420F09000057409F0A374C1
:10194C0021F07B017A0079057D021219E3900005E4
:10195C007401F0A37488F07B017A0079057D021282
:10196C0019E3900210E090000A60057426F08003E1
:10197C007452F07B017A007905900157740FF0A333
:10198C007401F0E4FD1211605388FD43A80190002E
:10199C0001E0FFF46005EF640270207F0590002DDC
:1019AC00E4F0A3DFFC900211E0FFA3E0FD7B017AE1
:1019BC0000792D12002675A0FB800375A004900001
:1019CC00057401F0A37408F07B017A0079057D029F
:0619DC001219E353A8FEFE
:0119E20022E2
:0E0F74009001F0EBF0A3EAF0A3E9F0A3EDF09A
:100F8200A3E0FFC4540F2408FEEF540F240890017D
:100F9200F8F0A37401F0AF06A3EFF07B017A0179B8
:100FA200F97D021219E39001F3E0900132F0900111
:100FB200F0E0FBA3E0FAA3E0F9748F12139790011B
:100FC200F0E0FBA3E0FAA3E0F990000174911213A0
:100FD200A9900002743D1213A9900132E0FF780437
:100FE200A2E713D8FB9000031213A9EFC454F090A8
:100FF20000041213A99001F3E0D3940C4003740C83
:10100200F09001F0E0FBA3E0FAA3E0F9A3E02405ED
:10101200FD1220D45388FD43A801900132E024F44C
:10102200F09001F57412F09000017401F090013219
:10103200E0FFD3648094804056438701D3EF6480FD
:10104200948940089001F3740AF0800EC3EF648023
:101052009481403BEF049001F3F09001F5E0FF240E
:1010620004F582E43400F583741FF07E0074042FCB
:10107200F9EE3400FA7B019001F3E0FD121B33908C
:101082000132E024F7F09001F5E02409F0809E900F
:1010920001327401F0900001E0640160F89001F9FE
:1010A2007401F09001F8E09001FAF07B017A017985
:1010B200F97D021219E39001F77416F07B017A01AF
:1010C20079F7121AA69001F77417F07B017A017969
:1010D200F7121AA69000017401F07F3C7E00121DE7
:1010E20064438810900001E0FF640160F7EFF47040
:1010F2003B7F5B1225089001F67401F0900132E00B
:10110200FF3395E0FE9001F6E0FDC39FEE6480F8A8
:10111200748098502874052DF582E43400F583E03C
:10112200FF1224B09001F6E004F080D0900001E0BC
:10113200B402127F5B1225087F7A1225087F5D12A6
:1011420025087F0022900001E0700D7F5B122508C8
:0D1152007F5D1225087F012253A8FE7F015A
:01115F00226D
:10206C0090021BEFF0900005748FF0A37491F0A315
:10207C00743DF0E4A3F0A37410F07B017A007905B1
:10208C007D051220D490000A743FF090021BE0FFF3
:10209C00C454F0440590000BF0E4A3F0900001044C
:1020AC00F0FB7A00790A7D031220D45388FD43A8F3
:1020BC0001900001E0B4010F7F287E00121D6443E3
:0820CC00881043870180EA221D
:080D83009001FBEFF0A3EDF07D
:100D8B00E49001FEF0900200F0A3F0A3F0900005B8
:100D9B007409F0A37431F07B017A0079057D02129E
:100DAB0019E39000057407F0A37413F07B017A002C
:100DBB0079057D021219E3E4900004F090000574AC
:100DCB008FF0A37491F0A3743DF0E4A3F0A37430FF
:100DDB00F0A37405F0E4A3F09001FCE0B4040A1254
:100DEB00242490000CE04408F09001FCE090000CEF
:100DFB00F09001FBE0B4B10790000CE04408F090D8
:100E0B0000017401F0FB7A0079057D081220D453A0
:100E1B0088FD43A801E49001FFF0900001E0B401CC
:100E2B001B9001FFE0C394025012E004F07F147E8C
:100E3B0000121D6443881043870180DE900001740B
:100E4B0001F07F147E00121D644388109001FD7425
:100E5B0001F09001327401F0438701900001E0B47E
:100E6B000123900202E004F07006900201E004F00E
:100E7B00900201E0B4FFE4A3E0B4F0DFE4900001E2
:100E8B00F0900004F0900004E0B40204900001F034
:100E9B00900001E0F4703B7F5B1225089001FF741A
:100EAB0001F0900132E0FF3395E0FE9001FFE0FD91
:100EBB00C39FEE6480F8748098504574052DF582BD
:100ECB00E43400F583E0FF1224B09001FFE004F05E
:100EDB0080D0900001E0B402177F5B1225087F7A67
:100EEB001225087F5D1225089001FE7401F0801514
:100EFB00900001E0700F7F5B1225087F43122508DD
:100F0B007F5D1225089001FCE0FF60306401602CCE
:100F1B00EF64026027EFB40406A3E06410601D9039
:100F2B0001FDE0FF12206C9000017401F09001FDB7
:100F3B00E004F0E0C394115003020E5D9001FCE05D
:100F4B00B4040312244B53A8FE900200E060057515
:100F5B00A0FB800375A0049001FEE060057F641286
:090F6B0025087D027F20020D83A0
:10188700E490014CF09001EEE090014BF090014A9A
:10189700F0900149F0900148F0C2009001E6E02481
:1018A700EFB4070050769018BB75F003A4C58325E5
:1018B700F0C583730218D00218D50218DF0218E4A6
:1018C70002190402190E021918121CEB804E90011E
:1018D700E7E0FF1222CD8044122358803F9001E8B1
:1018E700E090014DF09001E9E090014EF09001E7A2
:1018F700E0FF7B017A01794D121EBD801F9001E741
:10190700E0FF12223F80159001E7E0FF1222868058
:101917000B9001E7E0FFA3E0FD12219D9001E6E0B7
:0F192700B41103121CEB90014CE070033000ED83
:01193600228E
:101E4D0053D9BFE4F5D912247212252312253E125F
:101E5D0024CBD2AFD2AC43AE0853C7F77F017E007F
:101E6D0012249243C7087F017E0012249243F18011
:101E7D0012253743A40843800843A40443F10243C9
:101E8D00A40153C7F77F017E0012249243C7087F38
:101E9D00017E0012249212000E43A88043F50430F7
:101EAD0000FD7B017A0179E412239212188780EFED
:0B23F500900213EBF0A3EAF0A3E9F064
:10240000E4FF7EAAEFC39D5018900213E0FBA3E007
:10241000FAA3E0F98F827583001213482EFE0F8015
:03242000E3AF0621
:012423002296
:0B21EF00900216EBF0A3EAF0A3E9F069
:1021FA00E4FFFEED24FEFCEFC39C5018900216E0AB
:10220A00FBA3E0FAA3E0F98F827583001213482E2C
:10221A00FE0F80DFED24FEFDE434FFFC900216E0A1
:10222A00FBA3E0FAA3E0F98D828C83121348B5066A
:04223A0002D322C3E6
:01223E00227D
:03000000021BD907
:0C1BD900787FE4F6D8FD758120021C2006
:10132F00BB010689828A83E0225002E722BBFE02BC
:09133F00E32289828A83E49322EF
:10134800BB010CE58229F582E5833AF583E022505A
:1013580006E92582F8E622BBFE06E92582F8E222A4
:0D136800E58229F582E5833AF583E49322BE
:10137500BB010989828A83F8E028F022500327F708
:1013850022BBFE05F8E328F3228A838982F8E493D9
:0213950028220C
:10139700BB010689828A83F0225002F722BBFE0135
:0213A700F3222F
:1013A900F8BB010DE58229F582E5833AF583E8F07A
:1013B900225006E92582C8F622BBFE05E92582C826
:0213C900F2220E
:1013CB00EF8DF0A4A8F0CF8CF0A428CE8DF0A42E36
:0213DB00FE22F0
:1013DD00C5F0F8A3E028F0C5F0F8E582158270029B
:0613ED001583E038F02238
:1013F300A3F8E0C5F025F0F0E582158270021583AD
:06140300E0C838F0E82209
:10231400C2D5E830E70FB2D5E4C39BFBE49AFAE4F4
:1023240099F9E498F8EC30E717B2D512234A12145D
:1023340059E4C39BFBE49AFAE499F9E498F880031E
:1023440012145930D50DE4C39FFFE49EFEE49DFDB5
:04235400E49CFC22E7
:10140900E86010ECA2E713FCED13FDEE13FEEF13F9
:04141900FFD8F022E6
:101BE500021E4DE493A3F8E493A34003F68001F2AB
:101BF50008DFF48029E493A3F85407240CC8C33301
:101C0500C4540F4420C8834004F456800146F6DFCF
:101C1500E4800B0102040810204080901DDAE47E68
:101C2500019360BCA3FF543F30E509541FFEE493C4
:101C3500A360010ECF54C025E060A840B8E493A38B
:101C4500FAE493A3F8E493A3C8C582C8CAC583CAB6
:101C5500F0A3C8C582C8CAC583CADFE9DEE780BE6E
:011E4C000095
:10141D0075F008758200EF2FFFEE33FECD33CDCC86
:10142D0033CCC58233C5829BED9AEC99E582984009
:10143D000CF582EE9BFEED9AFDEC99FC0FD5F0D6E6
:10144D00E4CEFBE4CDFAE4CCF9A88222B800C1B910
:10145D000059BA002DEC8BF084CFCECDFCE5F0CB4E
:10146D00F97818EF2FFFEE33FEED33FDEC33FCEB87
:10147D0033FB10D703994004EB99FB0FD8E5E4F942
:10148D00FA227818EF2FFFEE33FEED33FDEC33FC2F
:10149D00C933C910D7059BE99A4007EC9BFCE99A23
:1014AD00F90FD8E0E4C9FAE4CCFB2275F010EF2F68
:1014BD00FFEE33FEED33FDCC33CCC833C810D70768
:1014CD009BEC9AE899400AED9BFDEC9AFCE899F8A3
:0E14DD000FD5F0DAE4CDFBE4CCFAE4C8F92236
:00000001FF
