:10188A0090002E740DF090002DF07B017A00792ED5
:10189A007D0112114A90002EE04401F07B017A008A
:0718AA00792D7D02021241BD
:1018B10090002E740DF090002DF07B017A00792EAE
:1018C1007D0112114A90002EE054FEF07B017A0056
:0718D100792D7D0202124196
:0E000E00900151EBF0A3EAF0A3E9F0A3EDF0AE
:10001C00A37401F0A37403F0E4900178F0A3F090C2
:10002C0000057409F0A37421F07B017A0079057D39
:10003C0002121241900002E090000520E1087407C2
:10004C00F0A3742F80067407F0A37413F07B017A6D
:10005C000079057D02121241E490015DF0900002DE
:10006C00E090015920E5087411F012188A8003748D
:10007C0002F090015A7401F0A37401F0A3745DF0C6
:10008C00900154E0FD1313543F2401FFE433A2E725
:10009C0013EF13900177F02403FFE433AB07FA90CE
:1000AC000005748FF0A37491F0A3743DF0EAFFA3E4
:1000BC00EFF0FEAF03EFC4F8540FC868FFA3EFF0E6
:1000CC00900002E090000AF0A37401F0A3EDF09010
:1000DC000154D394004039E4A3F0900177E0FF90F1
:1000EC000155E0FEC39F5028900151E0FBA3E0FABC
:1000FC00A3E0F98E82758300120CC6FF740D2EF5E9
:10010C0082E43400F583EFF0900155E004F080CAEE
:10011C00900157740CF0A304F07B017A0179577DA0
:10012C00011210457F147E001215395388FD43A827
:10013C00017B017A007905900177E02408FD121605
:10014C00F89000017401F043881043870190015529
:10015C00F0900159E0FF900155E0C39F400302036A
:10016C00B29001327401F07F147E0012153943886D
:10017C0010E4900178F0A3F0438701900001E0B403
:10018C000123900179E004F07006900178E004F00E
:10019C00900178E0B4FFE4A3E0B4F0DFE490000158
:1001AC00F0900004F0900157740FF07B017A017904
:1001BC00577D0112114A900001E0F4600302031A0A
:1001CC0075A0FB9001F0745AF0A37415F0E4A3F041
:1001DC00A304F0A304F0900156740AF0E490017AA1
:1001EC00F0A3F090017AE0FEA3E0FFC39408EE6464
:1001FC0080948050047D0180027D00ED603190017F
:10020C0056E02405F582E43400F583E0FD74F52F07
:10021C00F58274013EF583EDF0900156E014F090F8
:10022C00017BE004F070BC90017AE004F080B490A3
:10023C0001F1E0FF9001F0E06FFF9001FDF0900103
:10024C00F2E06FFF9001FDF09001F3E06FFF900181
:10025C00FDF09001F4E06F9001FDF0E490017CF072
:10026C00A3F090017CE0FEA3E0FFC39408EE648051
:10027C00948050279001FDE0FD74F52FF5827401F8
:10028C003EF583E0FFED6F9001FDF090017DE00401
:10029C00F070CF90017CE004F080C79001FE74A553
:1002AC00F09001F0E0FF12194B9001F1E0FF1219F0
:1002BC004B9001F2E0FF12194B9001F3E0FF121981
:1002CC004B9001F4E0FF12194BE4900156F09001B1
:1002DC0056E0FFC39408501774F52FF582E43401EF
:1002EC00F583E0FF121916900156E004F080DF90C0
:1002FC0001FDE0FF12194B9001FEE0FF12194B12A9
:0C030C0019937F1E7E001218F875A004E3
:100318008025900001E0B4021E90015BE475F001B5
:10032800120D5B900155E0FF90015AE0FBA3E0FA43
:10033800A3E0F9EF120D15900157740FF07B017AC5
:10034800017957121304900159E064117038900133
:1003580055E0C39410502F9001577416F07B017A22
:100368000179571213049001577417F07B017A0131
:1003780079571213049001577414F07B017A0179AC
:1003880057121304801B900159E0B4110C900155C9
:10039800E0B410051218B18008900159E0640260B9
:1003A80009900155E004F002015D900154E0240435
:1003B800900176F0E01313543F2401FFE433A2E7E1
:1003C80013EF1314A3F090015AE0FBA3E0FAA3E0A3
:1003D800F9120CAD7003020484900159E0641160B5
:1003E8000302048474FF120CF3E4900155F09001A9
:1003F80051E0FBA3E0FAA3E0F9900155E0FFF58294
:10040800758300120CC6FE746E2FF582E43401F574
:1004180083EEF0900155E004F0E0B408D190017645
:10042800E020E21490015AE0FBA3E0FAA3E0F912FD
:100438000CADC454F0120D15900177E0246EF582CE
:10044800E43401F583C083C082E0FF90015AE0FBE9
:10045800A3E0FAA3E0F9120CADFEEF4ED082D083F0
:10046800F07B017A01796E900176E0FD12048890A4
:0F047800015B74FFF5F0120D5B0203CE53A8FE7B
:010487002252
:0E04880090017EEBF0A3EAF0A3E9F0A3EDF003
:10049600A37401F0A37403F0E49001A5F0A3F09017
:1004A60000057409F0A37421F07B017A0079057DBB
:1004B60002121241900002E090000520E108740744
:1004C600F0A3742F80067407F0A37413F07B017AEF
:1004D6000079057D02121241E490018AF090000233
:1004E600E090018620E5087411F012188A800374E2
:1004F60002F09001877401F0A37401F0A3748AF0EE
:10050600900181E0FD1313543F2401FFE433A2E779
:1005160013EF139001A4F02403FFE433AB07FA9022
:100526000005748FF0A37491F0A3743DF0EAFFA365
:10053600EFF0FEAF03EFC4F8540FC868FFA3EFF067
:10054600900002E090000AF0A37401F0A3EDF09091
:100556000181D394004039E4A3F09001A4E0FF9018
:100566000182E0FEC39F502890017EE0FBA3E0FAE3
:10057600A3E0F98E82758300120CC6FF740D2EF56A
:1005860082E43400F583EFF0900182E004F080CA43
:10059600900184740CF0A304F07B017A0179847DC8
:1005A600011210457F147E001215395388FD43A8A9
:1005B600017B017A0079059001A4E02408FD12165A
:1005C600F89000017401F04388104387019001827E
:1005D600F0900186E0FF900182E0C39F400302088D
:1005E6002C9001327401F07F147E00121539438875
:1005F60010E49001A5F0A3F0438701900001E0B458
:1006060001239001A6E004F070069001A5E004F035
:100616009001A5E0B4FFE4A3E0B4F0DFE4900001AC
:10062600F0900004F0900184740FF07B017A017958
:10063600847D0112114A900001E0F46003020794E0
:1006460075A0FB9001F0745AF0A37415F0E4A3F0C2
:10065600A304F0A304F0900183740AF0E49001A7C8
:10066600F0A3F09001A7E0FEA3E0FFC39408EE64B8
:1006760080948050047D0180027D00ED6031900100
:1006860083E02405F582E43400F583E0FD74F52F5C
:10069600F58274013EF583EDF0900183E014F0904D
:1006A60001A8E004F070BC9001A7E004F080B490CB
:1006B60001F1E0FF9001F0E06FFF9001FDF0900185
:1006C600F2E06FFF9001FDF09001F3E06FFF900103
:1006D600FDF09001F4E06F9001FDF0E49001A9F0C7
:1006E600A3F09001A9E0FEA3E0FFC39408EE6480A6
:1006F600948050279001FDE0FD74F52FF58274017A
:100706003EF583E0FFED6F9001FDF09001AAE00455
:10071600F070CF9001A9E004F080C79001FE74A5A7
:10072600F09001F0E0FF12194B9001F1E0FF121971
:100736004B9001F2E0FF12194B9001F3E0FF121902
:100746004B9001F4E0FF12194BE4900183F0900105
:1007560083E0FFC39408501774F52FF582E4340143
:10076600F583E0FF121916900183E004F080DF9014
:1007760001FDE0FF12194B9001FEE0FF12194B122A
:0C07860019937F1E7E001218F875A00465
:100792008025900001E0B4021E900188E475F0010A
:1007A200120D5B900182E0FF900187E0FBA3E0FA6B
:1007B200A3E0F9EF120D15900184740FF07B017A1A
:1007C200017984121304900186E06411703890015B
:1007D20082E0C39410502F9001847416F07B017A4A
:1007E2000179841213049001847417F07B017A0159
:1007F20079841213049001847414F07B017A0179D4
:1008020084121304801B900186E0B4110C900182C3
:10081200E0B410051218B18008900186E06402600D
:1008220009900182E004F00205D7900181E02404DE
:100832009001A3F0E01313543F2401FFE433A2E735
:1008420013EF1314A3F0900187E0FBA3E0FAA3E0F7
:10085200F9120CAD70030208FE900186E06411608B
:10086200030208FE74FF120CF3E4900182F090017F
:100872007EE0FBA3E0FAA3E0F9900182E0FFF582BB
:10088200758300120CC6FE749B2FF582E43401F5C9
:1008920083EEF0900182E004F0E0B408D19001A36D
:1008A200E020E214900187E0FBA3E0FAA3E0F91252
:1008B2000CADC454F0120D159001A4E0249BF582F6
:1008C200E43401F583C083C082E0FF900187E0FB3E
:1008D200A3E0FAA3E0F9120CADFEEF4ED082D08372
:1008E200F07B017A01799B9001A3E0FD12000E904A
:0F08F200018874FFF5F0120D5B02084853A8FE51
:0109010022D3
:050E6900900157EDF0BF
:100E6E00900132F0748F120D15900159E09000012F
:100E7E006004749080027491120D27900002743DEC
:100E8E00120D27900132E0FF7804A2E713D8FB90F1
:100E9E000003120D27EFC454F0FF900158E0FE4FEF
:100EAE00900004120D27900157E0D3940C40037468
:100EBE000CF0900157E0700AEE60077401F090019B
:100ECE0032F0900157E02405FD1216F85388FD43C9
:100EDE00A801900132E024F4F090015A7411F090C0
:100EEE0000017401F0900132E0FFD36480948040E1
:100EFE0058438701D3EF648094894008900157745A
:100F0E000AF08010C3EF648094815002803BEF049E
:100F1E00900157F090015AE0FF2404F582E434006A
:100F2E00F583741FF07E0074042FF9EE3400FA7B03
:100F3E0001900157E0FD121391900132E024F7F079
:100F4E0090015AE02409F0809C9001327401F090D7
:100F5E000001E0B4010C7F3C7E001215394387017D
:100F6E0080ED9000017401F07F3C7E001215394334
:100F7E00881090000AE0FF5406FEBE0616A3E0FE9F
:100F8E0064216025EE64246020EE6427601BEE640D
:100F9E00296016EF703890000BE054F0FF6420606B
:100FAE0008EF64306003BF40257F147E001218F8EE
:100FBE0090015C740FF07B017A01795C121304903E
:100FCE00015C7414F07B017A01795C1213049000B9
:100FDE0001E0640160F890015B7402F0900132E070
:100FEE00FF3395E0FE90015BE0FDC39FEE6480F859
:100FFE00748098501774052DF582E43400F583E063
:10100E00FF12191690015BE004F080D053A8FE7F0A
:01101E0001D0
:01101F0022AE
:1017BB004901E50C00030410002101004C01B90F95
:1017CB0000030418402101785634124801B10B0074
:1017DB000304180020014801D50B0003041840270F
:1017EB00014801DD0B000304184029EE4701C50A2F
:1017FB0000030418002B4901CC0C00030418002C27
:02180B000102D8
:1014C300E4FF74E52FF582E43401F583E0FE74054F
:1014D3002FF582E43400F583EEF00FEFB409E390C7
:1014E3000005E024F8FF900151F0FD7B017A0079BB
:1014F3000A121241E4FF74C52FF582E43401F58327
:10150300E0FE74052FF582E43400F583EEF00FEF6F
:10151300B407E3900005E024F8FF900151F0FD7B50
:10152300017A007905E4900158F0A3F0120E697F67
:06153300207E030218F8FF
:1015AF00E4900147F0A37421F0A37401F0A304F0B9
:1015BF007B017A0179477D041212417F057E00126B
:1015CF0018F89000027406F09001477404F07B0144
:1015DF007A017947E4FD12000EE4900147F0A3046D
:1015EF00F0FB7A0179477D021212417F017E0012D2
:1015FF0018F8900147740CF0A304F07B017A01797D
:10160F00477D021210451214C37F0A7E001218F88C
:02161F00808EBB
:05180D004201FF008014
:0E1241009001ABEBF0A3EAF0A3E9F0A3EDF00F
:10124F005380F75380FE9001AEE0D3940050030219
:10125F0012E59001ABE0FBA3E0FAA3E0F9120CADAD
:10126F00541F120D15E49001AFF09001AFE0C3943D
:10127F000250D3E4A3F09001ABE0FBA3E0FAA3E0AC
:10128F00F9120CADFF9001FFE0FCA3E0FDED5F60F4
:10129F000543800480035380FB4380015380FEECA1
:1012AF00C313FFED139001FFCFF0A3EFF09001B048
:1012BF00E004F0E0B408BF9001FFE4F0A37480F005
:1012CF009001ACE475F001120D5B9001AEE014F0EB
:0912DF00A3E004F08094438008B0
:0112E80022E3
:0E13910090015EEBF0A3EAF0A3E9F0A3EDF00B
:10139F005380F75380FE90015EE0FBA3E0FAA3E0D9
:1013AF00F9120CAD4420120D1590015EE0FBA3E085
:1013BF00FAA3E0F9120CAD543F120D15900161E044
:1013CF00D39400405FE4A3F090015EE0FBA3E0FA4A
:1013DF00A3E0F9120CADFF9001FFE0FCA3E0FDEDDF
:1013EF005F600543800480035380FB43800153807B
:1013FF00FEECC313FFED139001FFCFF0A3EFF090BE
:10140F000162E004F0E0B408BF9001FFE4F0A374C0
:10141F0080F090015FE475F001120D5B900161E0C7
:07142F0014F08098438008CF
:011436002293
:10113800741C120D15900137E0FBA3E0FAA3E0F947
:021148007D0127
:0E114A009001ABEBF0A3EAF0A3E9F0A3EDF007
:101158005380F79001AEE0D39400500302123D9003
:1011680001ABE0FBA3E0FAA3E0F9120CAD44401296
:101178000D159001ABE0FBA3E0FAA3E0F9120CAD6A
:10118800545F120D15E49001AFF09001ABE0FBA3A2
:10119800E0FAA3E0F9120CADFF9001FFE0FCA3E038
:1011A800FDED5F600543800480035380FB438001AD
:1011B8005380FEECC313FFED139001FFCFF0A3EFB4
:1011C800F09001AFE004F0E0B408BF9001FFE4F054
:1011D800A37480F09001ABE0FBA3E0FAA3E0F9E48C
:1011E800120D159001AFF09001ABE0FBA3E0FAA35C
:1011F800E0F9120CAD25E0120D154380015380FE75
:10120800E58030E1139001ABE0FBA3E0FAA3E0F93D
:10121800120CAD4401120D159001AFE004F0E0B4DA
:1012280008C59001ACE475F001120D5B9001AEE0C9
:0812380014F002115B43800871
:01124000228B
:10102000900137E0FBA3E0FAA3E0F9740C120D1570
:10103000900137E0FBA3E0FAA3E0F9900001740D02
:05104000120D277D02E6
:0E1045009001ABEBF0A3EAF0A3E9F0A3EDF00D
:101053005380F79001ABE0FBA3E0FAA3E0F9120C95
:10106300AD4460120D159001ABE0FBA3E0FAA3E0E1
:10107300F9120CAD547F120D15E49001AFF09001FD
:10108300ABE0FBA3E0FAA3E0F9120CADFF9001FF84
:10109300E0FCA3E0FDED5F60054380048003538023
:1010A300FB4380015380FEECC313FFED139001FF5C
:1010B300CFF0A3EFF09001AFE004F0E0B408BF90ED
:1010C30001FFE4F0A37480F09001AEE0D3940040FC
:1010D300609001ABE0FBA3E0FAA3E0F9E4120D1585
:1010E3009001AFF09001ABE0FBA3E0FAA3E0F912AB
:1010F3000CAD25E0120D154380015380FEE58030D1
:10110300E1139001ABE0FBA3E0FAA3E0F9120CAD0D
:101113004401120D159001AFE004F0E0B408C5904E
:1011230001ACE475F001120D5B9001AEE014F080A8
:041133009743800856
:011137002295
:1012E900900137E0FBA3E0FAA3E0F9740F120D15A2
:0B12F900900137E0FBA3E0FAA3E0F94E
:0B1304009001ABEBF0A3EAF0A3E9F0CE
:10130F005380F79001ABE0FBA3E0FAA3E0F9120CD6
:10131F00AD4480120D159001ABE0FBA3E0FAA3E002
:10132F00F9120CAD549F120D15E49001AEF090011F
:10133F00ABE0FBA3E0FAA3E0F9120CADFF9001FFC5
:10134F00E0FCA3E0FDED5F60054380048003538064
:10135F00FB4380015380FEECC313FFED139001FF9D
:10136F00CFF0A3EFF09001AEE004F0E0B408BF902F
:10137F0001FFE4F0A37480F04380015380FE4380AB
:01138F000855
:01139000223A
:0516F8009001ABEDF0D4
:1016FD005380F79001ABE0D394004051E4A3F01276
:10170D000CADFF9001FFE0FCA3E0FDED5F60054334
:10171D00800480035380FB4380015380FEECC31390
:10172D00FFED139001FFCFF0A3EFF09001ACE004BB
:10173D00F0E0B408CA9001FFE4F0A37480F07401E6
:10174D0029F9E43AFA9001ABE014F080A643800841
:01175D002269
:101963009001477409F0A37421F07B017A01794750
:051973007D020212419B
:0B090200900137EBF0A3EAF0A3E9F04E
:10090D00120CADFFB4A003020C87EFB48007E49086
:10091D000001020C00900137E0FBA3E0FAA3E0F91F
:10092D00120CAD30E16F9000017402F074161212CA
:10093D00F6900003740EF07B017A0079037D0112AD
:10094D00114A900003E024E090013AF0540F600446
:10095D00E02410F090013AE0FFC4540FF0603390A2
:10096D000132E0FF3395E0FE74052FF58274003EF1
:10097D00F583741FF074052FF974003EFA7B019016
:10098D00013AE0FD12104590013AE0FF900132E08E
:10099D002FF0020CA3900137E0FBA3E0FAA3E0F9DE
:1009AD00120CAD64406003020ABA900004E0B40278
:1009BD0003020C31900137E0FBA3E0FAA3E0F9123A
:1009CD001138900137E0FBA3E0FAA3E0F9120CAD6A
:1009DD00540F04120D15900132E0FF3395E0FE74B3
:1009ED00052FF58274003EF583741FF074052FF901
:1009FD0074003EFA7B01C003C002C001900137E0D4
:100A0D00FBA3E0FAA3E0F9120CADFDD001D002D0AA
:100A1D0003121045900137E0FBA3E0FAA3E0F912B1
:100A2D000CADFF900132E02FF0741E120D159001E8
:100A3D0037E0FBA3E0FAA3E0F97D01121045900128
:100A4D0037E0FBA3E0FAA3E0F9120CADFF30E0575D
:100A5D00EFC3135407120D15900137E0FBA3E0FA15
:100A6D00A3E0F9120CADFFC374089F120D15900190
:100A7D0032E0FF3395E0FE74042FF58274003EF5ED
:100A8D0083C083C082E0FF900137E0FBA3E0FAA3AF
:100A9D00E0F9120CADFE74FFA806088002C333D82E
:100AAD00FC5FD082D083F01212E9020C499001371D
:100ABD00E0FBA3E0FAA3E0F9120CAD646060030261
:100ACD000C5090000104F0900132E0FF3395E0FEF0
:100ADD0074052FF58274003EF583741FF074052F95
:100AED00F974003EFA7B017D09121045900132E048
:100AFD002409F0E58020E703020C361210205388FC
:100B0D00FD900137E0FBA3E0FAA3E0F9120CAD6410
:100B1D00406003020C1F121138900137E0FBA3E077
:100B2D00FAA3E0F9120CAD04540F120D1590013219
:100B3D00E0FF3395E0FE74052FF58274003EF583DA
:100B4D00741FF074052FF974003EFA7B01C003C0C9
:100B5D0002C001900137E0FBA3E0FAA3E0F9120C0B
:100B6D00ADFDD001D002D003121045900137E0FB4E
:100B7D00A3E0FAA3E0F9120CADFF900132E02FF0E3
:100B8D00741E12113A900137E0FBA3E0FAA3E0F9CD
:100B9D00120CADFF30E057EFC3135407120D159033
:100BAD000137E0FBA3E0FAA3E0F9120CADFFC3742B
:100BBD00089F120D15900132E0FF3395E0FE74048D
:100BCD002FF58274003EF583C083C082E0FF900153
:100BDD0037E0FBA3E0FAA3E0F9120CADFE74FFA819
:100BED0006088002C333D8FC5FD082D083F090001A
:100BFD000174FFF0900137E0FBA3E0FAA3E0F97474
:100C0D000F120D15900137E0FBA3E0FAA3E0F902F6
:100C1D001304900137E0FBA3E0FAA3E0F9120CAD49
:100C2D006450707B9000018049121020900137E0D4
:100C3D00FBA3E0FAA3E0F9120CAD70639000017410
:100C4D00FFF022900137E0FBA3E0FAA3E0F9120CCC
:100C5D00ADFF30E40A90000130E502800C8013EF07
:100C6D0030E21390000130E5097401F090000404A6
:100C7D00F0227402F022EFB40106E4900001F0229C
:100C8D009000017402F0900137E0FBA3E0FAA3E0BD
:0F0C9D00F974161212F61212E91210205388FD84
:010CAC002225
:0300030002168D55
:10168D00C0E0C0F0C083C082C0D075D000C000C023
:0D169D0001C002C003C004C005C006C007A4
:1016AA005388EF5388FD900133740CF0A304F07B48
:1016BA00017A0179337D02121045900133E064A06A
:1016CA00600E7B017A017933120902E58020E7D3A3
:0316DA005387FD36
:1016DD00D007D006D005D004D003D002D001D00061
:0B16ED00D0D0D082D083D0F0D0E0320B
:07199D0043880143E40F221F
:1018F800D3EF9400EE940040147D107C27ED1D700A
:0D190800011CED4C70F7EF1F70E61E80E330
:0119150022AF
:101539009001ABEEF0A3EFF0C28D5389F04389011E
:10154900538EFCD2A9C28C9001ABE0FEA3E0FF7CD4
:10155900037DE8120D49AA06EA3395E0F9F8C37448
:10156900FF9FFF74FF9AFEE499FDE498FC78081246
:101579000D878F8C9001ABE0FEA3E0FF7C037DE833
:10158900120D49AA06EA3395E0F9F8C374FF9FFFE3
:1015990074FF9AFEE499FDE498FCE4FB7A01F9F8FA
:0615A9001218138F8A22C4
:1018D800E4FFFE75B28375B9800FBF00010EEF6497
:0F18E800144E70F543B9C0E5B930E5FBE4F5A93E
:0118F70022CE
:03000B00021621B9
:10162100C0E0C0F0C083C082C0D075D000C000C08F
:0D16310001C002C003C004C005C006C00710
:10163E005388EF900140740CF0A304F07B017A0103
:10164E0079407D02121045900140E054F7F060049D
:10165E00E0B48007900001E4F08006900001740170
:04166E00F0438701BD
:10167200D007D006D005D004D003D002D001D000CC
:0B168200D0D0D082D083D0F0D0E03276
:0A19890075A41075E10175E240221B
:10193100759810758DCC538EF4438E08858D8B531D
:0A194100890F438920D28ED299222B
:10194B00EFB40A083099FDC29975990D3099FDC213
:08195B00998F99AF997E0022DB
:0A1993007F0D12194B7F0A02194B59
:10185700900202EBF0A3EAF0A3E9F0900202E0FBAA
:10186700A3E0FAA3E0F9120CAD6017900202A3E41B
:1018770075F001120D71A9F0FA120CADFF12194B98
:0318870080D922E3
:10197800AE07EFD39409400474072EFE74302EFF8F
:01198800223C
:02191600AD071B
:10191800EDC4540FFF121978AE0712194BED540F8E
:09192800FF121978AE0702194BF9
:10175E0053D9BFE4F5D91218D81219891219314389
:10176E00AE0853C7F77F017E001218F843C7087FF3
:10177E00017E001218F843F18012199D43A408430C
:10178E00800843A40443F10243A40153C7F77F0129
:10179E007E001218F843C7087F017E001218F81257
:0D17AE00196343A88043F5041215AF80FBBA
:03000000021437B0
:0C143700787FE4F6D8FD75810702147E72
:100CAD00BB010689828A83E0225002E722BBFE0245
:090CBD00E32289828A83E4932278
:100CC600BB010CE58229F582E5833AF583E02250E3
:100CD60006E92582F8E622BBFE06E92582F8E2222D
:0D0CE600E58229F582E5833AF583E4932247
:100CF300BB010989828A83F8E028F022500327F791
:100D030022BBFE05F8E328F3228A838982F8E49361
:020D1300282294
:100D1500BB010689828A83F0225002F722BBFE01BD
:020D2500F322B7
:100D2700F8BB010DE58229F582E5833AF583E8F002
:100D3700225006E92582C8F622BBFE05E92582C8AE
:020D4700F22296
:100D4900EF8DF0A4A8F0CF8CF0A428CE8DF0A42EBE
:020D5900FE2278
:100D5B00C5F0F8A3E028F0C5F0F8E5821582700223
:060D6B001583E038F022C0
:100D7100A3F8E0C5F025F0F0E58215827002158335
:060D8100E0C838F0E82292
:10181300C2D5E830E70FB2D5E4C39BFBE49AFAE400
:1018230099F9E498F8EC30E717B2D5121849120D7C
:10183300D7E4C39BFBE49AFAE499F9E498F88003AC
:10184300120DD730D50DE4C39FFFE49EFEE49DFD4A
:04185300E49CFC22F3
:100D8700E86010ECA2E713FCED13FDEE13FEEF1382
:040D9700FFD8F0226F
:1014430002175EE493A3F8E493A34003F68001F24A
:1014530008DFF48029E493A3F85407240CC8C333AA
:10146300C4540F4420C8834004F456800146F6DF79
:10147300E4800B01020408102040809017BBE47E37
:10148300019360BCA3FF543F30E509541FFEE4936E
:10149300A360010ECF54C025E060A840B8E493A335
:1014A300FAE493A3F8E493A3C8C582C8CAC583CA60
:1014B300F0A3C8C582C8CAC583CADFE9DEE780BE18
:0118120000D5
:100D9B0075F008758200EF2FFFEE33FECD33CDCC0F
:100DAB0033CCC58233C5829BED9AEC99E582984092
:100DBB000CF582EE9BFEED9AFDEC99FC0FD5F0D66F
:100DCB00E4CEFBE4CDFAE4CCF9A88222B800C1B999
:100DDB000059BA002DEC8BF084CFCECDFCE5F0CBD7
:100DEB00F97818EF2FFFEE33FEED33FDEC33FCEB10
:100DFB0033FB10D703994004EB99FB0FD8E5E4F9CB
:100E0B00FA227818EF2FFFEE33FEED33FDEC33FCB7
:100E1B00C933C910D7059BE99A4007EC9BFCE99AAB
:100E2B00F90FD8E0E4C9FAE4CCFB2275F010EF2FF0
:100E3B00FFEE33FEED33FDCC33CCC833C810D707F0
:100E4B009BEC9AE899400AED9BFDEC9AFCE899F82B
:0E0E5B000FD5F0DAE4CDFBE4CCFAE4C8F922BE
:00000001FF
