:10215F0066696E64206974006F6A626B00736869E8
:04216F006261690040
:1020860090002E740DF090002DF07B017A00792ED1
:102096007D0112177A90002EE04401F07B017A0050
:0720A600792D7D02021930C3
:1020AD0090002E740DF090002DF07B017A00792EAA
:1020BD007D0112177A90002EE054FEF07B017A001C
:0720CD00792D7D020219309C
:0E0A6D0090015BEBF0A3EAF0A3E9F0A3EDF03B
:100A7B00A37401F0A37403F0E4900182F0A3F0904F
:100A8B0000057409F0A37421F07B017A0079057DD0
:100A9B0002121930900002E090000520E108740763
:100AAB00F0A3742F80067407F0A37413F07B017A04
:100ABB000079057D02121930E4900167F090000275
:100ACB00E090016320E5087411F012208680037416
:100ADB0002F09001647401F0A37401F0A37467F049
:100AEB0090015EE0FD1313543F2401FFE433A2E7B2
:100AFB0013EF13900181F02403FFE433AB07FA905B
:100B0B000005748FF0A37491F0A3743DF0EAFFA37A
:100B1B00EFF0FEAF03EFC4F8540FC868FFA3EFF07C
:100B2B00900002E090000AF0A37401F0A3EDF090A6
:100B3B00015ED394004039E4A3F0900181E0FF9073
:100B4B00015FE0FEC39F502890015BE0FBA3E0FA3E
:100B5B00A3E0F98E82758300121332FF740D2EF50C
:100B6B0082E43400F583EFF090015FE004F080CA7B
:100B7B00900161740CF0A304F07B017A0179617D23
:100B8B00021216757F147E00121BB25388FD43A808
:100B9B00017B017A007905900181E02408FD121E8A
:100BAB00BC9000017401F043881043870190015FF2
:100BBB00F0900163E0FF90015FE0C39F4003020CE4
:100BCB00AD9001327401F07F147E00121BB243888A
:100BDB0010E4900182F0A3F0438701900001E0B490
:100BEB000123900183E004F07006900182E004F091
:100BFB00900182E0B4FFE4A3E0B4F0DFE4900001E5
:100C0B00F0900004F0900161740FF07B017A017990
:100C1B00617D0112177A900001E0B4FF1275A0FB01
:100C2B007BFF7A21795F12202312219E75A00490FD
:100C3B000161740FF07B017A0179611219F3900154
:100C4B0063E06411703890015FE0C39410502F90F3
:100C5B0001617416F07B017A0179611219F390012D
:100C6B00617417F07B017A0179611219F3900161BC
:100C7B007414F07B017A0179611219F3801B9001D6
:100C8B0063E0B4110C90015FE0B410051220AD804D
:100C9B0008900163E06402600990015FE004F002D8
:100CAB000BBC90015EE02404900180F0E013135420
:100CBB003F2401FFE433A2E713EF1314A3F09001D9
:100CCB0064E0FBA3E0FAA3E0F91213197003020D21
:100CDB007F900163E064116003020D7F74FF1213B8
:100CEB005FE490015FF090015BE0FBA3E0FAA3E00F
:100CFB00F990015FE0FFF582758300121332FE74E9
:100D0B00782FF582E43401F583EEF090015FE00477
:100D1B00F0E0B408D1900180E020E214900164E08F
:100D2B00FBA3E0FAA3E0F9121319C454F0121381D8
:100D3B00900181E02478F582E43401F583C083C00F
:100D4B0082E0FF900164E0FBA3E0FAA3E0F9121349
:100D5B0019FEEF4ED082D083F07B017A0179789027
:100D6B000180E0FD120A6D90016574FFF5F012131E
:070D7B00C7020CC953A8FEDA
:010D8200224E
:05114B0090015FEDF0D2
:10115000900132F0748F121381900161E0900001D0
:101160006004749080027491121393900002743D95
:10117000121393900132E0FF7804A2E713D8FB909A
:101180000003121393EFC454F0FF900160E0FE4F90
:1011900090000412139390015FE0D3940C40037409
:1011A0000CF090015FE0700AEE60077401F09001AE
:1011B00032F090015FE02405FD121EBC5388FD4310
:1011C000A801900132E024F4F09001627411F090D3
:1011D0000132E0FFD3648094804056438701D3EF0F
:1011E00064809489400890015F740AF0800EC3EF18
:1011F00064809481403BEF0490015FF0900162E0D5
:10120000FF2404F582E43400F583741FF07E00743B
:10121000042FF9EE3400FA7B0190015FE0FD121A11
:1012200080900132E024F7F0900162E02409F08020
:101230009E9001327401F0900001E0B4010F7F3CF8
:101240007E00121BB243881043870180EA900001A0
:101250007401F07F3C7E00121BB243881090000A9C
:10126000E0FF30E61BA3E0FE6421602AEE64246008
:1012700025EE64276020EE6429601BEE6401601691
:10128000EF703890000BE054F0FF64206008EF64CA
:10129000306003BF40257F147E001220F49001636C
:1012A000740FF07B017A0179631219F39001637472
:1012B00014F07B017A0179631219F3900001E0FFC9
:1012C000640160F7EFB4FF1A900006E07BFF700640
:1012D0007A21796780047A21796C12202312219E69
:1012E0008031900001E0B402127F5B1221477F7AC7
:1012F0001221477F5D1221477F0022900001E0709C
:10130000127F5B1221477F691221477F5D122147BF
:081310007F012253A8FE7F01BA
:0113180022B2
:1020560049019E0C00030410002101004C01920F5F
:1020660000030418002108FFFF000048018A0B0046
:062076000304180020081D
:101D0E00E4FF749E2FF582E43401F583E0FE740542
:101D1E002FF582E43400F583EEF00FEFB409E39073
:101D2E000005E024F8FF90015BF0FD7B017A00795D
:101D3E000A121930E4FF748A2FF582E43401F58318
:101D4E00E0FE74052FF582E43400F583EEF00FEF1C
:101D5E00B409E3900005E024F8FF90015BF0FD7BF1
:0F1D6E00017A007905E4900160F0A3F002114BB7
:101C9C00E490014FF0A37421F0A37401F0A304F0BD
:101CAC007B017A01794F7D041219307F057E001279
:101CBC0020F49000027406F090014F7404F07B0144
:101CCC007A01794FE4FD120A6DE490014FF0A30400
:101CDC00F0FB7A01794F7D021219307F017E0012E0
:101CEC0020F490014F740CF0A304F07B017A01797D
:101CFC004F7D02121675121D0E7F0A7E001220F403
:021D0C00808EC7
:05207C004201E00080BC
:0E193000900184EBF0A3EAF0A3E9F0A3EDF040
:10193E005380F75380FE900187E0D394005003024A
:10194E0019D4900184E0FBA3E0FAA3E0F912131975
:10195E00541F121381E4900188F0900188E0C39423
:10196E000250D3E4A3F0900184E0FBA3E0FAA3E0DD
:10197E00F9121319FF9001E0E0FCA3E0FDED5F60AA
:10198E000543800480035380FB4380015380FEECAB
:10199E00C313FFED139001E0CFF0A3EFF090018998
:1019AE00E004F0E0B408BF9001E0E4F0A37480F02E
:1019BE00900185E475F0011213C7900187E014F0D1
:0919CE00A3E004F08094438008BA
:0119D70022ED
:0E1A8000900164EBF0A3EAF0A3E9F0A3EDF00F
:101A8E005380F75380FE900164E0FBA3E0FAA3E0DD
:101A9E00F91213194420121381900164E0FBA3E0A4
:101AAE00FAA3E0F9121319543F121381900167E063
:101ABE00D39400405FE4A3F0900164E0FBA3E0FA4E
:101ACE00A3E0F9121319FF9001E0E0FCA3E0FDED95
:101ADE005F600543800480035380FB438001538085
:101AEE00FEECC313FFED139001E0CFF0A3EFF090E7
:101AFE000168E004F0E0B408BF9001E0E4F0A374E4
:101B0E0080F0900165E475F0011213C7900167E053
:071B1E0014F08098438008D9
:011B2500229D
:10176800741C121381900137E0FBA3E0FAA3E0F99F
:021778007D01F1
:0E177A00900184EBF0A3EAF0A3E9F0A3EDF0F8
:101788005380F7900187E0D39400500302186D90BE
:101798000184E0FBA3E0FAA3E0F912131944401214
:1017A8001381900184E0FBA3E0FAA3E0F912131976
:1017B800545F121381E4900188F0900184E0FBA348
:1017C800E0FAA3E0F9121319FF9001E0E0FCA3E0AE
:1017D800FDED5F600543800480035380FB43800177
:1017E8005380FEECC313FFED139001E0CFF0A3EF9D
:1017F800F0900188E004F0E0B408BF9001E0E4F064
:10180800A37480F0900184E0FBA3E0FAA3E0F9E47C
:10181800121381900188F0900184E0FBA3E0FAA301
:10182800E0F912131925E01213814380015380FE59
:10183800E58030E113900184E0FBA3E0FAA3E0F92E
:101848001213194401121381900188E004F0E0B4E6
:1018580008C5900185E475F0011213C7900187E06F
:0818680014F002178B43800805
:011870002255
:10165000900137E0FBA3E0FAA3E0F9740C121381C8
:10166000900137E0FBA3E0FAA3E0F9900001740DCC
:051670001213937D023E
:0E167500900184EBF0A3EAF0A3E9F0A3EDF0FE
:101683005380F7900184E0FBA3E0FAA3E0F912137F
:10169300194460121381900184E0FBA3E0FAA3E0F4
:1016A300F9121319547F121381E4900188F0900109
:1016B30084E0FBA3E0FAA3E0F9121319FF9001E021
:1016C300E0FCA3E0FDED5F600543800480035380ED
:1016D300FB4380015380FEECC313FFED139001E045
:1016E300CFF0A3EFF0900188E004F0E0B408BF90DE
:1016F30001E0E4F0A37480F0900187E0D39400400C
:1017030060900184E0FBA3E0FAA3E0F9E412138103
:10171300900188F0900184E0FBA3E0FAA3E0F912C2
:10172300131925E01213814380015380FEE58030B5
:10173300E113900184E0FBA3E0FAA3E0F91213198B
:101743004401121381900188E004F0E0B408C590CD
:101753000185E475F0011213C7900187E014F0804E
:041763009743800820
:01176700225F
:1019D800900137E0FBA3E0FAA3E0F9740F1213813A
:0B19E800900137E0FBA3E0FAA3E0F958
:0B19F300900184EBF0A3EAF0A3E9F000
:1019FE005380F7900184E0FBA3E0FAA3E0F9121301
:101A0E00194480121381900184E0FBA3E0FAA3E055
:101A1E00F9121319549F121381E4900187F090016B
:101A2E0084E0FBA3E0FAA3E0F9121319FF9001E0A2
:101A3E00E0FCA3E0FDED5F6005438004800353806E
:101A4E00FB4380015380FEECC313FFED139001E0C6
:101A5E00CFF0A3EFF0900187E004F0E0B408BF9060
:101A6E0001E0E4F0A37480F04380015380FE4380D4
:011A7E00085F
:011A7F002244
:051EBC00900184EDF02F
:101EC1005380F7900184E0D394004051E4A3F012D1
:101ED1001319FF9001E0E0FCA3E0FDED5F60054315
:101EE100800480035380FB4380015380FEECC313C5
:101EF100FFED139001E0CFF0A3EFF0900185E00436
:101F0100F0E0B408CA9001E0E4F0A37480F0740139
:101F110029F9E43AFA900184E014F080A64380089C
:011F2100229D
:10000E0090014F7409F0A37431F07B017A01794F9E
:05001E007D0202193013
:0B06C200900137EBF0A3EAF0A3E9F091
:1006CD00121319FFB4A003020A47EFB48007E49098
:1006DD0000010209C0900137E0FBA3E0FAA3E0F9A5
:1006ED0012131930E16F9000017402F07416121993
:1006FD00E5900003740EF07B017A0079037D011201
:10070D00177A900003E024E090013AF0540F600452
:10071D00E02410F090013AE0FFC4540FF0603390E4
:10072D000132E0FF3395E0FE74052FF58274003E33
:10073D00F583741FF074052FF974003EFA7B019058
:10074D00013AE0FD12167590013AE0FF900132E09A
:10075D002FF0020A63900137E0FBA3E0FAA3E0F962
:10076D001213196440600302087A900004E0B40289
:10077D00030209F1900137E0FBA3E0FAA3E0F912BF
:10078D001768900137E0FBA3E0FAA3E0F912131903
:10079D00540F04121381900132E0FF3395E0FE7483
:1007AD00052FF58274003EF583741FF074052FF943
:1007BD0074003EFA7B01C003C002C001900137E016
:1007CD00FBA3E0FAA3E0F9121319FDD001D002D07A
:1007DD0003121675900137E0FBA3E0FAA3E0F912BE
:1007ED001319FF900132E02FF0741E121381900146
:1007FD0037E0FBA3E0FAA3E0F97D01121675900135
:10080D0037E0FBA3E0FAA3E0F9121319FF30E0572C
:10081D00EFC3135407121381900137E0FBA3E0FAE5
:10082D00A3E0F9121319FFC374089F1213819001ED
:10083D0032E0FF3395E0FE74042FF58274003EF52F
:10084D0083C083C082E0FF900137E0FBA3E0FAA3F1
:10085D00E0F9121319FE74FFA806088002C333D8FD
:10086D00FC5FD082D083F01219D8020A09900137AB
:10087D00E0FBA3E0FAA3E0F9121319646060030230
:10088D000A1090000104F0900132E0FF3395E0FE74
:10089D0074052FF58274003EF583741FF074052FD7
:1008AD00F974003EFA7B017D09121675900132E054
:1008BD002409F0E58020E7030209F612165053884B
:1008CD00FD900137E0FBA3E0FAA3E0F912131964E0
:1008DD004060030209DF121768900137E0FBA3E0C7
:1008ED00FAA3E0F912131904540F12138190013277
:1008FD00E0FF3395E0FE74052FF58274003EF5831D
:10090D00741FF074052FF974003EFA7B01C003C00B
:10091D0002C001900137E0FBA3E0FAA3E0F9121346
:10092D0019FDD001D002D003121675900137E0FBEE
:10093D00A3E0FAA3E0F9121319FF900132E02FF0B2
:10094D00741E12176A900137E0FBA3E0FAA3E0F9D9
:10095D00121319FF30E057EFC31354071213819090
:10096D000137E0FBA3E0FAA3E0F9121319FFC374FA
:10097D00089F121381900132E0FF3395E0FE74045D
:10098D002FF58274003EF583C083C082E0FF900195
:10099D0037E0FBA3E0FAA3E0F9121319FE74FFA8E8
:1009AD0006088002C333D8FC5FD082D083F090005C
:1009BD000174FFF0900137E0FBA3E0FAA3E0F974B6
:1009CD000F121381900137E0FBA3E0FAA3E0F902C7
:1009DD0019F3900137E0FBA3E0FAA3E0F912131924
:1009ED006450707B9000018049121650900137E0E1
:1009FD00FBA3E0FAA3E0F9121319706390000174E0
:100A0D00FFF022900137E0FBA3E0FAA3E0F9121307
:100A1D0019FF30E40A90000130E502800C8013EFDD
:100A2D0030E21390000130E5097401F090000404E8
:100A3D00F0227402F022EFB40106E4900001F022DE
:100A4D009000017402F0900137E0FBA3E0FAA3E0FF
:0F0A5D00F974161219E51219D81216505388FDA4
:010A6C002267
:03000300021DE9F2
:101DE900C0E0C0F0C083C082C0D075D000C000C0C0
:0D1DF90001C002C003C004C005C006C00741
:101E06005388EF5388FD900133740CF0A304F07BE4
:101E1600017A0179337D02121675900133E064A0D0
:101E2600600E7B017A0179331206C2E58020E7D382
:031E3600758700AD
:101E3900D007D006D005D004D003D002D001D000FD
:0B1E4900D0D0D082D083D0F0D0E032A7
:0721A80043880143E40F220C
:1020F400D3EF9400EE940040147D107C27ED1D7006
:0D210400011CED4C70F7EF1F70E61E80E32C
:0121110022AB
:101BB200900184EEF0A3EFF0C28D5389F0438901C6
:101BC200538EFCD2A9C28C900184E0FEA3E0FF7C7C
:101BD200037DE81213B5AA06EA3395E0F9F8C37457
:101BE200FF9FFF74FF9AFEE499FDE498FC780812C7
:101BF20013F38F8C900184E0FEA3E0FF7C037DE869
:101C02001213B5AA06EA3395E0F9F8C374FF9FFFF1
:101C120074FF9AFEE499FDE498FCE4FB7A01F9F87A
:061C2200121FDF8F8A2271
:1020D400E4FFFE75B28375B9800FBF00010EEF6493
:0F20E400144E70F543B9C0E5B930E5FBE4F5A93A
:0120F30022CA
:03000B00021D7D56
:101D7D00C0E0C0F0C083C082C0D075D000C000C02C
:0D1D8D0001C002C003C004C005C006C007AD
:101D9A005388EF900140740CF0A304F07B017A01A0
:101DAA0079407D02121675900140E054F7F0600404
:101DBA00E0B48007900001E4F0800690000174010D
:041DCA00F075870029
:101DCE00D007D006D005D004D003D002D001D00069
:0B1DDE00D0D0D082D083D0F0D0E03213
:1021840052656164657220656E61626C65642E00DF
:042081004101E30135
:0A21940075A41075E10175E2402208
:10212D00759810758DCC538EF4438E08858D8B5319
:0A213D00890F438920D28ED2992227
:10214700EFB40A083099FDC29975990D3099FDC20F
:08215700998F99AF997E0022D7
:0A219E007F0D1221477F0A0221473E
:10202300900184EBF0A3EAF0A3E9F0900184E0FBD4
:10203300A3E0FAA3E0F91213196017900184A3E453
:1020430075F0011213DDA9F0FA121319FF122147DB
:0320530080D9220F
:10217300AE07EFD39409400474072EFE74302EFF8C
:012183002239
:02211200AD0717
:10211400EDC4540FFF122173AE07122147ED540F83
:09212400FF122173AE07022147EE
:101F85007D01ED604F438701900000E0C3648094BC
:101F9500E14004E024E0F0900000E0FFC364809499
:101FA500B04008D3EF648094B94010C3EF648094C7
:101FB500C140CFD3EF648094C650C7E4FD122147DA
:101FC500900000E0FFD3648094B940B6EF540F242D
:091FD50009F080AE900000E0FF6D
:011FDE0022E0
:03002300021C2894
:101C2800C0E0C0F0C083C082C0D075D000C000C082
:101C380001C002C003C004C005C006C007309839FF
:101C4800900000E599F09001E57401F09001E4E05E
:101C5800701843C7081220D412000E7BFF7A21792E
:101C6800841220239001E47401F07587009001E349
:101C7800E0600653A8FE5388EFD007D006D005D001
:101C880004D003D002D001D000D0D0D082D083D0ED
:041C9800F0D0E03276
:0B14D5009001A7E0FF7B017A00790680
:0E14E0009001D6EFF0A3EBF0A3EAF0A3E9F041
:1014EE00E49001DBF090003704F0A37408F07B0168
:1014FE007A0079377D02121930E49001DAF090010A
:10150E00D7E0FBA3E0FAA3E0F9A3E0FFF582758331
:10151E0000121332FE740C2FF582E43400F583EEC4
:10152E00F09001DAE004F0E0B405D3900005748F7A
:10153E00F0A37491F0A3743DF0E4A3F0A37470F0E3
:10154E009001D6E090000AF0A37470F07B017A004F
:10155E0079057D0C121EBC9000017401F0900132D1
:10156E00F0900001E0640160F87401F07F0A7E00E3
:10157E00121BB2438810900001E0FF640160F7EF88
:10158E00F4600302162A900006E030E2487F28122B
:10159E0021479001DA7401F0900132E0FF3395E0BB
:1015AE00FE9001DAE0FDC39FEE6480F874809850DF
:1015BE001774052DF582E43400F583E0FF12211235
:1015CE009001DAE004F080D07F291221479001DBF0
:1015DE007401F080677F5B1221479001DA7401F08D
:1015EE00900132E0FF3395E0FE9001DAE0FDC39FFB
:1015FE00EE6480F8748098501774052DF582E434EB
:10160E0000F583E0FF1221129001DAE004F080D0A1
:10161E007F5D122147E49001DBF08020900001E015
:10162E00B402097F5B1221477F7A8008900001E0A7
:10163E00700A7F5B1221477F5D1221479001DBE02C
:01164E00FF9C
:01164F002278
:100026009001A7EFF0A3EDF0A3EBF0A3EAF0A3E9AC
:01003600F0D9
:10003700E49001B1F0A3F0A3F0A3F090003704F02F
:10004700A37488F07B017A0079377D02121930E4B6
:10005700900004F0900003F09001A8E0FFC4540F53
:10006700FE2405FDEF540F602C0DEE24FE9001B227
:10007700F0EF5407FFE49001ACF09001ACE0C39FB0
:1000870050139001B3E0FE25E0F0E004F09001ACDE
:10009700E004F080E5900005748FF09001A8E090EF
:1000A7000006B470057491F080037490F090000717
:1000B700743DF0E4A3F09001A8E0FF54F09000092C
:1000C700F0EF5407FF600AE0FEEF25E004FFEE4F74
:1000D700F09001A7E090000AF09001A8E090000BD3
:1000E700F09001A9E0FBA3E0FAA3E0F9121319903D
:1000F700000CF090000112133290000DF0900002F6
:1001070012133290000EF090000312133290000F7A
:10011700F07B017A007905121EBC9001327401F060
:10012700900001F0900001E0600F7F0A7E00121B33
:10013700B243881043870180EB9000017401F0E41B
:100147009001ACF0900001E0B4011B9001ACE0C35A
:1001570094025012E004F07F0A7E00121BB243881B
:100167001043870180DE900004E0B402069000018E
:100177007402F0900001E0F4600302060A7F28127F
:1001870021479001AC7401F09001ACE0FFC39406E5
:10019700501774052FF582E43400F583E0FF122130
:1001A700129001ACE004F080DF7F29122147900113
:1001B700A7E0246B700302047124FE700302054A52
:1001C7002404600302062F900006E06488601590FF
:1001D70001A9E0FBA3E0FAA3E0F912131964886010
:1001E700030203549001B2E0D3940050030202C308
:1001F700E49001ACF09001ACE0FFC394044003022B
:1002070003119001B2E014FEEFC39E502B9001A999
:10021700E0FBA3E0FAA3E0F9A3E0FD7C00E92DF9F8
:10022700EC3AFA900001121332FD74B52FF582E40F
:100237003401F583EDF0807B9001ACE0FF6E704AEE
:100247009001A9E0FBA3E0FAA3E07E002FF9EE3AC4
:10025700FA900001121332FF9001B3E05FFF9001A3
:10026700B2E0FD9001ACE0F9C39DFDE49400FC749D
:10027700072DF58274003CF583E0FE9001B3E0F4AE
:10028700FDEE5D4FFF74B52980209001B2E0FF902D
:1002970001ACE0FDC39FFFE49400FE74072FF582D5
:1002A70074003EF583E0FF74B52DF582E43401F563
:1002B70083EFF09001ACE004F00201FC9001A9E0AB
:1002C700FBA3E0FAA3E0F9121319FF9001B3E0FED4
:1002D7005FFFEEF4FE900007E05E4F9001B5F0E49B
:1002E7009001ACF09001ACE0FF2408F582E4340003
:1002F700F583E0FE74B62FF582E43401F583EEF062
:100307009001ACE004F0E0B404DA9000067488F0E1
:10031700E49001ACF09001ACE0FF24B5F582E43441
:1003270001F583E0FE74072FF582E43400F583EED0
:10033700F09001ACE004F0E0B404DA1214D59001B7
:10034700A87420F09001B17401F00204687F5B1279
:1003570021479001B2E0D39400500302041A7F6250
:10036700122147E49001ACF09001ACE0FFC3940484
:1003770040030204639001B2E014FEEFC39E501BDA
:100387009001A9E0FBA3E0FAA3E0F97E00E92FF9C9
:10039700EE3AFA900001121332806B9001B2E0FF3F
:1003A700149001ACF060449001A9E0FBA3E0FAA32C
:1003B700E0F9A3E0FD7C00E92DF9EC3AFA900001A1
:1003C700121332FE9001B3E0F95EFEEFFD9001AC2F
:1003D700E0C39DFDE49CFC74072DF58274003CF599
:1003E70083E0FFE9F4FDEF5D4E801B9001B2E0FF73
:1003F7009001ACE0C39FFFE49400FE74072FF582E1
:1004070074003EF583E0FF1221129001ACE004F086
:1004170002036F9001A9E0FBA3E0FAA3E0F912132E
:1004270019FF9001B3E0FE5FFFEEF4FE900006E0D7
:100437005E4FFF122112E49001ACF09001ACE0FF97
:10044700C39404501774072FF582E43400F583E052
:10045700FF1221129001ACE004F080DF7F5D1221D2
:10046700479001A77495F002062F900006E0648874
:1004770070369001ACF09001ACE0FF2407F582E400
:100487003400F583E0FE74B92FF582E43401F58377
:10049700EEF09001ACE004F0E0B404DA1214D59069
:1004A70001B17401F0020541E49001ACF09001AC98
:1004B700E0FF2406F582E43400F583E0FE74B92FEB
:1004C700F582E43401F583EEF09001ACE004F0E04E
:1004D700B405DA7F5B122147E49001ACF09001ACE0
:1004E700E0FFC39403501774B52FF582E43401F588
:1004F70083E0FF1221129001ACE004F080DF90014D
:10050700B8E0FF1221129001AC7404F09001ACE046
:10051700FFC39408501774B52FF582E43401F583AF
:10052700E0FF1221129001ACE004F080DF9001BDE2
:10053700E0FF1221127F5D1221479001A77497F007
:1005470002062FE49001ACF09001ACE0FF2406F521
:1005570082E43400F583E0FE74BD2FF582E43401B4
:10056700F583EEF09001ACE004F0E0B405DA7F5BD0
:10057700122147E49001ACF09001ACE0FFC3940373
:10058700501774B52FF582E43401F583E0FF12218B
:10059700129001ACE004F080DF9001B8E0FF122177
:1005A700129001AC7404F09001ACE0FFC3940750C3
:1005B7001774B52FF582E43401F583E0FF12211299
:1005C7009001ACE004F080DF9001BCE0FF12211243
:1005D7009001AC7408F09001ACE0FFC3940C501785
:1005E70074B52FF582E43401F583E0FF12211290F0
:1005F70001ACE004F080DF9001C1E0FF1221127F1F
:100607005D8022900001E0B4020E7F281221477F0F
:100617007A1221477F29800D900001E0700A7F2818
:100627001221477F29122147900001E06402705D83
:10063700900003E004F09001AC7401F09001ACE08D
:10064700FF2405F582E43400F583E0FE74AC2FF552
:1006570082E43401F583EEF09001ACE004F0E0B4FD
:1006670005DA7F787E00121BB24388109000017470
:1006770001F0900001E0640160F89001A7E0FF90AD
:100687000003E0FD7B017A0179AD1200269001B1EC
:10069700E0601A9001A7E0FFA3E0FDA3E0FBA3E061
:1006A700FAA3E0F91200269001B47401F09001B4A6
:0A06B700E0600475A0FB2275A004AA
:0106C1002216
:051871009001DCEFF026
:10187600A37493F0A37420F0A37407F0900005748A
:1018860009F0A37421F07B017A0079057D02121913
:10189600309000057407F0A3740EF07B017A00798E
:1018A600057D021219309000057401F0A37488F0CA
:1018B6007B017A0079057D021219309001DCE090F7
:1018C600000A60057426F080037452F07B017A00EA
:1018D6007905900160740FF0A37401F0E4FD121114
:1018E6004B900001E0FFF46005EF640270207F0575
:1018F60090002DE4F0A3DFFC9001DDE0FFA3E0FD06
:101906007B017A00792D12002675A0FB800375A055
:10191600049000057401F0A37408F07B017A007945
:09192600057D0212193053A8FEE0
:01192F002295
:0E0D83009001C3EBF0A3EAF0A3E9F0A3EDF0BA
:100D9100A3E0FFC4540F2408FEEF540F2408900170
:100DA100CBF0A37401F0AF06A3EFF07B017A0179D8
:100DB100CC7D021219309001C6E0900132F0900111
:100DC100C3E0FBA3E0FAA3E0F9748F121381900151
:100DD100C3E0FBA3E0FAA3E0F990000174911213C0
:100DE10093900002743D121393900132E0FF780456
:100DF100A2E713D8FB900003121393EFC454F090B1
:100E010000041213939001C6E0D3940C4003740CB8
:100E1100F09001C3E0FBA3E0FAA3E0F9A3E024050D
:100E2100FD121EBC5388FD43A801900132E024F459
:100E3100F09001C87412F09000017401F090013239
:100E4100E0FFD3648094804056438701D3EF6480F0
:100E5100948940089001C6740AF0800EC3EF648043
:100E61009481403BEF049001C6F09001C8E0FF245B
:100E710004F582E43400F583741FF07E0074042FBE
:100E8100F9EE3400FA7B019001C6E0FD121A809060
:100E91000132E024F7F09001C8E02409F0809E902F
:100EA10001327401F0900001E0640160F89001CC1E
:100EB1007401F09001CBE09001CDF07B017A0179D2
:100EC100CC7D021219309001CA7416F07B017A01AF
:100ED10079CA1219F39001CA7417F07B017A01796A
:100EE100CA1219F39000017401F07F3C7E00121BBD
:100EF100B2438810900001E0FF640160F7EFF470E5
:100F01003B7F5B1221479001C97401F0900132E0EF
:100F1100FF3395E0FE9001C9E0FDC39FEE6480F8C8
:100F2100748098502874052DF582E43400F583E02F
:100F3100FF1221129001C9E004F080D0900001E07D
:100F4100B402127F5B1221477F7A1221477F5D1223
:100F510021477F0022900001E0700D7F5B12214745
:0D0F61007F5D1221477F012253A8FE7F0112
:010F6E002260
:101E54009001E8EFF0900005748FF0A37491F0A363
:101E6400743DF0E4A3F0A37410F07B017A007905CB
:101E74007D05121EBC90000A743FF09001E8E0FF5B
:101E8400C454F0440590000BF0E4A3F09000010466
:101E9400F0FB7A00790A7D03121EBC5388FD43A827
:101EA40001900001E0B4010F7F287E00121BB243B1
:081EB400881043870180EA2237
:080F6F009001CEEFF0A3EDF0BC
:100F7700E49001D1F09001D3F0A3F0A3F090000525
:100F87007409F0A37431F07B017A0079057D0212B0
:100F97001930E4900004F0900005748FF0A3749169
:100FA700F0A3743DF0E4A3F0A37430F0A37405F04C
:100FB700E4A3F09001CFE0B4040A12208690000C5D
:100FC700E04408F09001CFE090000CF09001CEE0F3
:100FD700B4B10790000CE04408F09000017401F0F0
:100FE700FB7A0079057D08121EBC5388FD43A801D2
:100FF700E49001D2F0900001E0B4011B9001D2E02F
:10100700C394025012E004F07F147E00121BB24317
:10101700881043870180DE9000017401F07F147E01
:1010270000121BB24388109001D07401F090013276
:101037007401F0438701900001E0B401239001D5CA
:10104700E004F070069001D4E004F09001D4E0B41D
:10105700FFE4A3E0B4F0DFE4900001F0900004F0B7
:10106700900004E0B40204900001F0900001E0F465
:10107700703B7F5B1221479001D27401F0900132DF
:10108700E0FF3395E0FE9001D2E0FDC39FEE648060
:10109700F8748098504574052DF582E43400F58383
:1010A700E0FF1221129001D2E004F080D0900001FD
:1010B700E0B402177F5B1221477F7A1221477F5DD9
:1010C7001221479001D17401F08015900001E07062
:1010D7000F7F5B1221477F431221477F5D12214714
:1010E7009001CFE0FF60306401602CEF640260275D
:1010F700EFB40406A3E06410601D9001D0E0FF1276
:101107001E549000017401F09001D0E004F0E0C398
:10111700941150030210349001CFE0B4040312205D
:10112700AD53A8FE9001D3E0600575A0FB80037561
:10113700A0049001D1E060057F641221477D027F02
:0411470020020F6F04
:101F220053D9BFE4F5D91220D412219412212D43A2
:101F3200AE0853C7F77F017E001220F443C7087F23
:101F4200017E001220F443F1801221A843A4084329
:101F5200800843A40443F10243A40153C7F77F015D
:101F62007E001220F443C7087F017E001220F41283
:101F7200000E43A88043F5049001E47401F0121CA2
:031F82009C80FB45
:03000000021B26BA
:0C1B2600787FE4F6D8FD758107021B6D86
:10131900BB010689828A83E0225002E722BBFE02D2
:09132900E32289828A83E4932205
:10133200BB010CE58229F582E5833AF583E0225070
:1013420006E92582F8E622BBFE06E92582F8E222BA
:0D135200E58229F582E5833AF583E49322D4
:10135F00BB010989828A83F8E028F022500327F71E
:10136F0022BBFE05F8E328F3228A838982F8E493EF
:02137F00282222
:10138100BB010689828A83F0225002F722BBFE014B
:02139100F32245
:10139300F8BB010DE58229F582E5833AF583E8F090
:1013A300225006E92582C8F622BBFE05E92582C83C
:0213B300F22224
:1013B500EF8DF0A4A8F0CF8CF0A428CE8DF0A42E4C
:0213C500FE2206
:1013C700C5F0F8A3E028F0C5F0F8E58215827002B1
:0613D7001583E038F0224E
:1013DD00A3F8E0C5F025F0F0E582158270021583C3
:0613ED00E0C838F0E82220
:101FDF00C2D5E830E70FB2D5E4C39BFBE49AFAE42D
:101FEF0099F9E498F8EC30E717B2D51220151214CE
:101FFF0043E4C39BFBE49AFAE499F9E498F880036D
:10200F0012144330D50DE4C39FFFE49EFEE49DFD03
:04201F00E49CFC221F
:1013F300E86010ECA2E713FCED13FDEE13FEEF1310
:04140300FFD8F022FC
:101B3200021F22E493A3F8E493A34003F68001F288
:101B420008DFF48029E493A3F85407240CC8C333B4
:101B5200C4540F4420C8834004F456800146F6DF83
:101B6200E4800B0102040810204080902056E47E9D
:101B7200019360BCA3FF543F30E509541FFEE49378
:101B8200A360010ECF54C025E060A840B8E493A33F
:101B9200FAE493A3F8E493A3C8C582C8CAC583CA6A
:101BA200F0A3C8C582C8CAC583CADFE9DEE780BE22
:01208500005A
:1014070075F008758200EF2FFFEE33FECD33CDCC9C
:1014170033CCC58233C5829BED9AEC99E58298401F
:101427000CF582EE9BFEED9AFDEC99FC0FD5F0D6FC
:10143700E4CEFBE4CDFAE4CCF9A88222B800C1B926
:101447000059BA002DEC8BF084CFCECDFCE5F0CB64
:10145700F97818EF2FFFEE33FEED33FDEC33FCEB9D
:1014670033FB10D703994004EB99FB0FD8E5E4F958
:10147700FA227818EF2FFFEE33FEED33FDEC33FC45
:10148700C933C910D7059BE99A4007EC9BFCE99A39
:10149700F90FD8E0E4C9FAE4CCFB2275F010EF2F7E
:1014A700FFEE33FEED33FDCC33CCC833C810D7077E
:1014B7009BEC9AE899400AED9BFDEC9AFCE899F8B9
:0E14C7000FD5F0DAE4CDFBE4CCFAE4C8F9224C
:00000001FF
