:1020C90066696E64206974006F6A626B007368697F
:0420D90062616900D7
:101FF00090002E740DF090002DF07B017A00792E68
:102000007D0112177890002EE04401F07B017A00E8
:07201000792D7D0202191B6E
:1020170090002E740DF090002DF07B017A00792E40
:102027007D0112177890002EE054FEF07B017A00B4
:07203700792D7D0202191B47
:0E0A6D00900169EBF0A3EAF0A3E9F0A3EDF02D
:100A7B00A37401F0A37403F0E4900190F0A3F09041
:100A8B0000057409F0A37421F07B017A0079057DD0
:100A9B000212191B900002E090000520E108740778
:100AAB00F0A3742F80067407F0A37413F07B017A04
:100ABB000079057D0212191BE4900175F09000027C
:100ACB00E090017120E5087411F0121FF08003749F
:100ADB0002F09001727401F0A37401F0A37475F02D
:100AEB0090016CE0FD1313543F2401FFE433A2E7A4
:100AFB0013EF1390018FF02403FFE433AB07FA904D
:100B0B000005748FF0A37491F0A3743DF0EAFFA37A
:100B1B00EFF0FEAF03EFC4F8540FC868FFA3EFF07C
:100B2B00900002E090000AF0A37401F0A3EDF090A6
:100B3B00016CD394004039E4A3F090018FE0FF9057
:100B4B00016DE0FEC39F5028900169E0FBA3E0FA22
:100B5B00A3E0F98E82758300121330FF740D2EF50E
:100B6B0082E43400F583EFF090016DE004F080CA6D
:100B7B0090016F740CF0A304F07B017A01796F7D07
:100B8B00021216737F147E00121B9D5388FD43A81F
:100B9B00017B017A00790590018FE02408FD121E7C
:100BAB002C9000017401F043881043870190016D74
:100BBB00F0900171E0FF90016DE0C39F4003020CC8
:100BCB00AD9001327401F07F147E00121B9D43889F
:100BDB0010E4900190F0A3F0438701900001E0B482
:100BEB000123900191E004F07006900190E004F075
:100BFB00900190E0B4FFE4A3E0B4F0DFE4900001D7
:100C0B00F0900004F090016F740FF07B017A017982
:100C1B006F7D01121778900001E0B4FF1275A0FBF5
:100C2B007BFF7A2079C9121F8D12210875A00490C1
:100C3B00016F740FF07B017A01796F1219DE90014D
:100C4B0071E06411703890016DE0C39410502F90D7
:100C5B00016F7416F07B017A01796F1219DE900126
:100C6B006F7417F07B017A01796F1219DE90016FA7
:100C7B007414F07B017A01796F1219DE801B9001DD
:100C8B0071E0B4110C90016DE0B4100512201780C7
:100C9B0008900171E06402600990016DE004F002BC
:100CAB000BBC90016CE0240490018EF0E013135404
:100CBB003F2401FFE433A2E713EF1314A3F09001D9
:100CCB0072E0FBA3E0FAA3E0F91213177003020D15
:100CDB007F900171E064116003020D7F74FF1213AA
:100CEB005DE490016DF0900169E0FBA3E0FAA3E0F5
:100CFB00F990016DE0FFF582758300121330FE74DD
:100D0B00862FF582E43401F583EEF090016DE0045B
:100D1B00F0E0B408D190018EE020E214900172E073
:100D2B00FBA3E0FAA3E0F9121317C454F012137FDC
:100D3B0090018FE02486F582E43401F583C083C0F3
:100D4B0082E0FF900172E0FBA3E0FAA3E0F912133B
:100D5B0017FEEF4ED082D083F07B017A017986901B
:100D6B00018EE0FD120A6D90017374FFF5F0121302
:070D7B00C5020CC953A8FEDC
:010D8200224E
:051148009001D9EDF05B
:10114D00900132F0748F12137F9001DBE09000015B
:10115D006004749080027491121391900002743D9A
:10116D00121391900132E0FF7808A2E713D8FB909B
:10117D000003121391EFC454F0FF9001DAE0FE4F1B
:10118D009000041213919001D9E0D3940C40037494
:10119D000CF09001D9E0700AEE60077401F0900137
:1011AD0032F09001D9E02405FD121E2C5388FD4329
:1011BD00A801900132E024F4F09001DC7411F0905C
:1011CD0000017401F0900132E0FFD36480948040FF
:1011DD0056438701D3EF6480948940089001D974F8
:1011ED000AF0800EC3EF64809481403BEF049001C0
:1011FD00D9F09001DCE0FF2404F582E43400F5839E
:10120D00741FF07E0074042FF9EE3400FA7B019008
:10121D0001D9E0FD121A6B900132E024F7F0900134
:10122D00DCE02409F0809E9001327401F090000101
:10123D00E0B4010F7F3C7E00121B9D438810438755
:10124D000180EA9000017401F07F3C7E00121B9D2D
:10125D0043881090000AE0FF30E616A3E0FE6421FB
:10126D006025EE64246020EE6427601BEE64296027
:10127D0016EF703890000BE054F0FF64206008EF1B
:10128D0064306003BF40257F147E0012205E900104
:10129D00DD740FF07B017A0179DD1219DE9001DD2D
:1012AD007414F07B017A0179DD1219DE900001E0F2
:1012BD00FF640160F7EFB4FF1A900006E07BFF704A
:1012CD00067A2079D180047A2079D6121F8D1221C9
:1012DD00088031900001E0B402127F5B1220B17FD3
:1012ED007A1220B17F5D1220B17F0022900001E0C3
:1012FD0070127F5B1220B17F691220B17F5D1220C9
:09130D00B17F012253A8FE7F010B
:0113160022B4
:101FC0004901A60C00030410002101004C019A0FE6
:101FD00000030418002108FFFF00004801920B00D5
:061FE000030418002008B4
:101DC600E490014FF0A37421F07B017A01794F7DF5
:101DD6000212191B90014F7401F0A3740CF07B01E1
:101DE6007A01794F7D0212191B7F057E0012205E53
:101DF6007D047FB0120F6FE490014FF0A304F0FB57
:101E06007A01794F7D0212191B7F017E0012205E36
:101E160090014F740CF0A304F07B017A01794F7D99
:061E260002121673809AFF
:051FE6004201E900804A
:0E191B00900163EBF0A3EAF0A3E9F0A3EDF076
:101929005380F75380FE900166E0D3940050030280
:1019390019BF900163E0FBA3E0FAA3E0F9121317C2
:10194900541F12137FE4900167F0900167E0C3947C
:101959000250D3E4A3F0900163E0FBA3E0FAA3E013
:10196900F9121317FF9001E9E0FCA3E0FDED5F60B8
:101979000543800480035380FB4380015380FEECC0
:10198900C313FFED139001E9CFF0A3EFF0900168C5
:10199900E004F0E0B408BF9001E9E4F0A37480F03A
:1019A900900164E475F0011213C5900166E014F02A
:0919B900A3E004F08094438008CF
:0119C2002202
:0E1A6B009001E4EBF0A3EAF0A3E9F0A3EDF0A4
:101A79005380F75380FE9001E4E0FBA3E0FAA3E072
:101A8900F9121317442012137F9001E4E0FBA3E03D
:101A9900FAA3E0F9121317543F12137F9001E7E0FC
:101AA900D39400405FE4A3F09001E4E0FBA3E0FAE3
:101AB900A3E0F9121317FF9001E9E0FCA3E0FDEDA3
:101AC9005F600543800480035380FB43800153809A
:101AD900FEECC313FFED139001E9CFF0A3EFF090F3
:101AE90001E8E004F0E0B408BF9001E9E4F0A37470
:101AF90080F09001E5E475F0011213C59001E7E06B
:071B090014F08098438008EE
:011B100022B2
:10176600741C12137F900137E0FBA3E0FAA3E0F9A3
:021776007D01F3
:0E177800900163EBF0A3EAF0A3E9F0A3EDF01B
:101786005380F7900166E0D39400500302186B90E3
:101796000163E0FBA3E0FAA3E0F912131744401239
:1017A600137F900163E0FBA3E0FAA3E0F91213179D
:1017B600545F12137FE4900167F0900163E0FBA38E
:1017C600E0FAA3E0F9121317FF9001E9E0FCA3E0A9
:1017D600FDED5F600543800480035380FB43800179
:1017E6005380FEECC313FFED139001E9CFF0A3EF96
:1017F600F0900167E004F0E0B408BF9001E9E4F07E
:10180600A37480F0900163E0FBA3E0FAA3E0F9E49F
:1018160012137F900167F0900163E0FBA3E0FAA347
:10182600E0F912131725E012137F4380015380FE5F
:10183600E58030E113900163E0FBA3E0FAA3E0F951
:10184600121317440112137F900167E004F0E0B40D
:1018560008C5900164E475F0011213C5900166E0B5
:0818660014F002178943800809
:01186E002257
:10164E00900137E0FBA3E0FAA3E0F9740C12137FCC
:10165E00900137E0FBA3E0FAA3E0F9900001740DCE
:05166E001213917D0242
:0E16730090015BEBF0A3EAF0A3E9F0A3EDF029
:101681005380F790015BE0FBA3E0FAA3E0F91213AA
:1016910017446012137F90015BE0FBA3E0FAA3E023
:1016A100F9121317547F12137FE490015FF0900138
:1016B1005BE0FBA3E0FAA3E0F9121317FF9001E945
:1016C100E0FCA3E0FDED5F600543800480035380EF
:1016D100FB4380015380FEECC313FFED139001E93E
:1016E100CFF0A3EFF090015FE004F0E0B408BF9009
:1016F10001E9E4F0A37480F090015EE0D39400402E
:101701006090015BE0FBA3E0FAA3E0F9E412137F30
:1017110090015FF090015BE0FBA3E0FAA3E0F91216
:10172100131725E012137F4380015380FEE58030BB
:10173100E11390015BE0FBA3E0FAA3E0F9121317B8
:10174100440112137F90015FE004F0E0B408C590FA
:10175100015CE475F0011213C590015EE014F080A4
:041761009743800822
:011765002261
:1019C300900137E0FBA3E0FAA3E0F9740F12137F51
:0B19D300900137E0FBA3E0FAA3E0F96D
:0B19DE0090013BEBF0A3EAF0A3E9F05E
:1019E9005380F790013BE0FBA3E0FAA3E0F912135F
:1019F90017448012137F90013BE0FBA3E0FAA3E0B8
:101A0900F9121317549F12137FE490013EF09001CD
:101A19003BE0FBA3E0FAA3E0F9121317FF9001E9F9
:101A2900E0FCA3E0FDED5F60054380048003538083
:101A3900FB4380015380FEECC313FFED139001E9D2
:101A4900CFF0A3EFF090013EE004F0E0B408BF90BE
:101A590001E9E4F0A37480F04380015380FE4380E0
:011A69000874
:011A6A002259
:051E2C00900164EDF0DF
:101E31005380F7900164E0D394004051E4A3F01281
:101E41001317FF9001E9E0FCA3E0FDED5F6005439E
:101E5100800480035380FB4380015380FEECC31355
:101E6100FFED139001E9CFF0A3EFF0900165E004DD
:101E7100F0E0B408CA9001E9E4F0A37480F07401C1
:101E810029F9E43AFA900164E014F080A64380084D
:011E9100222E
:10000E0090014F7409F0A37431F07B017A01794F9E
:05001E007D0202191B28
:0B06C200900137EBF0A3EAF0A3E9F091
:1006CD00121317FFB4A003020A47EFB48007E4909A
:1006DD0000010209C0900137E0FBA3E0FAA3E0F9A5
:1006ED0012131730E16F9000017402F07416121995
:1006FD00D0900003740EF07B017A0079037D011216
:10070D001778900003E024E090013AF0540F600454
:10071D00E02410F090013AE0FFC4540FF0603390E4
:10072D000132E0FF3395E0FE74052FF58274003E33
:10073D00F583741FF074052FF974003EFA7B019058
:10074D00013AE0FD12167390013AE0FF900132E09C
:10075D002FF0020A63900137E0FBA3E0FAA3E0F962
:10076D001213176440600302087A900004E0B4028B
:10077D00030209F1900137E0FBA3E0FAA3E0F912BF
:10078D001766900137E0FBA3E0FAA3E0F912131707
:10079D00540F0412137F900132E0FF3395E0FE7485
:1007AD00052FF58274003EF583741FF074052FF943
:1007BD0074003EFA7B01C003C002C001900137E016
:1007CD00FBA3E0FAA3E0F9121317FDD001D002D07C
:1007DD0003121673900137E0FBA3E0FAA3E0F912C0
:1007ED001317FF900132E02FF0741E12137F90014A
:1007FD0037E0FBA3E0FAA3E0F97D01121673900137
:10080D0037E0FBA3E0FAA3E0F9121317FF30E0572E
:10081D00EFC313540712137F900137E0FBA3E0FAE7
:10082D00A3E0F9121317FFC374089F12137F9001F1
:10083D0032E0FF3395E0FE74042FF58274003EF52F
:10084D0083C083C082E0FF900137E0FBA3E0FAA3F1
:10085D00E0F9121317FE74FFA806088002C333D8FF
:10086D00FC5FD082D083F01219C3020A09900137C0
:10087D00E0FBA3E0FAA3E0F9121317646060030232
:10088D000A1090000104F0900132E0FF3395E0FE74
:10089D0074052FF58274003EF583741FF074052FD7
:1008AD00F974003EFA7B017D09121673900132E056
:1008BD002409F0E58020E7030209F612164E53884D
:1008CD00FD900137E0FBA3E0FAA3E0F912131764E2
:1008DD004060030209DF121766900137E0FBA3E0C9
:1008ED00FAA3E0F912131704540F12137F9001327B
:1008FD00E0FF3395E0FE74052FF58274003EF5831D
:10090D00741FF074052FF974003EFA7B01C003C00B
:10091D0002C001900137E0FBA3E0FAA3E0F9121346
:10092D0017FDD001D002D003121673900137E0FBF2
:10093D00A3E0FAA3E0F9121317FF900132E02FF0B4
:10094D00741E121768900137E0FBA3E0FAA3E0F9DB
:10095D00121317FF30E057EFC313540712137F9094
:10096D000137E0FBA3E0FAA3E0F9121317FFC374FC
:10097D00089F12137F900132E0FF3395E0FE74045F
:10098D002FF58274003EF583C083C082E0FF900195
:10099D0037E0FBA3E0FAA3E0F9121317FE74FFA8EA
:1009AD0006088002C333D8FC5FD082D083F090005C
:1009BD000174FFF0900137E0FBA3E0FAA3E0F974B6
:1009CD000F12137F900137E0FBA3E0FAA3E0F902C9
:1009DD0019DE900137E0FBA3E0FAA3E0F91213173B
:1009ED006450707B900001804912164E900137E0E3
:1009FD00FBA3E0FAA3E0F9121317706390000174E2
:100A0D00FFF022900137E0FBA3E0FAA3E0F9121307
:100A1D0017FF30E40A90000130E502800C8013EFDF
:100A2D0030E21390000130E5097401F090000404E8
:100A3D00F0227402F022EFB40106E4900001F022DE
:100A4D009000017402F0900137E0FBA3E0FAA3E0FF
:0F0A5D00F974161219D01219C312164E5388FDD0
:010A6C002267
:03000300021CF3E9
:101CF300C0E0C0F0C083C082C0D075D000C000C0B7
:0D1D030001C002C003C004C005C006C00737
:101D10005388EF5388FD900133740CF0A304F07BDB
:101D2000017A0179337D02121673900133E064A0C9
:101D3000600E7B017A0179331206C2E58020E7D379
:031D40005387FCCA
:101D4300D007D006D005D004D003D002D001D000F4
:0B1D5300D0D0D082D083D0F0D0E0329E
:0721120043880143E40F22A2
:10205E00D3EF9400EE940040147D107C27ED1D709C
:0D206E00011CED4C70F7EF1F70E61E80E3C3
:01207B002242
:101B9D00900164EEF0A3EFF0C28D5389F0438901FB
:101BAD00538EFCD2A9C28C900164E0FEA3E0FF7CB1
:101BBD00037DE81213B3AA06EA3395E0F9F8C3746E
:101BCD00FF9FFF74FF9AFEE499FDE498FC780812DC
:101BDD0013F18F8C900164E0FEA3E0FF7C037DE8A0
:101BED001213B3AA06EA3395E0F9F8C374FF9FFF09
:101BFD0074FF9AFEE499FDE498FCE4FB7A01F9F890
:061C0D00121F498F8A221C
:10203E00E4FFFE75B28375B9800FBF00010EEF6429
:0F204E00144E70F543B9C0E5B930E5FBE4F5A9D0
:01205D002260
:03000B00021C874D
:101C8700C0E0C0F0C083C082C0D075D000C000C023
:0D1C970001C002C003C004C005C006C007A4
:101CA4005388EF900140740CF0A304F07B017A0197
:101CB40079407D02121673900140E054F7F06004FD
:101CC400E0B48007900001E4F08006900001740104
:041CD400F05387FC46
:101CD800D007D006D005D004D003D002D001D00060
:0B1CE800D0D0D082D083D0F0D0E0320A
:1020EE0052656164657220656E61626C65642E0076
:041FEB004101EC01C3
:0A20FE0075A41075E10175E240229F
:10209700759810758DCC538EF4438E08858D8B53B0
:0A20A700890F438920D28ED29922BE
:1020B100EFB40A083099FDC29975990D3099FDC2A6
:0820C100998F99AF997E00226E
:0A2108007F0D1220B17F0A0220B102
:101F8D00900147EBF0A3EAF0A3E9F0900147E0FBE5
:101F9D00A3E0FAA3E0F91213176017900147A3E429
:101FAD0075F0011213DBA9F0FA121317FF1220B10D
:031FBD0080D922A6
:1020DD00AE07EFD39409400474072EFE74302EFF23
:0120ED0022D0
:02207C00AD07AE
:10207E00EDC4540FFF1220DDAE071220B1ED540F48
:09208E00FF1220DDAE070220B1B3
:101EEF007D01ED604F438701900000E0C364809453
:101EFF00E14004E024E0F0900000E0FFC364809430
:101F0F00B04008D3EF648094B94010C3EF6480945D
:101F1F00C140CFD3EF648094C650C7E4FD1220B107
:101F2F00900000E0FFD3648094B940B6EF540F24C3
:091F3F0009F080AE900000E0FF03
:011F48002276
:03002300021C13A9
:101C1300C0E0C0F0C083C082C0D075D000C000C097
:101C230001C002C003C004C005C006C00730983914
:101C3300900000E599F09001EE7401F09001EDE061
:101C4300701843C70812203E12000E7BFF7A2079DA
:101C5300EE121F8D9001ED7401F05387FC9001EC9F
:101C6300E0600653A8FE5388EFD007D006D005D016
:101C730004D003D002D001D000D0D0D082D083D002
:041C8300F0D0E0328B
:0B14D3009001AFE0FF7B017A0079067A
:0E14DE009001DEEFF0A3EBF0A3EAF0A3E9F03B
:1014EC00E49001E3F090003704F0A37408F07B0162
:1014FC007A0079377D0212191BE49001E2F0900119
:10150C00DFE0FBA3E0FAA3E0F9A3E0FFF58275832B
:10151C0000121330FE740C2FF582E43400F583EEC8
:10152C00F09001E2E004F0E0B405D3900005748F74
:10153C00F0A37491F0A3743DF0E4A3F0A37470F0E5
:10154C009001DEE090000AF0A37470F07B017A0049
:10155C0079057D0C121E2C9000017401F090013263
:10156C00F0900001E0640160F87401F07F0A7E00E5
:10157C00121B9D438810900001E0FF640160F7EF9F
:10158C00F46003021628900006E030E2487F28122F
:10159C0020B19001E27401F0900132E0FF3395E04C
:1015AC00FE9001E2E0FDC39FEE6480F874809850D9
:1015BC001774052DF582E43400F583E0FF12207CCE
:1015CC009001E2E004F080D07F291220B19001E379
:1015DC007401F080677F5B1220B19001E27401F01E
:1015EC00900132E0FF3395E0FE9001E2E0FDC39FF5
:1015FC00EE6480F8748098501774052DF582E434ED
:10160C0000F583E0FF12207C9001E2E004F080D032
:10161C007F5D1220B1E49001E3F08020900001E0A6
:10162C00B402097F5B1220B17F7A8008900001E040
:10163C00700A7F5B1220B17F5D1220B19001E3E054
:01164C00FF9E
:01164D00227A
:100026009001AFEFF0A3EDF0A3EBF0A3EAF0A3E9A4
:01003600F0D9
:10003700E49001B9F0A3F0A3F0A3F090003704F027
:10004700A37488F07B017A0079377D0212191BE4CB
:10005700900004F0900003F09001B0E0FFC4540F4B
:10006700FE2405FDEF540F602C0DEE24FE9001BA1F
:10007700F0EF5407FFE49001B4F09001B4E0C39FA0
:1000870050139001BBE0FE25E0F0E004F09001B4CE
:10009700E004F080E5900005748FF09001B0E090E7
:1000A7000006B470057491F080037490F090000717
:1000B700743DF0E4A3F09001B0E0FF54F090000924
:1000C700F0EF5407FF600AE0FEEF25E004FFEE4F74
:1000D700F09001AFE090000AF09001B0E090000BC3
:1000E700F09001B1E0FBA3E0FAA3E0F91213179037
:1000F700000CF090000112133090000DF0900002F8
:1001070012133090000EF090000312133090000F7E
:10011700F07B017A007905121E2C9001327401F0F0
:10012700900001F0900001E0600F7F0A7E00121B33
:100137009D43881043870180EB9000017401F0E430
:100147009001B4F0900001E0B4011B9001B4E0C34A
:1001570094025012E004F07F0A7E00121B9D438830
:100167001043870180DE900004E0B402069000018E
:100177007402F0900001E0F4600302060A7F28127F
:1001870020B19001B47401F09001B4E0FFC394066C
:10019700501774052FF582E43400F583E0FF122031
:1001A7007C9001B4E004F080DF7F291220B1900138
:1001B700AFE0246B700302047124FE700302054A4A
:1001C7002404600302062F900006E06488601590FF
:1001D70001B1E0FBA3E0FAA3E0F91213176488600A
:1001E700030203549001BAE0D3940050030202C300
:1001F700E49001B4F09001B4E0FFC394044003021B
:1002070003119001BAE014FEEFC39E502B9001B189
:10021700E0FBA3E0FAA3E0F9A3E0FD7C00E92DF9F8
:10022700EC3AFA900001121330FD74BD2FF582E409
:100237003401F583EDF0807B9001B4E0FF6E704AE6
:100247009001B1E0FBA3E0FAA3E07E002FF9EE3ABC
:10025700FA900001121330FF9001BBE05FFF90019D
:10026700BAE0FD9001B4E0F9C39DFDE49400FC748D
:10027700072DF58274003CF583E0FE9001BBE0F4A6
:10028700FDEE5D4FFF74BD2980209001BAE0FF901D
:1002970001B4E0FDC39FFFE49400FE74072FF582CD
:1002A70074003EF583E0FF74BD2DF582E43401F55B
:1002B70083EFF09001B4E004F00201FC9001B1E09B
:1002C700FBA3E0FAA3E0F9121317FF9001BBE0FECE
:1002D7005FFFEEF4FE900007E05E4F9001BDF0E493
:1002E7009001B4F09001B4E0FF2408F582E43400F3
:1002F700F583E0FE74BE2FF582E43401F583EEF05A
:100307009001B4E004F0E0B404DA9000067488F0D9
:10031700E49001B4F09001B4E0FF24BDF582E43429
:1003270001F583E0FE74072FF582E43400F583EED0
:10033700F09001B4E004F0E0B404DA1214D39001B1
:10034700B07420F09001B97401F00204687F5B1269
:1003570020B19001BAE0D39400500302041A7F62DF
:100367001220B1E49001B4F09001B4E0FFC394040B
:1003770040030204639001BAE014FEEFC39E501BD2
:100387009001B1E0FBA3E0FAA3E0F97E00E92FF9C1
:10039700EE3AFA900001121330806B9001BAE0FF39
:1003A700149001B4F060449001B1E0FBA3E0FAA31C
:1003B700E0F9A3E0FD7C00E92DF9EC3AFA900001A1
:1003C700121330FE9001BBE0F95EFEEFFD9001B421
:1003D700E0C39DFDE49CFC74072DF58274003CF599
:1003E70083E0FFE9F4FDEF5D4E801B9001BAE0FF6B
:1003F7009001B4E0C39FFFE49400FE74072FF582D9
:1004070074003EF583E0FF12207C9001B4E004F015
:1004170002036F9001B1E0FBA3E0FAA3E0F9121326
:1004270017FF9001BBE0FE5FFFEEF4FE900006E0D1
:100437005E4FFF12207CE49001B4F09001B4E0FF1E
:10044700C39404501774072FF582E43400F583E052
:10045700FF12207C9001B4E004F080DF7F5D122062
:10046700B19001AF7495F002062F900006E0648802
:1004770070369001B4F09001B4E0FF2407F582E4F0
:100487003400F583E0FE74C12FF582E43401F5836F
:10049700EEF09001B4E004F0E0B404DA1214D39063
:1004A70001B97401F0020541E49001B4F09001B480
:1004B700E0FF2406F582E43400F583E0FE74C12FE3
:1004C700F582E43401F583EEF09001B4E004F0E046
:1004D700B405DA7F5B1220B1E49001B4F09001B467
:1004E700E0FFC39403501774BD2FF582E43401F580
:1004F70083E0FF12207C9001B4E004F080DF9001DC
:10050700C0E0FF12207C9001B47404F09001B4E0C5
:10051700FFC39408501774BD2FF582E43401F583A7
:10052700E0FF12207C9001B4E004F080DF9001C569
:10053700E0FF12207C7F5D1220B19001AF7497F02D
:1005470002062FE49001B4F09001B4E0FF2406F511
:1005570082E43400F583E0FE74C52FF582E43401AC
:10056700F583EEF09001B4E004F0E0B405DA7F5BC8
:100577001220B1E49001B4F09001B4E0FFC39403FA
:10058700501774BD2FF582E43401F583E0FF122084
:100597007C9001B4E004F080DF9001C0E0FF1220FE
:1005A7007C9001B47404F09001B4E0FFC394075049
:1005B7001774BD2FF582E43401F583E0FF12207C28
:1005C7009001B4E004F080DF9001C4E0FF12207CCA
:1005D7009001B47408F09001B4E0FFC3940C501775
:1005E70074BD2FF582E43401F583E0FF12207C907F
:1005F70001B4E004F080DF9001C9E0FF12207C7FA6
:100607005D8022900001E0B4020E7F281220B17FA6
:100617007A1220B17F29800D900001E0700A7F28AF
:100627001220B17F291220B1900001E06402705DB1
:10063700900003E004F09001B47401F09001B4E07D
:10064700FF2405F582E43400F583E0FE74B42FF54A
:1006570082E43401F583EEF09001B4E004F0E0B4F5
:1006670005DA7F787E00121B9D4388109000017485
:1006770001F0900001E0640160F89001AFE0FF90A5
:100687000003E0FD7B017A0179B51200269001B9DC
:10069700E0601A9001AFE0FFA3E0FDA3E0FBA3E059
:1006A700FAA3E0F91200269001BC7401F09001BC96
:0A06B700E0600475A0FB2275A004AA
:0106C1002216
:05186F009001EFEFF015
:10187400A37493F0A37420F09000057409F0A3748A
:1018840021F07B017A0079057D0212191B90000575
:101894007401F0A37488F07B017A0079057D02124B
:1018A400191B9001EFE090000A60057426F0800394
:1018B4007452F07B017A0079059001DA740FF0A379
:1018C4007401F0E4FD1211485388FD43A80190000F
:1018D40001E0FFF46005EF640270207F0590002DA5
:1018E400E4F0A3DFFC9001F0E0FFA3E0FD7B017ACC
:1018F40000792D12002675A0FB800375A0049000CA
:10190400057401F0A37408F07B017A0079057D0267
:0619140012191B53A8FE8E
:01191A0022AA
:0E0D83009001CBEBF0A3EAF0A3E9F0A3EDF0B2
:100D9100A3E0FFC4540F2408FEEF540F2408900170
:100DA100D3F0A37401F0AF06A3EFF07B017A0179D0
:100DB100D47D0212191B9001CEE0900132F0900116
:100DC100CBE0FBA3E0FAA3E0F9748F12137F90014B
:100DD100CBE0FBA3E0FAA3E0F990000174911213B8
:100DE10091900002743D121391900132E0FF78045A
:100DF100A2E713D8FB900003121391EFC454F090B3
:100E010000041213919001CEE0D3940C4003740CB2
:100E1100F09001CBE0FBA3E0FAA3E0F9A3E0240505
:100E2100FD121E2C5388FD43A801900132E024F4E9
:100E3100F09001D07412F09000017401F090013231
:100E4100E0FFD3648094804056438701D3EF6480F0
:100E5100948940089001CE740AF0800EC3EF64803B
:100E61009481403BEF049001CEF09001D0E0FF244B
:100E710004F582E43400F583741FF07E0074042FBE
:100E8100F9EE3400FA7B019001CEE0FD121A6B906D
:100E91000132E024F7F09001D0E02409F0809E9027
:100EA10001327401F0900001E0640160F89001D416
:100EB1007401F09001D3E09001D5F07B017A0179C2
:100EC100D47D0212191B9001D27416F07B017A01B4
:100ED10079D21219DE9001D27417F07B017A01796F
:100EE100D21219DE9000017401F07F3C7E00121BCA
:100EF1009D438810900001E0FF640160F7EFF470FA
:100F01003B7F5B1220B19001D17401F0900132E07E
:100F1100FF3395E0FE9001D1E0FDC39FEE6480F8C0
:100F2100748098502874052DF582E43400F583E02F
:100F3100FF12207C9001D1E004F080D0900001E00C
:100F4100B402127F5B1220B17F7A1220B17F5D1251
:100F510020B17F0022900001E0700D7F5B1220B173
:0D0F61007F5D1220B17F012253A8FE7F01A9
:010F6E002260
:101D5E00900163EFF0900005748FF0A37491F0A3DF
:101D6E00743DF0E4A3F0A37410F07B017A007905C2
:101D7E007D05121E2C90000A743FF0900163E0FF67
:101D8E00C454F0440590000BF0E4A3F0900001045D
:101D9E00F0FB7A00790A7D03121E2C5388FD43A8AE
:101DAE0001900001E0B4010F7F287E00121B9D43BD
:081DBE00881043870180EA222E
:080F6F0090015BEFF0A3EDF02F
:100F7700E490015EF0900160F0A3F0A3F09000050B
:100F87007409F0A37431F07B017A0079057D0212B0
:100F9700191BE4900004F0900005748FF0A374917E
:100FA700F0A3743DF0E4A3F0A37430F0A37405F04C
:100FB700E4A3F090015CE0B4040A121FF090000C67
:100FC700E04408F090015CE090000CF090015BE0D9
:100FD700B4B10790000CE04408F09000017401F0F0
:100FE700FB7A0079057D08121E2C5388FD43A80162
:100FF700E490015FF0900001E0B4011B90015FE015
:10100700C394025012E004F07F147E00121B9D432C
:10101700881043870180DE9000017401F07F147E01
:1010270000121B9D43881090015D7401F0900132FE
:101037007401F0900001E0B40123900162E004F034
:101047007006900161E004F0900161E0B4FFE4A351
:10105700E0B4F0DFE4900001F0900004F0900004A9
:10106700E0B40204900001F0900001E0F4703B7FCF
:101077005B1220B190015F7401F0900132E0FF3301
:1010870095E0FE90015FE0FDC39FEE6480F87480F9
:1010970098504574052DF582E43400F583E0FF127E
:1010A700207C90015FE004F080D0900001E0B40262
:1010B700177F5B1220B17F7A1220B17F5D1220B1BA
:1010C70090015E7401F08015900001E0700F7F5B66
:1010D7001220B17F431220B17F5D1220B190015CD5
:1010E700E0FF60306401602CEF64026027EFB40416
:1010F70006A3E06410601D90015DE0FF121D5E9085
:1011070000017401F090015DE004F0E0C394115018
:101117000302103490015CE0B4040312201753A8B3
:10112700FE900160E0600575A0FB800375A0049048
:10113700015EE060057F641220B17D027F20020F0F
:011147006F38
:101E920053D9BFE4F5D912203E1220FE12209743F7
:101EA200AE0853C7F77F017E0012205E43C7087F4A
:101EB200017E0012205E43F18012211243A40843E6
:101EC200800843A40443F10243A40153C7F77F01EE
:101ED2007E0012205E43C7087F017E0012205E1240
:0D1EE200000E43A88043F504121DC680FBCE
:03000000021B11CF
:0C1B1100787FE4F6D8FD758107021B58B0
:10131700BB010689828A83E0225002E722BBFE02D4
:09132700E32289828A83E4932207
:10133000BB010CE58229F582E5833AF583E0225072
:1013400006E92582F8E622BBFE06E92582F8E222BC
:0D135000E58229F582E5833AF583E49322D6
:10135D00BB010989828A83F8E028F022500327F720
:10136D0022BBFE05F8E328F3228A838982F8E493F1
:02137D00282224
:10137F00BB010689828A83F0225002F722BBFE014D
:02138F00F32247
:10139100F8BB010DE58229F582E5833AF583E8F092
:1013A100225006E92582C8F622BBFE05E92582C83E
:0213B100F22226
:1013B300EF8DF0A4A8F0CF8CF0A428CE8DF0A42E4E
:0213C300FE2208
:1013C500C5F0F8A3E028F0C5F0F8E58215827002B3
:0613D5001583E038F02250
:1013DB00A3F8E0C5F025F0F0E582158270021583C5
:0613EB00E0C838F0E82222
:101F4900C2D5E830E70FB2D5E4C39BFBE49AFAE4C3
:101F590099F9E498F8EC30E717B2D5121F7F1214FB
:101F690041E4C39BFBE49AFAE499F9E498F8800305
:101F790012144130D50DE4C39FFFE49EFEE49DFD9C
:041F8900E49CFC22B6
:1013F100E86010ECA2E713FCED13FDEE13FEEF1312
:04140100FFD8F022FE
:101B1D00021E92E493A3F8E493A34003F68001F22E
:101B2D0008DFF48029E493A3F85407240CC8C333C9
:101B3D00C4540F4420C8834004F456800146F6DF98
:101B4D00E4800B0102040810204080901FC0E47E49
:101B5D00019360BCA3FF543F30E509541FFEE4938D
:101B6D00A360010ECF54C025E060A840B8E493A354
:101B7D00FAE493A3F8E493A3C8C582C8CAC583CA7F
:101B8D00F0A3C8C582C8CAC583CADFE9DEE780BE37
:011FEF0000F1
:1014050075F008758200EF2FFFEE33FECD33CDCC9E
:1014150033CCC58233C5829BED9AEC99E582984021
:101425000CF582EE9BFEED9AFDEC99FC0FD5F0D6FE
:10143500E4CEFBE4CDFAE4CCF9A88222B800C1B928
:101445000059BA002DEC8BF084CFCECDFCE5F0CB66
:10145500F97818EF2FFFEE33FEED33FDEC33FCEB9F
:1014650033FB10D703994004EB99FB0FD8E5E4F95A
:10147500FA227818EF2FFFEE33FEED33FDEC33FC47
:10148500C933C910D7059BE99A4007EC9BFCE99A3B
:10149500F90FD8E0E4C9FAE4CCFB2275F010EF2F80
:1014A500FFEE33FEED33FDCC33CCC833C810D70780
:1014B5009BEC9AE899400AED9BFDEC9AFCE899F8BB
:0E14C5000FD5F0DAE4CDFBE4CCFAE4C8F9224E
:00000001FF
