:1020F60066696E64206974006F6A626B0073686952
:0421060062616900A9
:1020020090002E740DF090002DF07B017A00792E55
:102012007D0112178890002EE04401F07B017A00C6
:07202200792D7D0202192B4C
:1020290090002E740DF090002DF07B017A00792E2E
:102039007D0112178890002EE054FEF07B017A0092
:07204900792D7D0202192B25
:0E0A6D00900178EBF0A3EAF0A3E9F0A3EDF01E
:100A7B00A37401F0A37403F0E490019FF0A3F09032
:100A8B0000057409F0A37421F07B017A0079057DD0
:100A9B000212192B900002E090000520E108740768
:100AAB00F0A3742F80067407F0A37413F07B017A04
:100ABB000079057D0212192BE4900184F09000025D
:100ACB00E090018020E5087411F01220028003747D
:100ADB0002F09001817401F0A37401F0A37484F00F
:100AEB0090017BE0FD1313543F2401FFE433A2E795
:100AFB0013EF1390019EF02403FFE433AB07FA903E
:100B0B000005748FF0A37491F0A3743DF0EAFFA37A
:100B1B00EFF0FEAF03EFC4F8540FC868FFA3EFF07C
:100B2B00900002E090000AF0A37401F0A3EDF090A6
:100B3B00017BD394004039E4A3F090019EE0FF9039
:100B4B00017CE0FEC39F5028900178E0FBA3E0FA04
:100B5B00A3E0F98E8275830012133DFF740D2EF501
:100B6B0082E43400F583EFF090017CE004F080CA5E
:100B7B0090017E740CF0A304F07B017A01797E7DE9
:100B8B00021216837F147E00121BAD5388FD43A8FF
:100B9B00017B017A00790590019EE02408FD121D6E
:100BAB00DE9000017401F043881043870190017CB3
:100BBB00F0900180E0FF90017CE0C39F4003020CAA
:100BCB00AD9001327401F07F147E00121BAD43888F
:100BDB0010E490019FF0A3F0438701900001E0B473
:100BEB0001239001A0E004F0700690019FE004F057
:100BFB0090019FE0B4FFE4A3E0B4F0DFE4900001C8
:100C0B00F0900004F090017E740FF07B017A017973
:100C1B007E7D01121788900001E0B4FF1275A0FBD6
:100C2B007BFF7A2079F6121F9F12212575A0049065
:100C3B00017E740FF07B017A01797E1219EE90011F
:100C4B0080E06411703890017CE0C39410502F90B9
:100C5B00017E7416F07B017A01797E1219EE9001F8
:100C6B007E7417F07B017A01797E1219EE90017E6A
:100C7B007414F07B017A01797E1219EE801B9001BE
:100C8B0080E0B4110C90017CE0B410051220298097
:100C9B0008900180E06402600990017CE004F0029E
:100CAB000BBC90017BE0240490019DF0E0131354E6
:100CBB003F2401FFE433A2E713EF1314A3F09001D9
:100CCB0081E0FBA3E0FAA3E0F91213247003020DF9
:100CDB007F900180E064116003020D7F74FF12139B
:100CEB006AE490017CF0900178E0FBA3E0FAA3E0CA
:100CFB00F990017CE0FFF58275830012133DFE74C1
:100D0B00952FF582E43401F583EEF090017CE0043D
:100D1B00F0E0B408D190019DE020E214900181E055
:100D2B00FBA3E0FAA3E0F9121324C454F012138CC2
:100D3B0090019EE02495F582E43401F583C083C0D5
:100D4B0082E0FF900181E0FBA3E0FAA3E0F912132C
:100D5B0024FEEF4ED082D083F07B017A01799590FF
:100D6B00019DE0FD120A6D90018274FFF5F01213E4
:070D7B00D2020CC953A8FECF
:010D8200224E
:05114D00900161EDF0CE
:10115200900132F0748F12138C900163E0900001C1
:10116200600474908002749112139E900002743D88
:1011720012139E900132E0FF7808A2E713D8FB9089
:10118200000312139EEFC454F0FF900162E0FE4F81
:1011920090000412139E900161E0D3940C400374FA
:1011A2000CF0900161E0700AEE60077401F09001AA
:1011B20032F0900161E02405FD121DDE5388FD43EB
:1011C200A801900132E024F4F09001647411F090CF
:1011D20000017401F0900132E0FFD36480948040FA
:1011E20058438701D3EF6480948940089001617469
:1011F2000AF08010C3EF648094815002803BEF04B8
:10120200900161F0900164E0FF2404F582E434006F
:10121200F583741FF07E0074042FF9EE3400FA7B1C
:1012220001900161E0FD121A7B900132E024F7F097
:10123200900164E02409F0809C9001327401F090E6
:101242000001E0B4010F7F3C7E00121BAD43881009
:1012520043870180EA9000017401F07F3C7E001216
:101262001BAD43881090000AE0FF30E616A3E0FEB3
:1012720064216025EE64246020EE6427601BEE6426
:10128200296016EF703890000BE054F0FF64206084
:1012920008EF64306003BF40257F147E0012207087
:1012A200900165740FF07B017A0179651219EE9055
:1012B20001657414F07B017A0179651219EE9000D0
:1012C20001E0FF640160F712208E900001E0B4FF9C
:1012D2001A900006E07BFF70067A2079FE80047A7D
:1012E200217903121F9F1221258031900001E0B461
:1012F20002127F5B1220DE7F7A1220DE7F5D1220D7
:10130200DE7F0022900001E070127F5B1220DE7F00
:10131200691220DE7F5D1220DE7F012253A8FE7F4C
:0113220001C9
:0113230022A7
:101FD2004901B50C00030410002101004C01A90FB6
:101FE20000030418002108FFFF00004801A10B00B4
:061FF200030418002008A2
:101F0400E490014FF0A37421F0A37401F0A37408CA
:101F1400F07B017A01794F7D0412192B7F057E0035
:101F24001220707F0112187FE490014FF0A304F097
:101F3400FB7A01794F7D0212192B7F017E0012205A
:101F44007090014F740CF0A304F07B017A01794F77
:071F54007D0212168380A933
:051FF8004201DF008042
:0E192B00900172EBF0A3EAF0A3E9F0A3EDF057
:101939005380F75380FE900175E0D3940050030261
:1019490019CF900172E0FBA3E0FAA3E0F912132486
:10195900541F12138CE4900176F0900176E0C39441
:101969000250D3E4A3F0900172E0FBA3E0FAA3E0F4
:10197900F9121324FF9001DFE0FCA3E0FDED5F60A5
:101989000543800480035380FB4380015380FEECB0
:10199900C313FFED139001DFCFF0A3EFF0900177B0
:1019A900E004F0E0B408BF9001DFE4F0A37480F034
:1019B900900173E475F0011213D2900175E014F0EF
:0919C900A3E004F08094438008BF
:0119D20022F2
:0E1A7B00900166EBF0A3EAF0A3E9F0A3EDF012
:101A89005380F75380FE900166E0FBA3E0FAA3E0E0
:101A9900F9121324442012138C900166E0FBA3E091
:101AA900FAA3E0F9121324543F12138C900169E050
:101AB900D39400405FE4A3F0900166E0FBA3E0FA51
:101AC900A3E0F9121324FF9001DFE0FCA3E0FDED90
:101AD9005F600543800480035380FB43800153808A
:101AE900FEECC313FFED139001DFCFF0A3EFF090ED
:101AF900016AE004F0E0B408BF9001DFE4F0A374E8
:101B090080F0900167E475F0011213D2900169E049
:071B190014F08098438008DE
:011B200022A2
:10177600741C12138C900137E0FBA3E0FAA3E0F986
:021786007D01E3
:0E17880090013BEBF0A3EAF0A3E9F0A3EDF033
:101796005380F790013EE0D39400500302187B90EB
:1017A600013BE0FBA3E0FAA3E0F912132444401244
:1017B600138C90013BE0FBA3E0FAA3E0F91213249B
:1017C600545F12138CE490013FF090013BE0FBA3C1
:1017D600E0FAA3E0F9121324FF9001DFE0FCA3E096
:1017E600FDED5F600543800480035380FB43800169
:1017F6005380FEECC313FFED139001DFCFF0A3EF90
:10180600F090013FE004F0E0B408BF9001DFE4F09F
:10181600A37480F090013BE0FBA3E0FAA3E0F9E4B7
:1018260012138C90013FF090013BE0FBA3E0FAA37A
:10183600E0F912132425E012138C4380015380FE35
:10184600E58030E11390013BE0FBA3E0FAA3E0F969
:10185600121324440112138C90013FE004F0E0B40B
:1018660008C590013CE475F0011213D290013EE0E8
:0818760014F0021799438008E9
:01187E002247
:10165E00900137E0FBA3E0FAA3E0F9740C12138CAF
:10166E00900137E0FBA3E0FAA3E0F9900001740DBE
:05167E0012139E7D0225
:0E16830090015BEBF0A3EAF0A3E9F0A3EDF019
:101691005380F790015BE0FBA3E0FAA3E0F912139A
:1016A10024446012138C90015BE0FBA3E0FAA3E0F9
:1016B100F9121324547F12138CE490015FF090010E
:1016C1005BE0FBA3E0FAA3E0F9121324FF9001DF32
:1016D100E0FCA3E0FDED5F600543800480035380DF
:1016E100FB4380015380FEECC313FFED139001DF38
:1016F100CFF0A3EFF090015FE004F0E0B408BF90F9
:1017010001DFE4F0A37480F090015EE0D394004027
:101711006090015BE0FBA3E0FAA3E0F9E412138C13
:1017210090015FF090015BE0FBA3E0FAA3E0F91206
:10173100132425E012138C4380015380FEE5803091
:10174100E11390015BE0FBA3E0FAA3E0F91213249B
:10175100440112138C90015FE004F0E0B408C590DD
:10176100015CE475F0011213D290015EE014F08087
:041771009743800812
:011775002251
:1019D300900137E0FBA3E0FAA3E0F9740F12138C34
:0B19E300900137E0FBA3E0FAA3E0F95D
:0B19EE00900166EBF0A3EAF0A3E9F023
:1019F9005380F7900166E0FBA3E0FAA3E0F9121324
:101A090024448012138C900166E0FBA3E0FAA3E062
:101A1900F9121324549F12138CE4900169F0900178
:101A290066E0FBA3E0FAA3E0F9121324FF9001DFBB
:101A3900E0FCA3E0FDED5F60054380048003538073
:101A4900FB4380015380FEECC313FFED139001DFCC
:101A5900CFF0A3EFF0900169E004F0E0B408BF9083
:101A690001DFE4F0A37480F04380015380FE4380DA
:011A79000864
:011A7A002249
:051DDE00900172EDF020
:101DE3005380F7900172E0D394004051E4A3F012C2
:101DF3001324FF9001DFE0FCA3E0FDED5F600543EA
:101E0300800480035380FB4380015380FEECC313A3
:101E1300FFED139001DFCFF0A3EFF0900173E00427
:101E2300F0E0B408CA9001DFE4F0A37480F0740119
:101E330029F9E43AFA900172E014F080A64380088D
:011E4300227C
:10000E0090014F7409F0A37431F07B017A01794F9E
:05001E007D0202192B18
:0B06C200900137EBF0A3EAF0A3E9F091
:1006CD00121324FFB4A003020A47EFB48007E4908D
:1006DD0000010209C0900137E0FBA3E0FAA3E0F9A5
:1006ED0012132430E16F9000017402F07416121988
:1006FD00E0900003740EF07B017A0079037D011206
:10070D001788900003E024E090013AF0540F600444
:10071D00E02410F090013AE0FFC4540FF0603390E4
:10072D000132E0FF3395E0FE74052FF58274003E33
:10073D00F583741FF074052FF974003EFA7B019058
:10074D00013AE0FD12168390013AE0FF900132E08C
:10075D002FF0020A63900137E0FBA3E0FAA3E0F962
:10076D001213246440600302087A900004E0B4027E
:10077D00030209F1900137E0FBA3E0FAA3E0F912BF
:10078D001776900137E0FBA3E0FAA3E0F9121324EA
:10079D00540F0412138C900132E0FF3395E0FE7478
:1007AD00052FF58274003EF583741FF074052FF943
:1007BD0074003EFA7B01C003C002C001900137E016
:1007CD00FBA3E0FAA3E0F9121324FDD001D002D06F
:1007DD0003121683900137E0FBA3E0FAA3E0F912B0
:1007ED001324FF900132E02FF0741E12138C900130
:1007FD0037E0FBA3E0FAA3E0F97D01121683900127
:10080D0037E0FBA3E0FAA3E0F9121324FF30E05721
:10081D00EFC313540712138C900137E0FBA3E0FADA
:10082D00A3E0F9121324FFC374089F12138C9001D7
:10083D0032E0FF3395E0FE74042FF58274003EF52F
:10084D0083C083C082E0FF900137E0FBA3E0FAA3F1
:10085D00E0F9121324FE74FFA806088002C333D8F2
:10086D00FC5FD082D083F01219D3020A09900137B0
:10087D00E0FBA3E0FAA3E0F9121324646060030225
:10088D000A1090000104F0900132E0FF3395E0FE74
:10089D0074052FF58274003EF583741FF074052FD7
:1008AD00F974003EFA7B017D09121683900132E046
:1008BD002409F0E58020E7030209F612165E53883D
:1008CD00FD900137E0FBA3E0FAA3E0F912132464D5
:1008DD004060030209DF121776900137E0FBA3E0B9
:1008ED00FAA3E0F912132404540F12138C90013261
:1008FD00E0FF3395E0FE74052FF58274003EF5831D
:10090D00741FF074052FF974003EFA7B01C003C00B
:10091D0002C001900137E0FBA3E0FAA3E0F9121346
:10092D0024FDD001D002D003121683900137E0FBD5
:10093D00A3E0FAA3E0F9121324FF900132E02FF0A7
:10094D00741E121778900137E0FBA3E0FAA3E0F9CB
:10095D00121324FF30E057EFC313540712138C907A
:10096D000137E0FBA3E0FAA3E0F9121324FFC374EF
:10097D00089F12138C900132E0FF3395E0FE740452
:10098D002FF58274003EF583C083C082E0FF900195
:10099D0037E0FBA3E0FAA3E0F9121324FE74FFA8DD
:1009AD0006088002C333D8FC5FD082D083F090005C
:1009BD000174FFF0900137E0FBA3E0FAA3E0F974B6
:1009CD000F12138C900137E0FBA3E0FAA3E0F902BC
:1009DD0019EE900137E0FBA3E0FAA3E0F91213241E
:1009ED006450707B900001804912165E900137E0D3
:1009FD00FBA3E0FAA3E0F9121324706390000174D5
:100A0D00FFF022900137E0FBA3E0FAA3E0F9121307
:100A1D0024FF30E40A90000130E502800C8013EFD2
:100A2D0030E21390000130E5097401F090000404E8
:100A3D00F0227402F022EFB40106E4900001F022DE
:100A4D009000017402F0900137E0FBA3E0FAA3E0FF
:0F0A5D00F974161219E01219D312165E5388FDA0
:010A6C002267
:03000300021C9745
:101C9700C0E0C0F0C083C082C0D075D000C000C013
:0D1CA70001C002C003C004C005C006C00794
:101CB4005388EF5388FD900133740CF0A304F07B38
:101CC400017A0179337D02121683900133E0FF1209
:101CD400208E900133E064A0600E7B017A01793399
:0B1CE4001206C2E58020E7CB5387FD0D
:101CEF00D007D006D005D004D003D002D001D00049
:0B1CFF00D0D0D082D083D0F0D0E032F3
:07212F0043880143E40F2285
:10207000D3EF9400EE940040147D107C27ED1D708A
:0D208000011CED4C70F7EF1F70E61E80E3B1
:01208D002230
:101BAD00900172EEF0A3EFF0C28D5389F0438901DD
:101BBD00538EFCD2A9C28C900172E0FEA3E0FF7C93
:101BCD00037DE81213C0AA06EA3395E0F9F8C37451
:101BDD00FF9FFF74FF9AFEE499FDE498FC780812CC
:101BED0013FE8F8C900172E0FEA3E0FF7C037DE875
:101BFD001213C0AA06EA3395E0F9F8C374FF9FFFEC
:101C0D0074FF9AFEE499FDE498FCE4FB7A01F9F87F
:061C1D00121F5B8F8A22FA
:10205000E4FFFE75B28375B9800FBF00010EEF6417
:0F206000144E70F543B9C0E5B930E5FBE4F5A9BE
:01206F00224E
:03000B00021D0AC9
:101D0A00C0E0C0F0C083C082C0D075D000C000C09F
:0D1D1A0001C002C003C004C005C006C00720
:101D27005388EF900140740CF0A304F07B017A0113
:101D370079407D02121683900140E054F7F0600469
:101D4700E0B48007900001E4F08006900001740180
:041D5700F05387FDC1
:101D5B00D007D006D005D004D003D002D001D000DC
:0B1D6B00D0D0D082D083D0F0D0E03286
:1020A9004765745F6E6962626C650052656164655B
:0B20B9007220656E61626C65642E0091
:041FFD004101E201BB
:0A211B0075A41075E10175E2402281
:1020C400759810758DCC538EF4438E08858D8B5383
:0A20D400890F438920D28ED2992291
:1020DE00EFB40A083099FDC29975990D3099FDC279
:0820EE00998F99AF997E002241
:0A2125007F0D1220DE7F0A0220DE8B
:101F9F00900166EBF0A3EAF0A3E9F0900166E0FB95
:101FAF00A3E0FAA3E0F91213246017900166A3E4EB
:101FBF0075F0011213E8A9F0FA121324FF1220DEB4
:031FCF0080D92294
:10210A00AE07EFD39409400474072EFE74302EFFF5
:01211A0022A2
:02208E00AD079C
:10209000EDC4540FFF12210AAE071220DEED540FDB
:0920A000FF12210AAE070220DE46
:101E44007BFF7A2079A9121F9F7D01ED604F4387A4
:101E540001900000E0C3648094E14004E024E0F0D9
:101E6400900000E0FFC3648094B04008D3EF648026
:101E740094B94010C3EF648094C140CFD3EF648021
:101E840094C650C7E4FD1220DE900000E0FFD36446
:101E94008094B940B6EF540F2409F080AE9000004E
:021EA400E0FF5D
:011EA6002219
:03002300021C2399
:101C2300C0E0C0F0C083C082C0D075D000C000C087
:101C330001C002C003C004C005C006C00730983904
:101C4300900000E599F09001E47401F09001E3E065
:101C5300701843C70812205012000E7BFF7A2079B8
:101C6300B4121F9F9001E37401F05387FD9001E2CA
:101C7300E0600653A8FE5388EFD007D006D005D006
:101C830004D003D002D001D000D0D0D082D083D0F2
:041C9300F0D0E0327B
:0B14E00090015EE0FF7B017A007906BE
:0E14EB0090016CEFF0A3EBF0A3EAF0A3E9F0A0
:1014F900E4900171F090003704F0A37408F07B01C7
:101509007A0079377D0212192BE4900170F090016D
:101519006DE0FBA3E0FAA3E0F9A3E0FFF582758390
:101529000012133DFE740C2FF582E43400F583EEAE
:10153900F0900170E004F0E0B405D3900005748FD9
:10154900F0A37491F0A3743DF0E4A3F0A37470F0D8
:1015590090016CE090000AF0A37470F07B017A00AE
:1015690079057D0C121DDE9000017401F0900132A5
:10157900F0900001E0640160F89000017401F07FCF
:101589000A7E00121BAD438810900001E0FF640140
:1015990060F7EFF46003021638900006E030E24885
:1015A9007F281220DE9001707401F0900132E0FF73
:1015B9003395E0FE900170E0FDC39FEE6480F874FE
:1015C9008098501774052DF582E43400F583E0FF07
:1015D90012208E900170E004F080D07F291220DE65
:1015E9009001717401F080677F5B1220DE900170B9
:1015F9007401F0900132E0FF3395E0FE900170E054
:10160900FDC39FEE6480F8748098501774052DF51A
:1016190082E43400F583E0FF12208E900170E0042B
:10162900F080D07F5D1220DEE4900171F08020907F
:101639000001E0B402097F5B1220DE7F7A80089006
:101649000001E0700A7F5B1220DE7F5D1220DE90D0
:041659000171E0FF3C
:01165D00226A
:1000260090015EEFF0A3EDF0A3EBF0A3EAF0A3E9F5
:01003600F0D9
:10003700E4900168F0A3F0A3F0A3F090003704F078
:10004700A37488F07B017A0079377D0212192BE4BB
:10005700900004F0900003F090015FE0FFC4540F9C
:10006700FE2405FDEF540F602C0DEE24FE90016970
:10007700F0EF5407FFE4900163F0900163E0C39F42
:10008700501390016AE0FE25E0F0E004F090016370
:10009700E004F080E5900005748FF090015FE09038
:1000A7000006B470057491F080037490F090000717
:1000B700743DF0E4A3F090015FE0FF54F090000975
:1000C700F0EF5407FF600AE0FEEF25E004FFEE4F74
:1000D700F090015EE090000AF090015FE090000B65
:1000E700F0900160E0FBA3E0FAA3E0F9121324907B
:1000F700000CF090000112133D90000DF0900002EB
:1001070012133D90000EF090000312133D90000F64
:10011700F07B017A007905121DDE9001327401F03F
:10012700900001F0900001E0600F7F0A7E00121B33
:10013700AD43881043870180EB9000017401F0E420
:10014700900163F0900001E0B4011B900163E0C3EC
:1001570094025012E004F07F0A7E00121BAD438820
:100167001043870180DE900004E0B402069000018E
:100177007402F0900001E0F4600302060A7F28127F
:1001870020DE9001637401F0900163E0FFC39406E1
:10019700501774052FF582E43400F583E0FF122031
:1001A7008E900163E004F080DF7F291220DE90014A
:1001B7005EE0246B700302047124FE700302054A9B
:1001C7002404600302062F900006E06488601590FF
:1001D7000160E0FBA3E0FAA3E0F91213246488604E
:1001E70003020354900169E0D3940050030202C351
:1001F700E4900163F0900163E0FFC39404400302BD
:100207000311900169E014FEEFC39E502B9001602B
:10021700E0FBA3E0FAA3E0F9A3E0FD7C00E92DF9F8
:10022700EC3AFA90000112133DFD74BE2FF582E4FB
:100237003401F583EDF0807B900163E0FF6E704A37
:10024700900160E0FBA3E0FAA3E07E002FF9EE3A0D
:10025700FA90000112133DFF90016AE05FFF9001E1
:1002670069E0FD900163E0F9C39DFDE49400FC742F
:10027700072DF58274003CF583E0FE90016AE0F4F7
:10028700FDEE5D4FFF74BE298020900169E0FF906D
:100297000163E0FDC39FFFE49400FE74072FF5821E
:1002A70074003EF583E0FF74BE2DF582E43401F55A
:1002B70083EFF0900163E004F00201FC900160E03D
:1002C700FBA3E0FAA3E0F9121324FF90016AE0FE12
:1002D7005FFFEEF4FE900007E05E4F9001BEF0E492
:1002E700900163F0900163E0FF2408F582E4340095
:1002F700F583E0FE74BF2FF582E43401F583EEF059
:10030700900163E004F0E0B404DA9000067488F02A
:10031700E4900163F0900163E0FF24BEF582E434CA
:1003270001F583E0FE74072FF582E43400F583EED0
:10033700F0900163E004F0E0B404DA1214E09001F5
:100347005F7420F09001687401F00204687F5B120B
:1003570020DE900169E0D39400500302041A7F6203
:100367001220DEE4900163F0900163E0FFC3940480
:100377004003020463900169E014FEEFC39E501B23
:10038700900160E0FBA3E0FAA3E0F97E00E92FF912
:10039700EE3AFA90000112133D806B900169E0FF7D
:1003A70014900163F06044900160E0FBA3E0FAA3BE
:1003B700E0F9A3E0FD7C00E92DF9EC3AFA900001A1
:1003C70012133DFE90016AE0F95EFEEFFD900163B6
:1003D700E0C39DFDE49CFC74072DF58274003CF599
:1003E70083E0FFE9F4FDEF5D4E801B900169E0FFBC
:1003F700900163E0C39FFFE49400FE74072FF5822A
:1004070074003EF583E0FF12208E900163E004F054
:1004170002036F900160E0FBA3E0FAA3E0F9121377
:1004270024FF90016AE0FE5FFFEEF4FE900006E015
:100437005E4FFF12208EE4900163F0900163E0FFAE
:10044700C39404501774072FF582E43400F583E052
:10045700FF12208E900163E004F080DF7F5D1220A1
:10046700DE90015E7495F002062F900006E0648826
:100477007036900163F0900163E0FF2407F582E492
:100487003400F583E0FE74C22FF582E43401F5836E
:10049700EEF0900163E004F0E0B404DA1214E090A7
:1004A70001687401F0020541E4900163F090016373
:1004B700E0FF2406F582E43400F583E0FE74C22FE2
:1004C700F582E43401F583EEF0900163E004F0E097
:1004D700B405DA7F5B1220DEE4900163F0900163DC
:1004E700E0FFC39403501774BE2FF582E43401F57F
:1004F70083E0FF12208E900163E004F080DF90011B
:10050700C1E0FF12208E9001637404F0900163E054
:10051700FFC39408501774BE2FF582E43401F583A6
:10052700E0FF12208E900163E004F080DF9001C6A7
:10053700E0FF12208E7F5D1220DE90015E7497F03F
:1005470002062FE4900163F0900163E0FF2406F5B3
:1005570082E43400F583E0FE74C62FF582E43401AB
:10056700F583EEF0900163E004F0E0B405DA7F5B19
:100577001220DEE4900163F0900163E0FFC394036F
:10058700501774BE2FF582E43401F583E0FF122083
:100597008E900163E004F080DF9001C1E0FF12203C
:1005A7008E9001637404F0900163E0FFC3940750D9
:1005B7001774BE2FF582E43401F583E0FF12208E15
:1005C700900163E004F080DF9001C5E0FF12208E08
:1005D7009001637408F0900163E0FFC3940C501717
:1005E70074BE2FF582E43401F583E0FF12208E906C
:1005F7000163E004F080DF9001CAE0FF12208E7FE4
:100607005D8022900001E0B4020E7F281220DE7F79
:100617007A1220DE7F29800D900001E0700A7F2882
:100627001220DE7F291220DE900001E06402705D57
:10063700900003E004F09001637401F0900163E01F
:10064700FF2405F582E43400F583E0FE74632FF59B
:1006570082E43401F583EEF0900163E004F0E0B446
:1006670005DA7F787E00121BAD4388109000017475
:1006770001F0900001E0640160F890015EE0FF90F6
:100687000003E0FD7B017A0179641200269001687E
:10069700E0601A90015EE0FFA3E0FDA3E0FBA3E0AA
:1006A700FAA3E0F912002690016B7401F090016B38
:0A06B700E0600475A0FB2275A004AA
:0106C1002216
:05187F0090015BEFF099
:10188400A37493F0A37420F09000057409F0A3747A
:1018940021F07B017A0079057D0212192B90000555
:1018A4007401F0A37488F07B017A0079057D02123B
:1018B400192B90015BE090000A60057426F0800308
:1018C4007452F07B017A007905900162740FF0A3E1
:1018D4007401F0E4FD12114D5388FD43A8019000FA
:1018E40001E0FFF46005EF640270207F0590002D95
:1018F400E4F0A3DFFC90015CE0FFA3E0FD7B017A50
:1019040000792D12002675A0FB800375A0049000B9
:10191400057401F0A37408F07B017A0079057D0257
:0619240012192B53A8FE6E
:01192A00229A
:0E0D83009001CCEBF0A3EAF0A3E9F0A3EDF0B1
:100D9100A3E0FFC4540F2408FEEF540F2408900170
:100DA100D4F0A37401F0AF06A3EFF07B017A0179CF
:100DB100D57D0212192B9001CFE0900132F0900104
:100DC100CCE0FBA3E0FAA3E0F9748F12138C90013D
:100DD100CCE0FBA3E0FAA3E0F990000174911213B7
:100DE1009E900002743D12139E900132E0FF780440
:100DF100A2E713D8FB90000312139EEFC454F090A6
:100E0100000412139E9001CFE0D3940C4003740CA4
:100E1100F09001CCE0FBA3E0FAA3E0F9A3E0240504
:100E2100FD121DDE5388FD43A801900132E024F438
:100E3100F09001D17412F09000017401F090013230
:100E4100E0FFD3648094804058438701D3EF6480EE
:100E5100948940089001CF740AF08010C3EF648038
:100E610094815002803BEF049001CFF09001D1E0DA
:100E7100FF2404F582E43400F583741FF07E0074CE
:100E8100042FF9EE3400FA7B019001CFE0FD121A34
:100E91007B900132E024F7F09001D1E02409F08049
:100EA1009C9001327401F0900001E0640160F890BF
:100EB10001D57401F09001D4E09001D6F07B017A64
:100EC1000179D57D0212192B9001D37416F07B01A3
:100ED1007A0179D31219EE9001D37417F07B017A5C
:100EE1000179D31219EE9000017401F07F3C7E006C
:100EF100121BAD438810900001E0FF640160F7EF21
:100F0100F4703B7F5B1220DE9001D27401F09001FE
:100F110032E0FF3395E0FE9001D2E0FDC39FEE6425
:100F210080F8748098502874052DF582E43400F51A
:100F310083E0FF12208E9001D2E004F080D0900077
:100F410001E0B402127F5B1220DE7F7A1220DE7F85
:100F51005D1220DE7F0022900001E0700D7F5B12A8
:0F0F610020DE7F5D1220DE7F012253A8FE7F017C
:010F7000225E
:101D76009001E7EFF0900005748FF0A37491F0A343
:101D8600743DF0E4A3F0A37410F07B017A007905AA
:101D96007D05121DDE90000A743FF09001E7E0FF1A
:101DA600C454F0440590000BF0E4A3F09000010445
:101DB600F0FB7A00790A7D03121DDE5388FD43A8E5
:101DC60001900001E0B4010F7F287E00121BAD4395
:081DD600881043870180EA2216
:080F71009001D7EFF0A3EDF0B1
:100F7900E49001DAF09001DCF0A3F0A3F090000511
:100F89007409F0A37431F07B017A0079057D0212AE
:100F9900192BE4900004F0900005748FF0A374916C
:100FA900F0A3743DF0E4A3F0A37430F0A37405F04A
:100FB900E4A3F09001D8E0B4040A12200290000CD6
:100FC900E04408F09001D8E090000CF09001D7E0DF
:100FD900B4B10790000CE04408F09000017401F0EE
:100FE900FB7A0079057D08121DDE5388FD43A801AF
:100FF900E49001DBF0900001E0B4011B9001DBE01B
:10100900C394025012E004F07F147E00121BAD431A
:10101900881043870180DE9000017401F07F147EFF
:1010290000121BAD4388109001D97401F090013270
:101039007401F0438701900001E0B401239001DEBF
:10104900E004F070069001DDE004F09001DDE0B409
:10105900FFE4A3E0B4F0DFE4900001F0900004F0B5
:10106900900004E0B40204900001F0900001E0F463
:10107900703B7F5B1220DE9001DB7401F09001323E
:10108900E0FF3395E0FE9001DBE0FDC39FEE648055
:10109900F8748098504574052DF582E43400F58381
:1010A900E0FF12208E9001DBE004F080D090000177
:1010B900E0B402177F5B1220DE7F7A1220DE7F5DAB
:1010C9001220DE9001DA7401F08015900001E070C1
:1010D9000F7F5B1220DE7F431220DE7F5D1220DE50
:1010E9009001D8E0FF60306401602CEF6402602752
:1010F900EFB40406A3E06410601D9001D9E0FF126B
:101109001D769000017401F09001D9E004F0E0C36C
:10111900941150030210369001D8E0B40403122050
:101129002953A8FE9001DCE0600575A0FB800375DA
:10113900A0049001DAE060057F641220DE7D027F61
:0411490020020F7100
:101EA70053D9BFE4F5D912205012211B1220C44385
:101EB700AE0853C7F77F017E0012207043C7087F23
:101EC700017E0012207043F18012212F43A40843A2
:101ED700800843A40443F10243A40153C7F77F01D9
:101EE7007E0012207043C7087F017E001220701207
:0D1EF700000E43A88043F504121F0480FB79
:03000000021B21BF
:0C1B2100787FE4F6D8FD758107021B6890
:10132400BB010689828A83E0225002E722BBFE02C7
:09133400E32289828A83E49322FA
:10133D00BB010CE58229F582E5833AF583E0225065
:10134D0006E92582F8E622BBFE06E92582F8E222AF
:0D135D00E58229F582E5833AF583E49322C9
:10136A00BB010989828A83F8E028F022500327F713
:10137A0022BBFE05F8E328F3228A838982F8E493E4
:02138A00282217
:10138C00BB010689828A83F0225002F722BBFE0140
:02139C00F3223A
:10139E00F8BB010DE58229F582E5833AF583E8F085
:1013AE00225006E92582C8F622BBFE05E92582C831
:0213BE00F22219
:1013C000EF8DF0A4A8F0CF8CF0A428CE8DF0A42E41
:0213D000FE22FB
:1013D200C5F0F8A3E028F0C5F0F8E58215827002A6
:0613E2001583E038F02243
:1013E800A3F8E0C5F025F0F0E582158270021583B8
:0613F800E0C838F0E82215
:101F5B00C2D5E830E70FB2D5E4C39BFBE49AFAE4B1
:101F6B0099F9E498F8EC30E717B2D5121F911214D7
:101F7B004EE4C39BFBE49AFAE499F9E498F88003E6
:101F8B0012144E30D50DE4C39FFFE49EFEE49DFD7D
:041F9B00E49CFC22A4
:1013FE00E86010ECA2E713FCED13FDEE13FEEF1305
:04140E00FFD8F022F1
:101B2D00021EA7E493A3F8E493A34003F68001F209
:101B3D0008DFF48029E493A3F85407240CC8C333B9
:101B4D00C4540F4420C8834004F456800146F6DF88
:101B5D00E4800B0102040810204080901FD2E47E27
:101B6D00019360BCA3FF543F30E509541FFEE4937D
:101B7D00A360010ECF54C025E060A840B8E493A344
:101B8D00FAE493A3F8E493A3C8C582C8CAC583CA6F
:101B9D00F0A3C8C582C8CAC583CADFE9DEE780BE27
:0120010000DE
:1014120075F008758200EF2FFFEE33FECD33CDCC91
:1014220033CCC58233C5829BED9AEC99E582984014
:101432000CF582EE9BFEED9AFDEC99FC0FD5F0D6F1
:10144200E4CEFBE4CDFAE4CCF9A88222B800C1B91B
:101452000059BA002DEC8BF084CFCECDFCE5F0CB59
:10146200F97818EF2FFFEE33FEED33FDEC33FCEB92
:1014720033FB10D703994004EB99FB0FD8E5E4F94D
:10148200FA227818EF2FFFEE33FEED33FDEC33FC3A
:10149200C933C910D7059BE99A4007EC9BFCE99A2E
:1014A200F90FD8E0E4C9FAE4CCFB2275F010EF2F73
:1014B200FFEE33FEED33FDCC33CCC833C810D70773
:1014C2009BEC9AE899400AED9BFDEC9AFCE899F8AE
:0E14D2000FD5F0DAE4CDFBE4CCFAE4C8F92241
:00000001FF
