:10215E0066696E64206974006F6A626B00736869E9
:04216E006261690041
:1020850090002E740DF090002DF07B017A00792ED2
:102095007D0112177A90002EE04401F07B017A0051
:0720A500792D7D02021930C4
:1020AC0090002E740DF090002DF07B017A00792EAB
:1020BC007D0112177A90002EE054FEF07B017A001D
:0720CC00792D7D020219309D
:0E0A6D00900133EBF0A3EAF0A3E9F0A3EDF063
:100A7B00A37401F0A37403F0E490015AF0A3F09077
:100A8B0000057409F0A37421F07B017A0079057DD0
:100A9B0002121930900002E090000520E108740763
:100AAB00F0A3742F80067407F0A37413F07B017A04
:100ABB000079057D02121930E490013FF09000029D
:100ACB00E090013B20E5087411F01220858003743F
:100ADB0002F090013C7401F0A37401F0A3743FF099
:100AEB00900136E0FD1313543F2401FFE433A2E7DA
:100AFB0013EF13900159F02403FFE433AB07FA9083
:100B0B000005748FF0A37491F0A3743DF0EAFFA37A
:100B1B00EFF0FEAF03EFC4F8540FC868FFA3EFF07C
:100B2B00900002E090000AF0A37401F0A3EDF090A6
:100B3B000136D394004039E4A3F0900159E0FF90C3
:100B4B000137E0FEC39F5028900133E0FBA3E0FA8E
:100B5B00A3E0F98E82758300121332FF740D2EF50C
:100B6B0082E43400F583EFF0900137E004F080CAA3
:100B7B00900139740CF0A304F07B017A0179397D73
:100B8B00021216757F147E00121BB25388FD43A808
:100B9B00017B017A007905900159E02408FD121EB2
:100BAB00489000017401F04388104387019001378E
:100BBB00F090013BE0FF900137E0C39F4003020C34
:100BCB00AD9001327401F07F147E00121BB243888A
:100BDB0010E490015AF0A3F0438701900001E0B4B8
:100BEB00012390015BE004F0700690015AE004F0E1
:100BFB0090015AE0B4FFE4A3E0B4F0DFE49000010D
:100C0B00F0900004F0900139740FF07B017A0179B8
:100C1B00397D0112177A900001E0B4FF1275A0FB29
:100C2B007BFF7A21795E121FF312219D75A0049030
:100C3B000139740FF07B017A0179391219F39001A4
:100C4B003BE064117038900137E0C39410502F9043
:100C5B0001397416F07B017A0179391219F390017D
:100C6B00397417F07B017A0179391219F390013934
:100C7B007414F07B017A0179391219F3801B9001FE
:100C8B003BE0B4110C900137E0B410051220AC809E
:100C9B000890013BE064026009900137E004F00228
:100CAB000BBC900136E02404900158F0E013135470
:100CBB003F2401FFE433A2E713EF1314A3F09001D9
:100CCB003CE0FBA3E0FAA3E0F91213197003020D49
:100CDB007F90013BE064116003020D7F74FF1213E0
:100CEB005FE4900137F0900133E0FBA3E0FAA3E05F
:100CFB00F9900137E0FFF582758300121332FE7411
:100D0B00502FF582E43401F583EEF0900137E004C7
:100D1B00F0E0B408D1900158E020E21490013CE0DF
:100D2B00FBA3E0FAA3E0F9121319C454F0121381D8
:100D3B00900159E02450F582E43401F583C083C05F
:100D4B0082E0FF90013CE0FBA3E0FAA3E0F9121371
:100D5B0019FEEF4ED082D083F07B017A017950904F
:100D6B000158E0FD120A6D90013D74FFF5F012136E
:070D7B00C7020CC953A8FEDA
:010D8200224E
:05114B009001CBEDF066
:10115000900132F0748F1213819001CDE090000164
:101160006004749080027491121393900002743D95
:10117000121393900132E0FF7804A2E713D8FB909A
:101180000003121393EFC454F0FF9001CCE0FE4F24
:101190009000041213939001CBE0D3940C4003749D
:1011A0000CF09001CBE0700AEE60077401F0900142
:1011B00032F09001CBE02405FD121E485388FD4318
:1011C000A801900132E024F4F09001CE7411F09067
:1011D0000132E0FFD3648094804056438701D3EF0F
:1011E0006480948940089001CB740AF0800EC3EFAC
:1011F00064809481403BEF049001CBF09001CEE0FD
:10120000FF2404F582E43400F583741FF07E00743B
:10121000042FF9EE3400FA7B019001CBE0FD121AA5
:1012200080900132E024F7F09001CEE02409F080B4
:101230009E9001327401F0900001E0B4010F7F3CF8
:101240007E00121BB243881043870180EA900001A0
:101250007401F07F3C7E00121BB243881090000A9C
:10126000E0FF30E61BA3E0FE6421602AEE64246008
:1012700025EE64276020EE6429601BEE6401601691
:10128000EF703890000BE054F0FF64206008EF64CA
:10129000306003BF40257F147E001220F39001CF01
:1012A000740FF07B017A0179CF1219F39001CF749A
:1012B00014F07B017A0179CF1219F3900001E0FF5D
:1012C000640160F7EFB4FF1A900006E07BFF700640
:1012D0007A21796680047A21796B121FF312219D9D
:1012E0008031900001E0B402127F5B1221467F7AC8
:1012F0001221467F5D1221467F0022900001E0709E
:10130000127F5B1221467F691221467F5D122146C2
:081310007F012253A8FE7F01BA
:0113180022B2
:102026004901700C00030410002101004C01640FEB
:1020360000030418002108FFFF000048015C0B00A4
:062046000304180020084D
:101C9A00E4FF74702FF582E43401F583E0FE7405E5
:101CAA002FF582E43400F583EEF00FEFB409E390E8
:101CBA000005E024F8FF9001FBF0FD7B017A007932
:101CCA000A121930E4FF745C2FF582E43401F583BB
:101CDA00E0FE74052FF582E43400F583EEF00FEF91
:101CEA00B409E3900005E024F8FF9001FBF0FD7BC6
:0F1CFA00017A007905E49001CCF0A3F002114BC0
:101C2800E49001B1F0A37421F0A37401F0A304F0CF
:101C38007B017A0179B17D041219307F057E00128B
:101C480020F39000027406F09001B17404F07B0157
:101C58007A0179B1E4FD120A6DE49001B1F0A304B0
:101C6800F0FB7A0179B17D021219307F017E0012F2
:101C780020F39001B1740CF0A304F07B017A017990
:101C8800B17D02121675121C9A7F0A7E001220F38B
:021C9800808E3C
:05204C004201EC0080E0
:0E19300090018FEBF0A3EAF0A3E9F0A3EDF035
:10193E005380F75380FE900192E0D394005003023F
:10194E0019D490018FE0FBA3E0FAA3E0F91213196A
:10195E00541F121381E4900193F0900193E0C3940D
:10196E000250D3E4A3F090018FE0FBA3E0FAA3E0D2
:10197E00F9121319FF9001ECE0FCA3E0FDED5F609E
:10198E000543800480035380FB4380015380FEECAB
:10199E00C313FFED139001ECCFF0A3EFF090019481
:1019AE00E004F0E0B408BF9001ECE4F0A37480F022
:1019BE00900190E475F0011213C7900192E014F0BB
:0919CE00A3E004F08094438008BA
:0119D70022ED
:0E1A80009001DEEBF0A3EAF0A3E9F0A3EDF095
:101A8E005380F75380FE9001DEE0FBA3E0FAA3E063
:101A9E00F912131944201213819001DEE0FBA3E02A
:101AAE00FAA3E0F9121319543F1213819001E1E0E9
:101ABE00D39400405FE4A3F09001DEE0FBA3E0FAD4
:101ACE00A3E0F9121319FF9001ECE0FCA3E0FDED89
:101ADE005F600543800480035380FB438001538085
:101AEE00FEECC313FFED139001ECCFF0A3EFF090DB
:101AFE0001E2E004F0E0B408BF9001ECE4F0A3745E
:101B0E0080F09001DFE475F0011213C79001E1E05F
:071B1E0014F08098438008D9
:011B2500229D
:10176800741C12138190017DE0FBA3E0FAA3E0F959
:021778007D01F1
:0E177A00900181EBF0A3EAF0A3E9F0A3EDF0FB
:101788005380F7900184E0D39400500302186D90C1
:101798000181E0FBA3E0FAA3E0F912131944401217
:1017A8001381900181E0FBA3E0FAA3E0F912131979
:1017B800545F121381E4900185F0900181E0FBA34E
:1017C800E0FAA3E0F9121319FF9001ECE0FCA3E0A2
:1017D800FDED5F600543800480035380FB43800177
:1017E8005380FEECC313FFED139001ECCFF0A3EF91
:1017F800F0900185E004F0E0B408BF9001ECE4F05B
:10180800A37480F0900181E0FBA3E0FAA3E0F9E47F
:10181800121381900185F0900181E0FBA3E0FAA307
:10182800E0F912131925E01213814380015380FE59
:10183800E58030E113900181E0FBA3E0FAA3E0F931
:101848001213194401121381900185E004F0E0B4E9
:1018580008C5900182E475F0011213C7900184E075
:0818680014F002178B43800805
:011870002255
:1016500090017DE0FBA3E0FAA3E0F9740C12138182
:1016600090017DE0FBA3E0FAA3E0F9900001740D86
:051670001213937D023E
:0E167500900188EBF0A3EAF0A3E9F0A3EDF0FA
:101683005380F7900188E0FBA3E0FAA3E0F912137B
:10169300194460121381900188E0FBA3E0FAA3E0F0
:1016A300F9121319547F121381E490018CF0900105
:1016B30088E0FBA3E0FAA3E0F9121319FF9001EC11
:1016C300E0FCA3E0FDED5F600543800480035380ED
:1016D300FB4380015380FEECC313FFED139001EC39
:1016E300CFF0A3EFF090018CE004F0E0B408BF90DA
:1016F30001ECE4F0A37480F090018BE0D3940040FC
:1017030060900188E0FBA3E0FAA3E0F9E4121381FF
:1017130090018CF0900188E0FBA3E0FAA3E0F912BA
:10172300131925E01213814380015380FEE58030B5
:10173300E113900188E0FBA3E0FAA3E0F912131987
:10174300440112138190018CE004F0E0B408C590C9
:101753000189E475F0011213C790018BE014F08046
:041763009743800820
:01176700225F
:1019D80090017DE0FBA3E0FAA3E0F9740F121381F4
:0B19E80090017DE0FBA3E0FAA3E0F912
:0B19F300900181EBF0A3EAF0A3E9F003
:1019FE005380F7900181E0FBA3E0FAA3E0F9121304
:101A0E00194480121381900181E0FBA3E0FAA3E058
:101A1E00F9121319549F121381E4900184F090016E
:101A2E0081E0FBA3E0FAA3E0F9121319FF9001EC99
:101A3E00E0FCA3E0FDED5F6005438004800353806E
:101A4E00FB4380015380FEECC313FFED139001ECBA
:101A5E00CFF0A3EFF0900184E004F0E0B408BF9063
:101A6E0001ECE4F0A37480F04380015380FE4380C8
:011A7E00085F
:011A7F002244
:051E48009001F7EDF030
:101E4D005380F79001F7E0D394004051E4A3F012D2
:101E5D001319FF9001ECE0FCA3E0FDED5F6005437D
:101E6D00800480035380FB4380015380FEECC31339
:101E7D00FFED139001ECCFF0A3EFF09001F8E0042B
:101E8D00F0E0B408CA9001ECE4F0A37480F07401A2
:101E9D0029F9E43AFA9001F7E014F080A64380089E
:011EAD002212
:10000E0090018D7409F0A37431F07B017A01798D22
:05001E007D0202193013
:0B06C20090017DEBF0A3EAF0A3E9F04B
:1006CD00121319FFB4A003020A47EFB48007E49098
:1006DD0000010209C090017DE0FBA3E0FAA3E0F95F
:1006ED0012131930E16F9000017402F07416121993
:1006FD00E5900003740EF07B017A0079037D011201
:10070D00177A900003E024E0900180F0540F60040C
:10071D00E02410F0900180E0FFC4540FF06033909E
:10072D000132E0FF3395E0FE74052FF58274003E33
:10073D00F583741FF074052FF974003EFA7B019058
:10074D000180E0FD121675900180E0FF900132E00E
:10075D002FF0020A6390017DE0FBA3E0FAA3E0F91C
:10076D001213196440600302087A900004E0B40289
:10077D00030209F190017DE0FBA3E0FAA3E0F91279
:10078D00176890017DE0FBA3E0FAA3E0F9121319BD
:10079D00540F04121381900132E0FF3395E0FE7483
:1007AD00052FF58274003EF583741FF074052FF943
:1007BD0074003EFA7B01C003C002C00190017DE0D0
:1007CD00FBA3E0FAA3E0F9121319FDD001D002D07A
:1007DD000312167590017DE0FBA3E0FAA3E0F91278
:1007ED001319FF900132E02FF0741E121381900146
:1007FD007DE0FBA3E0FAA3E0F97D011216759001EF
:10080D007DE0FBA3E0FAA3E0F9121319FF30E057E6
:10081D00EFC313540712138190017DE0FBA3E0FA9F
:10082D00A3E0F9121319FFC374089F1213819001ED
:10083D0032E0FF3395E0FE74042FF58274003EF52F
:10084D0083C083C082E0FF90017DE0FBA3E0FAA3AB
:10085D00E0F9121319FE74FFA806088002C333D8FD
:10086D00FC5FD082D083F01219D8020A0990017D65
:10087D00E0FBA3E0FAA3E0F9121319646060030230
:10088D000A1090000104F0900132E0FF3395E0FE74
:10089D0074052FF58274003EF583741FF074052FD7
:1008AD00F974003EFA7B017D09121675900132E054
:1008BD002409F0E58020E7030209F612165053884B
:1008CD00FD90017DE0FBA3E0FAA3E0F9121319649A
:1008DD004060030209DF12176890017DE0FBA3E081
:1008ED00FAA3E0F912131904540F12138190013277
:1008FD00E0FF3395E0FE74052FF58274003EF5831D
:10090D00741FF074052FF974003EFA7B01C003C00B
:10091D0002C00190017DE0FBA3E0FAA3E0F9121300
:10092D0019FDD001D002D00312167590017DE0FBA8
:10093D00A3E0FAA3E0F9121319FF900132E02FF0B2
:10094D00741E12176A90017DE0FBA3E0FAA3E0F993
:10095D00121319FF30E057EFC31354071213819090
:10096D00017DE0FBA3E0FAA3E0F9121319FFC374B4
:10097D00089F121381900132E0FF3395E0FE74045D
:10098D002FF58274003EF583C083C082E0FF900195
:10099D007DE0FBA3E0FAA3E0F9121319FE74FFA8A2
:1009AD0006088002C333D8FC5FD082D083F090005C
:1009BD000174FFF090017DE0FBA3E0FAA3E0F97470
:1009CD000F12138190017DE0FBA3E0FAA3E0F90281
:1009DD0019F390017DE0FBA3E0FAA3E0F9121319DE
:1009ED006450707B900001804912165090017DE09B
:1009FD00FBA3E0FAA3E0F9121319706390000174E0
:100A0D00FFF02290017DE0FBA3E0FAA3E0F91213C1
:100A1D0019FF30E40A90000130E502800C8013EFDD
:100A2D0030E21390000130E5097401F090000404E8
:100A3D00F0227402F022EFB40106E4900001F022DE
:100A4D009000017402F090017DE0FBA3E0FAA3E0B9
:0F0A5D00F974161219E51219D81216505388FDA4
:010A6C002267
:03000300021D7566
:101D7500C0E0C0F0C083C082C0D075D000C000C034
:0D1D850001C002C003C004C005C006C007B5
:101D92005388EF5388FD900179740CF0A304F07B13
:101DA200017A0179797D02121675900179E064A0B9
:101DB200600E7B017A0179791206C2E58020E7D3B1
:031DC20075870022
:101DC500D007D006D005D004D003D002D001D00072
:0B1DD500D0D0D082D083D0F0D0E0321C
:0721A70043880143E40F220D
:1020F300D3EF9400EE940040147D107C27ED1D7007
:0D210300011CED4C70F7EF1F70E61E80E32D
:0121100022AC
:101BB2009001F9EEF0A3EFF0C28D5389F043890151
:101BC200538EFCD2A9C28C9001F9E0FEA3E0FF7C07
:101BD200037DE81213B5AA06EA3395E0F9F8C37457
:101BE200FF9FFF74FF9AFEE499FDE498FC780812C7
:101BF20013F38F8C9001F9E0FEA3E0FF7C037DE8F4
:101C02001213B5AA06EA3395E0F9F8C374FF9FFFF1
:101C120074FF9AFEE499FDE498FCE4FB7A01F9F87A
:061C2200121FAF8F8A22A1
:1020D300E4FFFE75B28375B9800FBF00010EEF6494
:0F20E300144E70F543B9C0E5B930E5FBE4F5A93B
:0120F20022CB
:03000B00021D09CA
:101D0900C0E0C0F0C083C082C0D075D000C000C0A0
:0D1D190001C002C003C004C005C006C00721
:101D26005388EF900186740CF0A304F07B017A01CE
:101D360079867D02121675900186E054F7F06004EC
:101D4600E0B48007900001E4F08006900001740181
:041D5600F07587009D
:101D5A00D007D006D005D004D003D002D001D000DD
:0B1D6A00D0D0D082D083D0F0D0E03287
:042051004101F20156
:0A21930075A41075E10175E2402209
:10212C00439810758DCC538EF4438E08858D8B534C
:0A213C00890F438920D28ED2992228
:10214600EFB40A083099FDC29975990D3099FDC210
:08215600998F99AF997E0022D8
:0A219D007F0D1221467F0A02214641
:101FF3009001EFEBF0A3EAF0A3E9F09001EFE0FB2F
:10200300A3E0FAA3E0F912131960179001EFA3E418
:1020130075F0011213DDA9F0FA121319FF1221460C
:0320230080D9223F
:10217200AE07EFD39409400474072EFE74302EFF8D
:01218200223A
:02211100AD0718
:10211300EDC4540FFF122172AE07122146ED540F86
:09212300FF122172AE07022146F1
:101F0F007D01ED604F438701900000E0C364809432
:101F1F00E14004E024E0F0900000E0FFC36480940F
:101F2F00B04008D3EF648094B94010C3EF6480943D
:101F3F00C140CFD3EF648094C650C7E4FD12214651
:101F4F00900000E0FFD3648094B940B6EF540F24A3
:091F5F0009F080AE900000E0FFE3
:011F68002256
:0B14D500900195E0FF7B017A00790692
:0E14E0009001D8EFF0A3EBF0A3EAF0A3E9F03F
:1014EE00E49001DDF090003704F0A37408F07B0166
:1014FE007A0079377D02121930E49001DCF0900108
:10150E00D9E0FBA3E0FAA3E0F9A3E0FFF58275832F
:10151E0000121332FE740C2FF582E43400F583EEC4
:10152E00F09001DCE004F0E0B405D3900005748F78
:10153E00F0A37491F0A3743DF0E4A3F0A37470F0E3
:10154E009001D8E090000AF0A37470F07B017A004D
:10155E0079057D0C121E489000017401F090013245
:10156E00F0900001E0640160F87401F07F0A7E00E3
:10157E00121BB2438810900001E0FF640160F7EF88
:10158E00F4600302162A900006E030E2487F28122B
:10159E0021469001DC7401F0900132E0FF3395E0BA
:1015AE00FE9001DCE0FDC39FEE6480F874809850DD
:1015BE001774052DF582E43400F583E0FF12211136
:1015CE009001DCE004F080D07F291221469001DDED
:1015DE007401F080677F5B1221469001DC7401F08C
:1015EE00900132E0FF3395E0FE9001DCE0FDC39FF9
:1015FE00EE6480F8748098501774052DF582E434EB
:10160E0000F583E0FF1221119001DCE004F080D0A0
:10161E007F5D122146E49001DDF08020900001E014
:10162E00B402097F5B1221467F7A8008900001E0A8
:10163E00700A7F5B1221467F5D1221469001DDE02C
:01164E00FF9C
:01164F002278
:10002600900195EFF0A3EDF0A3EBF0A3EAF0A3E9BE
:01003600F0D9
:10003700E490019FF0A3F0A3F0A3F090003704F041
:10004700A37488F07B017A0079377D02121930E4B6
:10005700900004F0900003F0900196E0FFC4540F65
:10006700FE2405FDEF540F602C0DEE24FE9001A039
:10007700F0EF5407FFE490019AF090019AE0C39FD4
:1000870050139001A1E0FE25E0F0E004F090019A02
:10009700E004F080E5900005748FF0900196E09001
:1000A7000006B470057491F080037490F090000717
:1000B700743DF0E4A3F0900196E0FF54F09000093E
:1000C700F0EF5407FF600AE0FEEF25E004FFEE4F74
:1000D700F0900195E090000AF0900196E090000BF7
:1000E700F0900197E0FBA3E0FAA3E0F9121319904F
:1000F700000CF090000112133290000DF0900002F6
:1001070012133290000EF090000312133290000F7A
:10011700F07B017A007905121E489001327401F0D4
:10012700900001F0900001E0600F7F0A7E00121B33
:10013700B243881043870180EB9000017401F0E41B
:1001470090019AF0900001E0B4011B90019AE0C37E
:1001570094025012E004F07F0A7E00121BB243881B
:100167001043870180DE900004E0B402069000018E
:100177007402F0900001E0F4600302060A7F28127F
:10018700214690019A7401F090019AE0FFC394060A
:10019700501774052FF582E43400F583E0FF122130
:1001A7001190019AE004F080DF7F29122146900127
:1001B70095E0246B700302047124FE700302054A64
:1001C7002404600302062F900006E06488601590FF
:1001D7000197E0FBA3E0FAA3E0F912131964886022
:1001E700030203549001A0E0D3940050030202C31A
:1001F700E490019AF090019AE0FFC394044003024F
:1002070003119001A0E014FEEFC39E502B900197BD
:10021700E0FBA3E0FAA3E0F9A3E0FD7C00E92DF9F8
:10022700EC3AFA900001121332FD74A32FF582E421
:100237003401F583EDF0807B90019AE0FF6E704A00
:10024700900197E0FBA3E0FAA3E07E002FF9EE3AD6
:10025700FA900001121332FF9001A1E05FFF9001B5
:10026700A0E0FD90019AE0F9C39DFDE49400FC74C1
:10027700072DF58274003CF583E0FE9001A1E0F4C0
:10028700FDEE5D4FFF74A32980209001A0E0FF9051
:10029700019AE0FDC39FFFE49400FE74072FF582E7
:1002A70074003EF583E0FF74A32DF582E43401F575
:1002B70083EFF090019AE004F00201FC900197E0CF
:1002C700FBA3E0FAA3E0F9121319FF9001A1E0FEE6
:1002D7005FFFEEF4FE900007E05E4F9001A3F0E4AD
:1002E70090019AF090019AE0FF2408F582E4340027
:1002F700F583E0FE74A42FF582E43401F583EEF074
:1003070090019AE004F0E0B404DA9000067488F0F3
:10031700E490019AF090019AE0FF24A3F582E43477
:1003270001F583E0FE74072FF582E43400F583EED0
:10033700F090019AE004F0E0B404DA1214D59001C9
:10034700967420F090019F7401F00204687F5B129D
:1003570021469001A0E0D39400500302041A7F6263
:10036700122146E490019AF090019AE0FFC39404A9
:1003770040030204639001A0E014FEEFC39E501BEC
:10038700900197E0FBA3E0FAA3E0F97E00E92FF9DB
:10039700EE3AFA900001121332806B9001A0E0FF51
:1003A7001490019AF06044900197E0FBA3E0FAA350
:1003B700E0F9A3E0FD7C00E92DF9EC3AFA900001A1
:1003C700121332FE9001A1E0F95EFEEFFD90019A53
:1003D700E0C39DFDE49CFC74072DF58274003CF599
:1003E70083E0FFE9F4FDEF5D4E801B9001A0E0FF85
:1003F70090019AE0C39FFFE49400FE74072FF582F3
:1004070074003EF583E0FF12211190019AE004F099
:1004170002036F900197E0FBA3E0FAA3E0F9121340
:1004270019FF9001A1E0FE5FFFEEF4FE900006E0E9
:100437005E4FFF122111E490019AF090019AE0FFBC
:10044700C39404501774072FF582E43400F583E052
:10045700FF12211190019AE004F080DF7F5D1221E5
:10046700469001957495F002062F900006E0648887
:10047700703690019AF090019AE0FF2407F582E424
:100487003400F583E0FE74A72FF582E43401F58389
:10049700EEF090019AE004F0E0B404DA1214D5907B
:1004A700019F7401F0020541E490019AF090019ACE
:1004B700E0FF2406F582E43400F583E0FE74A72FFD
:1004C700F582E43401F583EEF090019AE004F0E060
:1004D700B405DA7F5B122146E490019AF090019A05
:1004E700E0FFC39403501774A32FF582E43401F59A
:1004F70083E0FF12211190019AE004F080DF900160
:10050700A6E0FF12211190019A7404F090019AE07D
:10051700FFC39408501774A32FF582E43401F583C1
:10052700E0FF12211190019AE004F080DF9001AB07
:10053700E0FF1221117F5D1221469001957497F01B
:1005470002062FE490019AF090019AE0FF2406F545
:1005570082E43400F583E0FE74AB2FF582E43401C6
:10056700F583EEF090019AE004F0E0B405DA7F5BE2
:10057700122146E490019AF090019AE0FFC3940398
:10058700501774A32FF582E43401F583E0FF12219D
:100597001190019AE004F080DF9001A6E0FF12219C
:1005A7001190019A7404F090019AE0FFC3940750E8
:1005B7001774A32FF582E43401F583E0FF122111AC
:1005C70090019AE004F080DF9001AAE0FF12211168
:1005D70090019A7408F090019AE0FFC3940C5017A9
:1005E70074A32FF582E43401F583E0FF1221119003
:1005F700019AE004F080DF9001AFE0FF1221117F44
:100607005D8022900001E0B4020E7F281221467F10
:100617007A1221467F29800D900001E0700A7F2819
:100627001221467F29122146900001E06402705D85
:10063700900003E004F090019A7401F090019AE0B1
:10064700FF2405F582E43400F583E0FE749A2FF564
:1006570082E43401F583EEF090019AE004F0E0B40F
:1006670005DA7F787E00121BB24388109000017470
:1006770001F0900001E0640160F8900195E0FF90BF
:100687000003E0FD7B017A01799B12002690019F10
:10069700E0601A900195E0FFA3E0FDA3E0FBA3E073
:1006A700FAA3E0F91200269001A27401F09001A2CA
:0A06B700E0600475A0FB2275A004AA
:0106C1002216
:051871009001E8EFF01A
:10187600A37493F0A37420F0A37407F0900005748A
:1018860009F0A37421F07B017A0079057D02121913
:10189600309000057407F0A3740EF07B017A00798E
:1018A600057D021219309000057401F0A37488F0CA
:1018B6007B017A0079057D021219309001E8E090EB
:1018C600000A60057426F080037452F07B017A00EA
:1018D60079059001CC740FF0A37401F0E4FD1211A8
:1018E6004B900001E0FFF46005EF640270207F0575
:1018F60090002DE4F0A3DFFC9001E9E0FFA3E0FDFA
:101906007B017A00792D12002675A0FB800375A055
:10191600049000057401F0A37408F07B017A007945
:09192600057D0212193053A8FEE0
:01192F002295
:0E0D83009001BDEBF0A3EAF0A3E9F0A3EDF0C0
:100D9100A3E0FFC4540F2408FEEF540F2408900170
:100DA100C5F0A37401F0AF06A3EFF07B017A0179DE
:100DB100C67D021219309001C0E0900132F090011D
:100DC100BDE0FBA3E0FAA3E0F9748F121381900157
:100DD100BDE0FBA3E0FAA3E0F990000174911213C6
:100DE10093900002743D121393900132E0FF780456
:100DF100A2E713D8FB900003121393EFC454F090B1
:100E010000041213939001C0E0D3940C4003740CBE
:100E1100F09001BDE0FBA3E0FAA3E0F9A3E0240513
:100E2100FD121E485388FD43A801900132E024F4CD
:100E3100F09001C27412F09000017401F09001323F
:100E4100E0FFD3648094804056438701D3EF6480F0
:100E5100948940089001C0740AF0800EC3EF648049
:100E61009481403BEF049001C0F09001C2E0FF2467
:100E710004F582E43400F583741FF07E0074042FBE
:100E8100F9EE3400FA7B019001C0E0FD121A809066
:100E91000132E024F7F09001C2E02409F0809E9035
:100EA10001327401F0900001E0640160F89001C624
:100EB1007401F09001C5E09001C7F07B017A0179DE
:100EC100C67D021219309001C47416F07B017A01BB
:100ED10079C41219F39001C47417F07B017A017976
:100EE100C41219F39000017401F07F3C7E00121BC3
:100EF100B2438810900001E0FF640160F7EFF470E5
:100F01003B7F5B1221469001C37401F0900132E0F6
:100F1100FF3395E0FE9001C3E0FDC39FEE6480F8CE
:100F2100748098502874052DF582E43400F583E02F
:100F3100FF1221119001C3E004F080D0900001E084
:100F4100B402127F5B1221467F7A1221467F5D1225
:100F510021467F0022900001E0700D7F5B12214647
:0D0F61007F5D1221467F012253A8FE7F0113
:010F6E002260
:101DE0009001FCEFF0900005748FF0A37491F0A3C4
:101DF000743DF0E4A3F0A37410F07B017A00790540
:101E00007D05121E4890000A743FF09001FCE0FF2F
:101E1000C454F0440590000BF0E4A3F090000104DA
:101E2000F0FB7A00790A7D03121E485388FD43A80F
:101E300001900001E0B4010F7F287E00121BB24325
:081E4000881043870180EA22AB
:080F6F009001D0EFF0A3EDF0BA
:100F7700E49001D3F09001D5F0A3F0A3F090000521
:100F87007409F0A37431F07B017A0079057D0212B0
:100F97001930E4900004F0900005748FF0A3749169
:100FA700F0A3743DF0E4A3F0A37430F0A37405F04C
:100FB700E4A3F09001D1E0B4040A12208590000C5C
:100FC700E04408F09001D1E090000CF09001D0E0EF
:100FD700B4B10790000CE04408F09000017401F0F0
:100FE700FB7A0079057D08121E485388FD43A80146
:100FF700E49001D4F0900001E0B4011B9001D4E02B
:10100700C394025012E004F07F147E00121BB24317
:10101700881043870180DE9000017401F07F147E01
:1010270000121BB24388109001D27401F090013274
:101037007401F0438701900001E0B401239001D7C8
:10104700E004F070069001D6E004F09001D6E0B419
:10105700FFE4A3E0B4F0DFE4900001F0900004F0B7
:10106700900004E0B40204900001F0900001E0F465
:10107700703B7F5B1221469001D47401F0900132DE
:10108700E0FF3395E0FE9001D4E0FDC39FEE64805E
:10109700F8748098504574052DF582E43400F58383
:1010A700E0FF1221119001D4E004F080D0900001FC
:1010B700E0B402177F5B1221467F7A1221467F5DDB
:1010C7001221469001D37401F08015900001E07061
:1010D7000F7F5B1221467F431221467F5D12214617
:1010E7009001D1E0FF60306401602CEF640260275B
:1010F700EFB40406A3E06410601D9001D2E0FF1274
:101107001DE09000017401F09001D2E004F0E0C30B
:10111700941150030210349001D1E0B4040312205B
:10112700AC53A8FE9001D5E0600575A0FB80037560
:10113700A0049001D3E060057F641221467D027F01
:0411470020020F6F04
:10205600E49001E7F0900000E09001E6F09001E5E1
:10206600F09001E4F09001E3F0C200900000E0B4CB
:0E2076001103121C289001E7E070033000ED0A
:012084002239
:101EAE0053D9BFE4F5D91220D31221931200001298
:101EBE00212CD2AFD2AC43AE0853C7F77F017E00C0
:101ECE001220F343C7087F017E001220F343F180F6
:101EDE001221A743A40843800843A40443F10243FC
:101EEE00A40153C7F77F017E001220F343C7087F7A
:101EFE00017E001220F312000E43A88043F50480E9
:011F0E00FED4
:03002300021F6950
:101F6900C0E0C0F0C083C082C0D075D000C000C03E
:0D1F790001C002C003C004C005C006C007BF
:0E1F8600209909C298AF991221838002C29956
:101F9400D007D006D005D004D003D002D001D000A1
:0B1FA400D0D0D082D083D0F0D0E0324B
:10218300C2ACC2AF8F993099FDC299D2ACD2AF2203
:03000000021B26BA
:0C1B2600787FE4F6D8FD758107021B6D86
:10131900BB010689828A83E0225002E722BBFE02D2
:09132900E32289828A83E4932205
:10133200BB010CE58229F582E5833AF583E0225070
:1013420006E92582F8E622BBFE06E92582F8E222BA
:0D135200E58229F582E5833AF583E49322D4
:10135F00BB010989828A83F8E028F022500327F71E
:10136F0022BBFE05F8E328F3228A838982F8E493EF
:02137F00282222
:10138100BB010689828A83F0225002F722BBFE014B
:02139100F32245
:10139300F8BB010DE58229F582E5833AF583E8F090
:1013A300225006E92582C8F622BBFE05E92582C83C
:0213B300F22224
:1013B500EF8DF0A4A8F0CF8CF0A428CE8DF0A42E4C
:0213C500FE2206
:1013C700C5F0F8A3E028F0C5F0F8E58215827002B1
:0613D7001583E038F0224E
:1013DD00A3F8E0C5F025F0F0E582158270021583C3
:0613ED00E0C838F0E82220
:101FAF00C2D5E830E70FB2D5E4C39BFBE49AFAE45D
:101FBF0099F9E498F8EC30E717B2D5121FE512142F
:101FCF0043E4C39BFBE49AFAE499F9E498F880039D
:101FDF0012144330D50DE4C39FFFE49EFEE49DFD34
:041FEF00E49CFC2250
:1013F300E86010ECA2E713FCED13FDEE13FEEF1310
:04140300FFD8F022FC
:101B3200021EAEE493A3F8E493A34003F68001F2FD
:101B420008DFF48029E493A3F85407240CC8C333B4
:101B5200C4540F4420C8834004F456800146F6DF83
:101B6200E4800B0102040810204080902026E47ECD
:101B7200019360BCA3FF543F30E509541FFEE49378
:101B8200A360010ECF54C025E060A840B8E493A33F
:101B9200FAE493A3F8E493A3C8C582C8CAC583CA6A
:101BA200F0A3C8C582C8CAC583CADFE9DEE780BE22
:01205500008A
:1014070075F008758200EF2FFFEE33FECD33CDCC9C
:1014170033CCC58233C5829BED9AEC99E58298401F
:101427000CF582EE9BFEED9AFDEC99FC0FD5F0D6FC
:10143700E4CEFBE4CDFAE4CCF9A88222B800C1B926
:101447000059BA002DEC8BF084CFCECDFCE5F0CB64
:10145700F97818EF2FFFEE33FEED33FDEC33FCEB9D
:1014670033FB10D703994004EB99FB0FD8E5E4F958
:10147700FA227818EF2FFFEE33FEED33FDEC33FC45
:10148700C933C910D7059BE99A4007EC9BFCE99A39
:10149700F90FD8E0E4C9FAE4CCFB2275F010EF2F7E
:1014A700FFEE33FEED33FDCC33CCC833C810D7077E
:1014B7009BEC9AE899400AED9BFDEC9AFCE899F8B9
:0E14C7000FD5F0DAE4CDFBE4CCFAE4C8F9224C
:00000001FF
