:0C21D6006F6A626B0073686962616900E7
:1020DC0090002E740DF090002DF07B017A00792E7B
:1020EC007D011217BD90002EE04401F07B017A00B7
:0720FC00792D7D020219603D
:1021030090002E740DF090002DF07B017A00792E53
:102113007D011217BD90002EE054FEF07B017A0082
:07212300792D7D0202196015
:0E0A6D009001A4EBF0A3EAF0A3E9F0A3EDF0F2
:100A7B00A37401F0A37403F0E49001CBF0A3F09006
:100A8B0000057409F0A37421F07B017A0079057DD0
:100A9B0002121960900002E090000520E108740733
:100AAB00F0A3742F80067407F0A37413F07B017A04
:100ABB000079057D02121960E49001B0F0900002FC
:100ACB00E09001AC20E5087411F01220DC80037477
:100ADB0002F09001AD7401F0A37401F0A374B0F0B7
:100AEB009001A7E0FD1313543F2401FFE433A2E769
:100AFB0013EF139001CAF02403FFE433AB07FA9012
:100B0B000005748FF0A37491F0A3743DF0EAFFA37A
:100B1B00EFF0FEAF03EFC4F8540FC868FFA3EFF07C
:100B2B00900002E090000AF0A37401F0A3EDF090A6
:100B3B0001A7D394004039E4A3F09001CAE0FF90E1
:100B4B0001A8E0FEC39F50289001A4E0FBA3E0FAAC
:100B5B00A3E0F98E82758300121375FF740D2EF5C9
:100B6B0082E43400F583EFF09001A8E004F080CA32
:100B7B009001AA740CF0A304F07B017A0179AA7D91
:100B8B00021216B87F147E00121C5F5388FD43A817
:100B9B00017B017A0079059001CAE02408FD121E41
:100BAB00EC9000017401F04388104387019001A879
:100BBB00F09001ACE0FF9001A8E0C39F4003020C52
:100BCB00C89001327401F07F147E00121C5F4388C1
:100BDB0010E49001CBF0A3F0438701900001E0B447
:100BEB0001239001CCE004F070069001CBE004F0FF
:100BFB009001CBE0B4FFE4A3E0B4F0DFE49000019C
:100C0B00F0900004F09001AA740FF07B017A017947
:100C1B00AA7D011217BD900001E0B4FF2D75A0FB5A
:100C2B009001A9740AF09001A9E0FFC39403401747
:100C3B0074052FF582E43400F583E0FF12216890F0
:100C4B0001A9E014F080DF75A0049001AA740FF0E5
:100C5B007B017A0179AA121A239001ACE06411701E
:100C6B00389001A8E0C39410502F9001AA7416F08D
:100C7B007B017A0179AA121A239001AA7417F07BCF
:100C8B00017A0179AA121A239001AA7414F07B013C
:100C9B007A0179AA121A23801B9001ACE0B4110CD3
:100CAB009001A8E0B4100512210380089001ACE07C
:100CBB00640260099001A8E004F0020BBC9001A74C
:100CCB00E024049001C9F0E01313543F2401FFE426
:100CDB0033A2E713EF1314A3F09001ADE0FBA3E0F5
:100CEB00FAA3E0F912135C7003020D9A9001ACE0C9
:100CFB0064116003020D9A74FF1213A2E49001A811
:100D0B00F09001A4E0FBA3E0FAA3E0F99001A8E0C6
:100D1B00FFF582758300121375FE74C12FF582E403
:100D2B003401F583EEF09001A8E004F0E0B408D1B3
:100D3B009001C9E020E2149001ADE0FBA3E0FAA31F
:100D4B00E0F912135CC454F01213C49001CAE024EE
:100D5B00C1F582E43401F583C083C082E0FF9001CA
:100D6B00ADE0FBA3E0FAA3E0F912135CFEEF4ED06B
:100D7B0082D083F07B017A0179C19001C9E0FD1229
:100D8B000A6D9001AE74FFF5F012140A020CE453D5
:020D9B00A8FEB0
:010D9D002233
:050D9E009001F7EDF0EB
:100DA300900132F0748F1213C49001F9E0900001A6
:100DB30060047490800274911213D6900002743D03
:100DC3001213D6900132E0FF7804A2E713D8FB9008
:100DD30000031213D6EFC454F0FF9001F8E0FE4F66
:100DE3009000041213D69001F7E0D3940C400374DF
:100DF3000CF09001F7E0700AEE60077401F09001C7
:100E030032F09001F7E02405FD121EEC5388FD43F8
:100E1300A801900132E024F4F09001FA7411F090EB
:100E230000017401F0900132E0FFD36480948040AC
:100E330056438701D3EF6480948940089001F77487
:100E43000AF0800EC3EF64809481403BEF0490016D
:100E5300F7F09001FAE0FF2404F582E43400F5830F
:100E6300741FF07E0074042FF9EE3400FA7B0190B6
:100E730001F7E0FD121AB0900132E024F7F090017F
:100E8300FAE02409F0809E9001327401F090000191
:100E9300E0B4010F7F3C7E00121C5F438810438740
:100EA3000180EA9000017401F07F3C7E00121C5F18
:100EB30043881090000AE0FF30E616A3E0FE6421A9
:100EC3006025EE64246020EE6427601BEE642960D5
:100ED30016EF703890000BE054F0FF64206008EFC9
:100EE30064306003BF40257F147E0012214A9001C5
:100EF300FB740FF07B017A0179FB121A239001FB3B
:100F03007414F07B017A0179FB121A23900001E03B
:100F1300FF640160F7EFB4FF1A900006E07BFF70F7
:100F2300067A2179D680047A2179DB1220A912214D
:100F3300EC8022900001E0B402127F5B12219D7FBE
:100F43007A12219D7F5D12219D7F0022900001E096
:100F530070037F01229001FC7401F0900132E0FFE5
:100F63003395E0FE9001FCE0FDC39FEE6480F874CE
:100F73008098501774052DF582E43400F583E0FF63
:100F83001221689001FCE004F080D01221EC53A8F8
:030F9300FE7F01DD
:010F96002238
:101FAF004901670C00030410002101004C013B0F95
:101FBF0000030418002108FFFF00004801330B0045
:101FCF000304180020084801570B000304180027CA
:101FDF000148015F0B000304184029EE4701470A2F
:101FEF0000030418002B49014E0C00030418002CA9
:021FFF000101DE
:101CD500E4FF74672FF582E43401F583E0FE7405B3
:101CE5002FF582E43400F583EEF00FEFB409E390AD
:101CF5000005E024F8FF900212F0FD7B017A0079DF
:101D05000A121960E4FF74332FF582E43401F58378
:101D1500E0FE74052FF582E43400F583EEF00FEF55
:101D2500B409E3900005E024F8FF900212F0FD7B72
:0F1D3500017A007905E49001F8F0A3F0020D9E09
:101E8600E490018CF0A37421F07B017A01798C7DBA
:101E96000212196090018C7401F0A3740CF07B019E
:101EA6007A01798C7D021219607F057E0012214A23
:101EB6007D047FB0121183E490018CF0A304F0FB43
:101EC6007A01798C7D021219607F017E0012214A07
:101ED60090018C740CF0A304F07B017A01798C7D5F
:061EE600021216B8809AFA
:0520010042020800800E
:0E19600090019EEBF0A3EAF0A3E9F0A3EDF0F6
:10196E005380F75380FE9001A1E0D3940050030200
:10197E001A0490019EE0FBA3E0FAA3E0F912135CB7
:10198E00541F1213C4E49001A2F09001A2E0C3947C
:10199E000250D3E4A3F090019EE0FBA3E0FAA3E093
:1019AE00F912135CFF900208E0FCA3E0FDED5F600E
:1019BE000543800480035380FB4380015380FEEC7B
:1019CE00C313FFED13900208CFF0A3EFF09001A325
:1019DE00E004F0E0B408BF900208E4F0A37480F0D5
:1019EE0090019FE475F00112140A9001A1E014F029
:0919FE00A3E004F080944380088A
:011A070022BC
:0E1AB000900203EBF0A3EAF0A3E9F0A3EDF03F
:101ABE005380F75380FE900203E0FBA3E0FAA3E00D
:101ACE00F912135C44201213C4900203E0FBA3E04E
:101ADE00FAA3E0F912135C543F1213C4900206E00D
:101AEE00D39400405FE4A3F0900203E0FBA3E0FA7E
:101AFE00A3E0F912135CFF900208E0FCA3E0FDEDF9
:101B0E005F600543800480035380FB438001538054
:101B1E00FEECC313FFED13900208CFF0A3EFF0908D
:101B2E000207E004F0E0B408BF900208E4F0A374EA
:101B3E0080F0900204E475F00112140A900206E09F
:071B4E0014F08098438008A9
:011B5500226D
:1017AB00741C1213C4900174E0FBA3E0FAA3E0F9DC
:0217BB007D01AE
:0E17BD0090019EEBF0A3EAF0A3E9F0A3EDF09B
:1017CB005380F79001A1E0D3940050030218B0901E
:1017DB00019EE0FBA3E0FAA3E0F912135C44401274
:1017EB0013C490019EE0FBA3E0FAA3E0F912135C93
:1017FB00545F1213C4E49001A2F090019EE0FBA38E
:10180B00E0FAA3E0F912135CFF900208E0FCA3E0FE
:10181B00FDED5F600543800480035380FB43800133
:10182B005380FEECC313FFED13900208CFF0A3EF30
:10183B00F09001A2E004F0E0B408BF900208E4F0DD
:10184B00A37480F090019EE0FBA3E0FAA3E0F9E41F
:10185B001213C49001A2F090019EE0FBA3E0FAA347
:10186B00E0F912135C25E01213C44380015380FE90
:10187B00E58030E11390019EE0FBA3E0FAA3E0F9D1
:10188B0012135C44011213C49001A2E004F0E0B403
:10189B0008C590019FE475F00112140A9001A1E0B4
:0818AB0014F00217CE4380087F
:0118B3002212
:10169300900174E0FBA3E0FAA3E0F9740C1213C405
:1016A300900174E0FBA3E0FAA3E0F9900001740D4C
:0516B3001213D67D02B8
:0E16B800900196EBF0A3EAF0A3E9F0A3EDF0A9
:1016C6005380F7900196E0FBA3E0FAA3E0F912132A
:1016D6005C44601213C4900196E0FBA3E0FAA3E019
:1016E600F912135C547F1213C4E490019AF090012E
:1016F60096E0FBA3E0FAA3E0F912135CFF90020860
:10170600E0FCA3E0FDED5F600543800480035380A9
:10171600FB4380015380FEECC313FFED13900208D8
:10172600CFF0A3EFF090019AE004F0E0B408BF9088
:101736000208E4F0A37480F0900199E0D39400408D
:1017460060900196E0FBA3E0FAA3E0F9E41213C46B
:1017560090019AF0900196E0FBA3E0FAA3E0F9125B
:10176600135C25E01213C44380015380FEE58030EC
:10177600E113900196E0FBA3E0FAA3E0F912135CF3
:1017860044011213C490019AE004F0E0B408C59035
:101796000197E475F00112140A900199E014F080A3
:0417A60097438008DD
:0117AA00221C
:101A0800900174E0FBA3E0FAA3E0F9740F1213C489
:0B1A1800900174E0FBA3E0FAA3E0F9EA
:0B1A2300900178EBF0A3EAF0A3E9F0DB
:101A2E005380F7900178E0FBA3E0FAA3E0F91213DC
:101A3E005C44801213C4900178E0FBA3E0FAA3E0AB
:101A4E00F912135C549F1213C4E490017BF09001C1
:101A5E0078E0FBA3E0FAA3E0F912135CFF90020812
:101A6E00E0FCA3E0FDED5F6005438004800353803E
:101A7E00FB4380015380FEECC313FFED139002086D
:101A8E00CFF0A3EFF090017BE004F0E0B408BF903C
:101A9E000208E4F0A37480F04380015380FE43807B
:011AAE00082F
:011AAF002214
:051EEC0090019FEDF0E4
:101EF1005380F790019FE0D394004051E4A3F01286
:101F0100135CFF900208E0FCA3E0FDED5F60054378
:101F1100800480035380FB4380015380FEECC31394
:101F2100FFED13900208CFF0A3EFF09001A0E004C1
:101F3100F0E0B408CA900208E4F0A37480F07401E0
:101F410029F9E43AFA90019FE014F080A643800851
:011F5100226D
:10000E0090018C7409F0A37431F07B017A01798C24
:05001E007D02021960E3
:0B06C200900174EBF0A3EAF0A3E9F054
:1006CD0012135CFFB4A003020A47EFB48007E49055
:1006DD0000010209C0900174E0FBA3E0FAA3E0F968
:1006ED0012135C30E16F9000017402F07416121A4F
:1006FD0015900003740EF07B017A0079037D0112D1
:10070D0017BD900003E024E0900177F0540F6004D2
:10071D00E02410F0900177E0FFC4540FF0603390A7
:10072D000132E0FF3395E0FE74052FF58274003E33
:10073D00F583741FF074052FF974003EFA7B019058
:10074D000177E0FD1216B8900177E0FF900132E0DD
:10075D002FF0020A63900174E0FBA3E0FAA3E0F925
:10076D0012135C6440600302087A900004E0B40246
:10077D00030209F1900174E0FBA3E0FAA3E0F91282
:10078D0017AB900174E0FBA3E0FAA3E0F912135C40
:10079D00540F041213C4900132E0FF3395E0FE7440
:1007AD00052FF58274003EF583741FF074052FF943
:1007BD0074003EFA7B01C003C002C001900174E0D9
:1007CD00FBA3E0FAA3E0F912135CFDD001D002D037
:1007DD00031216B8900174E0FBA3E0FAA3E0F9123E
:1007ED00135CFF900132E02FF0741E1213C49001C0
:1007FD0074E0FBA3E0FAA3E0F97D011216B89001B5
:10080D0074E0FBA3E0FAA3E0F912135CFF30E057AC
:10081D00EFC31354071213C4900174E0FBA3E0FA65
:10082D00A3E0F912135CFFC374089F1213C4900167
:10083D0032E0FF3395E0FE74042FF58274003EF52F
:10084D0083C083C082E0FF900174E0FBA3E0FAA3B4
:10085D00E0F912135CFE74FFA806088002C333D8BA
:10086D00FC5FD082D083F0121A08020A099001743D
:10087D00E0FBA3E0FAA3E0F912135C6460600302ED
:10088D000A1090000104F0900132E0FF3395E0FE74
:10089D0074052FF58274003EF583741FF074052FD7
:1008AD00F974003EFA7B017D091216B8900132E011
:1008BD002409F0E58020E7030209F6121693538808
:1008CD00FD900174E0FBA3E0FAA3E0F912135C6460
:1008DD004060030209DF1217AB900174E0FBA3E047
:1008ED00FAA3E0F912135C04540F1213C4900132F1
:1008FD00E0FF3395E0FE74052FF58274003EF5831D
:10090D00741FF074052FF974003EFA7B01C003C00B
:10091D0002C001900174E0FBA3E0FAA3E0F9121309
:10092D005CFDD001D002D0031216B8900174E0FB2B
:10093D00A3E0FAA3E0F912135CFF900132E02FF06F
:10094D00741E1217AD900174E0FBA3E0FAA3E0F959
:10095D0012135CFF30E057EFC31354071213C4900A
:10096D000174E0FBA3E0FAA3E0F912135CFFC3747A
:10097D00089F1213C4900132E0FF3395E0FE74041A
:10098D002FF58274003EF583C083C082E0FF900195
:10099D0074E0FBA3E0FAA3E0F912135CFE74FFA868
:1009AD0006088002C333D8FC5FD082D083F090005C
:1009BD000174FFF0900174E0FBA3E0FAA3E0F97479
:1009CD000F1213C4900174E0FBA3E0FAA3E0F90247
:1009DD001A23900174E0FBA3E0FAA3E0F912135C73
:1009ED006450707B9000018049121693900174E061
:1009FD00FBA3E0FAA3E0F912135C7063900001749D
:100A0D00FFF022900174E0FBA3E0FAA3E0F91213CA
:100A1D005CFF30E40A90000130E502800C8013EF9A
:100A2D0030E21390000130E5097401F090000404E8
:100A3D00F0227402F022EFB40106E4900001F022DE
:100A4D009000017402F0900174E0FBA3E0FAA3E0C2
:0F0A5D00F97416121A15121A081216935388FDFF
:010A6C002267
:03000300021DB02B
:101DB000C0E0C0F0C083C082C0D075D000C000C0F9
:0D1DC00001C002C003C004C005C006C0077A
:101DCD005388EF5388FD900170740CF0A304F07BE1
:101DDD00017A0179707D021216B8900170E064A04D
:101DED00600E7B017A0179701206C2E58020E7D37F
:031DFD005387FC0D
:101E0000D007D006D005D004D003D002D001D00036
:0B1E1000D0D0D082D083D0F0D0E032E0
:0721F60043880143E40F22BE
:10214A00D3EF9400EE940040147D107C27ED1D70AF
:0D215A00011CED4C70F7EF1F70E61E80E3D6
:012167002255
:101C5F0090019FEEF0A3EFF0C28D5389F0438901FD
:101C6F00538EFCD2A9C28C90019FE0FEA3E0FF7CB3
:101C7F00037DE81213F8AA06EA3395E0F9F8C37466
:101C8F00FF9FFF74FF9AFEE499FDE498FC78081219
:101C9F0014368F8C90019FE0FEA3E0FF7C037DE85C
:101CAF001213F8AA06EA3395E0F9F8C374FF9FFF01
:101CBF0074FF9AFEE499FDE498FCE4FB7A01F9F8CD
:061CCF001220658F8A223D
:10212A00E4FFFE75B28375B9800FBF00010EEF643C
:0F213A00144E70F543B9C0E5B930E5FBE4F5A9E3
:012149002273
:03000B00021D448F
:101D4400C0E0C0F0C083C082C0D075D000C000C065
:0D1D540001C002C003C004C005C006C007E6
:101D61005388EF90017D740CF0A304F07B017A019C
:101D7100797D7D021216B890017DE054F7F0600480
:101D8100E0B48007900001E4F08006900001740146
:041D9100F05387FC88
:101D9500D007D006D005D004D003D002D001D000A2
:0B1DA500D0D0D082D083D0F0D0E0324C
:1021C60052656164657220656E61626C65642E009D
:042006004102100182
:0A21E20075A41075E10175E24022BA
:10218300759810758DCC538EF4438E08858D8B53C3
:0A219300890F438920D28ED29922D1
:10219D00EFB40A083099FDC29975990D3099FDC2B9
:0821AD00998F99AF997E002281
:0A21EC007F0D12219D7F0A02219D44
:1020A900900184EBF0A3EAF0A3E9F0900184E0FB4E
:1020B900A3E0FAA3E0F912135C6017900184A3E48A
:1020C90075F001121420A9F0FA12135CFF12219D78
:0320D90080D92289
:1021B500AE07EFD39409400474072EFE74302EFF4A
:0121C50022F7
:02216800AD07C1
:10216A00EDC4540FFF1221B5AE0712219DED540F95
:09217A00FF1221B5AE0702219D00
:10200B007D01ED604F438701900000E0C364809435
:10201B00E14004E024E0F0900000E0FFC364809412
:10202B00B04008D3EF648094B94010C3EF64809440
:10203B00C140CFD3EF648094C650C7E4FD12219DFD
:10204B00900000E0FFD3648094B940B6EF540F24A6
:09205B0009F080AE900000E0FFE6
:012064002259
:03002300021BE2DB
:101BE200C0E0C0F0C083C082C0D075D000C000C0C9
:101BF20001C002C003C004C005C006C00730983D42
:101C0200C298900000E599F09000007401F09002F3
:101C120011E0701843C70812212A12000E7BFF7AC6
:101C22002179C61220A99002117401F05387FC9009
:101C32000210E0600D53A8FE5388EF8005C299752B
:101C4200990DD007D006D005D004D003D002D00120
:0D1C5200D000D0D0D082D083D0F0D0E032CE
:0B1518009001CDE0FF7B017A00790616
:0E1523009001FDEFF0A3EBF0A3EAF0A3E9F0D6
:10153100E4900202F090003704F0A37408F07B01FC
:101541007A0079377D02121960E4900201F090016E
:10155100FEE0FBA3E0FAA3E0F9A3E0FFF5827583C7
:1015610000121375FE740C2FF582E43400F583EE3E
:10157100F0900201E004F0E0B405D3900005748F0F
:10158100F0A37491F0A3743DF0E4A3F0A37470F0A0
:101591009001FDE090000AF0A37470F07B017A00E5
:1015A10079057D0C121EEC9000017401F09001325E
:1015B100F0900001E0640160F87401F07F0A7E00A0
:1015C100121C5F438810900001E0FF640160F7EF97
:1015D100F4600302166D900006E030E2487F2812A5
:1015E100219D9002017401F0900132E0FF3395E0FA
:1015F100FE900201E0FDC39FEE6480F87480985074
:101601001774052DF582E43400F583E0FF1221689B
:10161100900201E004F080D07F2912219D90020206
:101621007401F080677F5B12219D9002017401F0CB
:10163100900132E0FF3395E0FE900201E0FDC39F8F
:10164100EE6480F8748098501774052DF582E434A7
:1016510000F583E0FF122168900201E004F080D0E0
:101661007F5D12219DE4900202F08020900001E054
:10167100B402097F5B12219D7F7A8008900001E00E
:10168100700A7F5B12219D7F5D12219D900202E015
:01169100FF59
:011692002235
:100026009001CDEFF0A3EDF0A3EBF0A3EAF0A3E986
:01003600F0D9
:10003700E49001D7F0A3F0A3F0A3F090003704F009
:10004700A37488F07B017A0079377D02121960E486
:10005700900004F0900003F09001CEE0FFC4540F2D
:10006700FE2405FDEF540F602C0DEE24FE9001D801
:10007700F0EF5407FFE49001D2F09001D2E0C39F64
:1000870050139001D9E0FE25E0F0E004F09001D292
:10009700E004F080E5900005748FF09001CEE090C9
:1000A7000006B470057491F080037490F090000717
:1000B700743DF0E4A3F09001CEE0FF54F090000906
:1000C700F0EF5407FF600AE0FEEF25E004FFEE4F74
:1000D700F09001CDE090000AF09001CEE090000B87
:1000E700F09001CFE0FBA3E0FAA3E0F912135C90D4
:1000F700000CF090000112137590000DF0900002B3
:1001070012137590000EF090000312137590000FF4
:10011700F07B017A007905121EEC9001327401F030
:10012700900001F0900001E0600F7F0A7E00121C32
:100137005F43881043870180EB9000017401F0E46E
:100147009001D2F0900001E0B4011B9001D2E0C30E
:1001570094025012E004F07F0A7E00121C5F43886D
:100167001043870180DE900004E0B402069000018E
:100177007402F0900001E0F4600302060A7F28127F
:10018700219D9001D27401F09001D2E0FFC3940643
:10019700501774052FF582E43400F583E0FF122130
:1001A700689001D2E004F080DF7F2912219D900141
:1001B700CDE0246B700302047124FE700302054A2C
:1001C7002404600302062F900006E06488601590FF
:1001D70001CFE0FBA3E0FAA3E0F912135C648860A7
:1001E700030203549001D8E0D3940050030202C3E2
:1001F700E49001D2F09001D2E0FFC39404400302DF
:1002070003119001D8E014FEEFC39E502B9001CF4D
:10021700E0FBA3E0FAA3E0F9A3E0FD7C00E92DF9F8
:10022700EC3AFA900001121375FD74DB2FF582E4A6
:100237003401F583EDF0807B9001D2E0FF6E704AC8
:100247009001CFE0FBA3E0FAA3E07E002FF9EE3A9E
:10025700FA900001121375FF9001D9E05FFF90013A
:10026700D8E0FD9001D2E0F9C39DFDE49400FC7451
:10027700072DF58274003CF583E0FE9001D9E0F488
:10028700FDEE5D4FFF74DB2980209001D8E0FF90E1
:1002970001D2E0FDC39FFFE49400FE74072FF582AF
:1002A70074003EF583E0FF74DB2DF582E43401F53D
:1002B70083EFF09001D2E004F00201FC9001CFE05F
:1002C700FBA3E0FAA3E0F912135CFF9001D9E0FE6B
:1002D7005FFFEEF4FE900007E05E4F9001DBF0E475
:1002E7009001D2F09001D2E0FF2408F582E43400B7
:1002F700F583E0FE74DC2FF582E43401F583EEF03C
:100307009001D2E004F0E0B404DA9000067488F0BB
:10031700E49001D2F09001D2E0FF24DBF582E434CF
:1003270001F583E0FE74072FF582E43400F583EED0
:10033700F09001D2E004F0E0B404DA12151890014D
:10034700CE7420F09001D77401F00204687F5B122D
:10035700219D9001D8E0D39400500302041A7F62D4
:1003670012219DE49001D2F09001D2E0FFC39404E2
:1003770040030204639001D8E014FEEFC39E501BB4
:100387009001CFE0FBA3E0FAA3E0F97E00E92FF9A3
:10039700EE3AFA900001121375806B9001D8E0FFD6
:1003A700149001D2F060449001CFE0FBA3E0FAA3E0
:1003B700E0F9A3E0FD7C00E92DF9EC3AFA900001A1
:1003C700121375FE9001D9E0F95EFEEFFD9001D2A0
:1003D700E0C39DFDE49CFC74072DF58274003CF599
:1003E70083E0FFE9F4FDEF5D4E801B9001D8E0FF4D
:1003F7009001D2E0C39FFFE49400FE74072FF582BB
:1004070074003EF583E0FF1221689001D2E004F00A
:1004170002036F9001CFE0FBA3E0FAA3E0F9121308
:100427005CFF9001D9E0FE5FFFEEF4FE900006E06E
:100437005E4FFF122168E49001D2F09001D2E0FFF5
:10044700C39404501774072FF582E43400F583E052
:10045700FF1221689001D2E004F080DF7F5D122156
:100467009D9001CD7495F002062F900006E06488F8
:1004770070369001D2F09001D2E0FF2407F582E4B4
:100487003400F583E0FE74DF2FF582E43401F58351
:10049700EEF09001D2E004F0E0B404DA12151890FF
:1004A70001D77401F0020541E49001D2F09001D226
:1004B700E0FF2406F582E43400F583E0FE74DF2FC5
:1004C700F582E43401F583EEF09001D2E004F0E028
:1004D700B405DA7F5B12219DE49001D2F09001D23E
:1004E700E0FFC39403501774DB2FF582E43401F562
:1004F70083E0FF1221689001D2E004F080DF9001D1
:10050700DEE0FF1221689001D27404F09001D2E07E
:10051700FFC39408501774DB2FF582E43401F58389
:10052700E0FF1221689001D2E004F080DF9001E340
:10053700E0FF1221687F5D12219D9001CD7497F035
:1005470002062FE49001D2F09001D2E0FF2406F5D5
:1005570082E43400F583E0FE74E32FF582E434018E
:10056700F583EEF09001D2E004F0E0B405DA7F5BAA
:1005770012219DE49001D2F09001D2E0FFC39403D1
:10058700501774DB2FF582E43401F583E0FF122165
:10059700689001D2E004F080DF9001DEE0FF1221D5
:1005A700689001D27404F09001D2E0FFC394075021
:1005B7001774DB2FF582E43401F583E0FF1221681D
:1005C7009001D2E004F080DF9001E2E0FF122168A1
:1005D7009001D27408F09001D2E0FFC3940C501739
:1005E70074DB2FF582E43401F583E0FF1221689074
:1005F70001D2E004F080DF9001E7E0FF1221687F7D
:100607005D8022900001E0B4020E7F2812219D7FB9
:100617007A12219D7F29800D900001E0700A7F28C2
:1006270012219D7F2912219D900001E06402705DD7
:10063700900003E004F09001D27401F09001D2E041
:10064700FF2405F582E43400F583E0FE74D22FF52C
:1006570082E43401F583EEF09001D2E004F0E0B4D7
:1006670005DA7F787E00121C5F43881090000174C2
:1006770001F0900001E0640160F89001CDE0FF9087
:100687000003E0FD7B017A0179D31200269001D7A0
:10069700E0601A9001CDE0FFA3E0FDA3E0FBA3E03B
:1006A700FAA3E0F91200269001DA7401F09001DA5A
:0A06B700E0600475A0FB2275A004AA
:0106C1002216
:0518B40090020BEFF0B3
:1018B900A37493F0A37420F09000057409F0A37445
:1018C90021F07B017A0079057D02121960900005EB
:1018D9007401F0A37488F07B017A0079057D021206
:1018E900196090020BE090000A60057426F08003ED
:1018F9007452F07B017A0079059001F8740FF0A316
:101909007401F0E4FD120D9E5388FD43A801900077
:1019190001E0FFF46005EF640270207F0590002D5F
:10192900E4F0A3DFFC90020CE0FFA3E0FD7B017A69
:1019390000792D12002675A0FB800375A004900084
:10194900057401F0A37408F07B017A0079057D0222
:0619590012196053A8FE04
:01195F002265
:0E0F97009001E9EBF0A3EAF0A3E9F0A3EDF07E
:100FA500A3E0FFC4540F2408FEEF540F240890015A
:100FB500F1F0A37401F0AF06A3EFF07B017A01799C
:100FC500F27D021219609001ECE0900132F090017F
:100FD500E9E0FBA3E0FAA3E0F9748F1213C49001D2
:100FE500E9E0FBA3E0FAA3E0F99000017491121384
:100FF500D6900002743D1213D6900132E0FF7804BA
:10100500A2E713D8FB9000031213D6EFC454F09057
:1010150000041213D69001ECE0D3940C4003740C39
:10102500F09001E9E0FBA3E0FAA3E0F9A3E02405D1
:10103500FD121EEC5388FD43A801900132E024F413
:10104500F09001EE7412F09000017401F0900132FD
:10105500E0FFD3648094804056438701D3EF6480DA
:10106500948940089001EC740AF0800EC3EF648007
:101075009481403BEF049001ECF09001EEE0FF24F9
:1010850004F582E43400F583741FF07E0074042FA8
:10109500F9EE3400FA7B019001ECE0FD121AB090F4
:1010A5000132E024F7F09001EEE02409F0809E90F3
:1010B50001327401F0900001E0640160F89001F2E2
:1010C5007401F09001F1E09001F3F07B017A017970
:1010D500F27D021219609001F07416F07B017A011D
:1010E50079F0121A239001F07417F07B017A0179D7
:1010F500F0121A239000017401F07F3C7E00121C4F
:101105005F438810900001E0FF640160F7EFF47021
:101115003B7F5B12219D9001EF7401F0900132E05D
:10112500FF3395E0FE9001EFE0FDC39FEE6480F88C
:10113500748098502874052DF582E43400F583E019
:10114500FF1221689001EFE004F080D0900001E0EB
:10115500B402127F5B12219D7F7A12219D7F5D1261
:10116500219D7F0022900001E0700D7F5B12219D83
:0D1175007F5D12219D7F012253A8FE7F01A6
:01118200224A
:101E1B0090019EEFF0900005748FF0A37491F0A3E6
:101E2B00743DF0E4A3F0A37410F07B017A00790504
:101E3B007D05121EEC90000A743FF090019EE0FFAE
:101E4B00C454F0440590000BF0E4A3F0900001049F
:101E5B00F0FB7A00790A7D03121EEC5388FD43A830
:101E6B0001900001E0B401127F287E00121C5F4339
:0B1E7B00881043870143870180E722A5
:08118300900196EFF0A3EDF0DE
:10118B00E4900199F090019BF0A3F0A3F09000057F
:10119B007409F0A37431F07B017A0079057D02129A
:1011AB001960E4900004F0900005748FF0A3749123
:1011BB00F0A3743DF0E4A3F0A37430F0A37405F036
:1011CB00E4A3F0900197E0B4040A1220DC90000C29
:1011DB00E04408F0900197E090000CF0900196E04D
:1011EB00B4B10790000CE04408F09000017401F0DA
:1011FB00FB7A0079057D08121EEC5388FD43A8018C
:10120B00E490019AF0900001E0B4011B90019AE088
:10121B00C394025012E004F07F147E00121C5F4353
:10122B00881043870180DE9000017401F07F147EEB
:10123B0000121C5F4388109001987401F0900132EA
:10124B007401F0900001E0B4012390019DE004F0E3
:10125B00700690019CE004F090019CE0B4FFE4A3C5
:10126B00E0B4F0DFE4900001F0900004F090000493
:10127B00E0B40204900001F0900001E0F4703B7FB9
:10128B005B12219D90019A7401F0900132E0FF33C3
:10129B0095E0FE90019AE0FDC39FEE6480F87480A8
:1012AB0098504574052DF582E43400F583E0FF1268
:1012BB00216890019AE004F080D0900001E0B40224
:1012CB00177F5B12219D7F7A12219D7F5D12219DDD
:1012DB009001997401F08015900001E0700F7F5B15
:1012EB0012219D7F4312219D7F5D12219D900197BD
:1012FB00E0FF60306401602CEF64026027EFB40400
:10130B0006A3E06410601D900198E0FF121E1B9075
:10131B0000017401F0900198E004F0E0C3941150C7
:10132B0003021248900197E0B4040312210353A85F
:10133B00FE90019BE0600575A0FB800375A00490F7
:10134B000199E060057F6412219D7D027F200211CF
:01135B00830E
:101F520053D9BFE4F5D912212A1221E21221834377
:101F6200AE0853C7F77F017E0012214A43C7087F9C
:101F7200017E0012214A43F1801221F643A4084354
:101F8200800843A40443F10243A40153C7F77F012D
:101F92007E0012214A43C7087F017E0012214A12A5
:0D1FA200000E43A88053F5FB121E8680FB45
:03000000021B568A
:0C1B5600787FE4F6D8FD758107021B9D26
:10135C00BB010689828A83E0225002E722BBFE028F
:09136C00E32289828A83E49322C2
:10137500BB010CE58229F582E5833AF583E022502D
:1013850006E92582F8E622BBFE06E92582F8E22277
:0D139500E58229F582E5833AF583E4932291
:1013A200BB010989828A83F8E028F022500327F7DB
:1013B20022BBFE05F8E328F3228A838982F8E493AC
:0213C2002822DF
:1013C400BB010689828A83F0225002F722BBFE0108
:0213D400F32202
:1013D600F8BB010DE58229F582E5833AF583E8F04D
:1013E600225006E92582C8F622BBFE05E92582C8F9
:0213F600F222E1
:1013F800EF8DF0A4A8F0CF8CF0A428CE8DF0A42E09
:02140800FE22C2
:10140A00C5F0F8A3E028F0C5F0F8E582158270026D
:06141A001583E038F0220A
:10142000A3F8E0C5F025F0F0E5821582700215837F
:06143000E0C838F0E822DC
:10206500C2D5E830E70FB2D5E4C39BFBE49AFAE4A6
:1020750099F9E498F8EC30E717B2D512209B1214C1
:1020850086E4C39BFBE49AFAE499F9E498F88003A3
:1020950012148630D50DE4C39FFFE49EFEE49DFD3A
:0420A500E49CFC2299
:10143600E86010ECA2E713FCED13FDEE13FEEF13CC
:04144600FFD8F022B9
:101B6200021F52E493A3F8E493A34003F68001F228
:101B720008DFF48029E493A3F85407240CC8C33384
:101B8200C4540F4420C8834004F456800146F6DF53
:101B9200E4800B0102040810204080901FAFE47E15
:101BA200019360BCA3FF543F30E509541FFEE49348
:101BB200A360010ECF54C025E060A840B8E493A30F
:101BC200FAE493A3F8E493A3C8C582C8CAC583CA3A
:101BD200F0A3C8C582C8CAC583CADFE9DEE780BEF2
:01200A0000D5
:10144A0075F008758200EF2FFFEE33FECD33CDCC59
:10145A0033CCC58233C5829BED9AEC99E5829840DC
:10146A000CF582EE9BFEED9AFDEC99FC0FD5F0D6B9
:10147A00E4CEFBE4CDFAE4CCF9A88222B800C1B9E3
:10148A000059BA002DEC8BF084CFCECDFCE5F0CB21
:10149A00F97818EF2FFFEE33FEED33FDEC33FCEB5A
:1014AA0033FB10D703994004EB99FB0FD8E5E4F915
:1014BA00FA227818EF2FFFEE33FEED33FDEC33FC02
:1014CA00C933C910D7059BE99A4007EC9BFCE99AF6
:1014DA00F90FD8E0E4C9FAE4CCFB2275F010EF2F3B
:1014EA00FFEE33FEED33FDCC33CCC833C810D7073B
:1014FA009BEC9AE899400AED9BFDEC9AFCE899F876
:0E150A000FD5F0DAE4CDFBE4CCFAE4C8F92208
:00000001FF
