:0C21E6006F6A626B0073686962616900D7
:1020EC0090002E740DF090002DF07B017A00792E6B
:1020FC007D011217BD90002EE04401F07B017A00A7
:07210C00792D7D020219602C
:1021130090002E740DF090002DF07B017A00792E43
:102123007D011217BD90002EE054FEF07B017A0072
:07213300792D7D0202196005
:0E0A6D00900159EBF0A3EAF0A3E9F0A3EDF03D
:100A7B00A37401F0A37403F0E4900180F0A3F09051
:100A8B0000057409F0A37421F07B017A0079057DD0
:100A9B0002121960900002E090000520E108740733
:100AAB00F0A3742F80067407F0A37413F07B017A04
:100ABB000079057D02121960E4900165F090000247
:100ACB00E090016120E5087411F01220EC800374B2
:100ADB0002F09001627401F0A37401F0A37465F04D
:100AEB0090015CE0FD1313543F2401FFE433A2E7B4
:100AFB0013EF1390017FF02403FFE433AB07FA905D
:100B0B000005748FF0A37491F0A3743DF0EAFFA37A
:100B1B00EFF0FEAF03EFC4F8540FC868FFA3EFF07C
:100B2B00900002E090000AF0A37401F0A3EDF090A6
:100B3B00015CD394004039E4A3F090017FE0FF9077
:100B4B00015DE0FEC39F5028900159E0FBA3E0FA42
:100B5B00A3E0F98E82758300121375FF740D2EF5C9
:100B6B0082E43400F583EFF090015DE004F080CA7D
:100B7B0090015F740CF0A304F07B017A01795F7D27
:100B8B00021216B87F147E00121C5F5388FD43A817
:100B9B00017B017A00790590017FE02408FD121E8C
:100BAB00F69000017401F043881043870190015DBA
:100BBB00F0900161E0FF90015DE0C39F4003020CE8
:100BCB00C89001327401F07F147E00121C5F4388C1
:100BDB0010E4900180F0A3F0438701900001E0B492
:100BEB000123900181E004F07006900180E004F095
:100BFB00900180E0B4FFE4A3E0B4F0DFE4900001E7
:100C0B00F0900004F090015F740FF07B017A017992
:100C1B005F7D011217BD900001E0B4FF2D75A0FBA5
:100C2B0090015E740AF090015EE0FFC394034017DD
:100C3B0074052FF582E43400F583E0FF12217890E0
:100C4B00015EE014F080DF75A00490015F740FF07B
:100C5B007B017A01795F121A23900161E0641170B4
:100C6B003890015DE0C39410502F90015F7416F023
:100C7B007B017A01795F121A2390015F7417F07B65
:100C8B00017A01795F121A2390015F7414F07B01D2
:100C9B007A01795F121A23801B900161E0B4110C69
:100CAB0090015DE0B410051221138008900161E002
:100CBB006402600990015DE004F0020BBC90015CE2
:100CCB00E0240490017EF0E01313543F2401FFE471
:100CDB0033A2E713EF1314A3F0900162E0FBA3E040
:100CEB00FAA3E0F912135C7003020D9A900161E014
:100CFB0064116003020D9A74FF1213A2E490015D5C
:100D0B00F0900159E0FBA3E0FAA3E0F990015DE05C
:100D1B00FFF582758300121375FE74762FF582E44E
:100D2B003401F583EEF090015DE004F0E0B408D1FE
:100D3B0090017EE020E214900162E0FBA3E0FAA3B5
:100D4B00E0F912135CC454F01213C490017FE02439
:100D5B0076F582E43401F583C083C082E0FF900115
:100D6B0062E0FBA3E0FAA3E0F912135CFEEF4ED0B6
:100D7B0082D083F07B017A01797690017EE0FD12BF
:100D8B000A6D90016374FFF5F012140A020CE45320
:020D9B00A8FEB0
:010D9D002233
:050D9E0090015DEDF085
:100DA300900132F0748F1213C490015FE090000140
:100DB30060047490800274911213D6900002743D03
:100DC3001213D6900132E0FF7804A2E713D8FB9008
:100DD30000031213D6EFC454F0FF90015EE0FE4F00
:100DE3009000041213D690015DE0D3940C40037479
:100DF3000CF090015DE0700AEE60077401F0900161
:100E030032F090015DE02405FD121EF65388FD4388
:100E1300A801900132E024F4F09001607411F09085
:100E230000017401F0900132E0FFD36480948040AC
:100E330056438701D3EF64809489400890015D7421
:100E43000AF0800EC3EF64809481403BEF0490016D
:100E53005DF0900160E0FF2404F582E43400F58343
:100E6300741FF07E0074042FF9EE3400FA7B0190B6
:100E7300015DE0FD121AB0900132E024F7F0900119
:100E830060E02409F0809E9001327401F09000012B
:100E9300E0B4010F7F3C7E00121C5F438810438740
:100EA3000180EA9000017401F07F3C7E00121C5F18
:100EB30043881090000AE0FF30E616A3E0FE6421A9
:100EC3006025EE64246020EE6427601BEE642960D5
:100ED30016EF703890000BE054F0FF64206008EFC9
:100EE30064306003BF40257F147E0012215A9001B5
:100EF30061740FF07B017A017961121A2390016109
:100F03007414F07B017A017961121A23900001E0D5
:100F1300FF640160F7EFB4FF1A900006E07BFF70F7
:100F2300067A2179E680047A2179EB1220B912211D
:100F3300FC8022900001E0B402127F5B1221AD7F9E
:100F43007A1221AD7F5D1221AD7F0022900001E076
:100F530070037F01229001627401F0900132E0FF7F
:100F63003395E0FE900162E0FDC39FEE6480F87468
:100F73008098501774052DF582E43400F583E0FF63
:100F8300122178900162E004F080D01221FC53A872
:030F9300FE7F01DD
:010F96002238
:101FBF004901BC0C00030410002101004C01900FDB
:101FCF0000030418002108FFFF00004801880B00E0
:101FDF000304180020084801AC0B00030418002765
:101FEF00014801B40B000304184029EE47019C0A75
:101FFF0000030418002B4901A30C00030418002C44
:02200F000101CD
:101D4500E4FF74BC2FF582E43401F583E0FE7405ED
:101D55002FF582E43400F583EEF00FEFB409E3903C
:101D65000005E024F8FF900159F0FD7B017A007928
:101D75000A121960E4FF74882FF582E43401F583B3
:101D8500E0FE74052FF582E43400F583EEF00FEFE5
:101D9500B409E3900005E024F8FF900159F0FD7BBC
:0F1DA500017A007905E490015EF0A3F0020D9E33
:101CD500E490014FF0A37421F0A37401F0A304F084
:101CE5007B017A01794F7D041219607F057E001210
:101CF500215A9000027406F0E490014FF07B017ABE
:101D050001794FFD120A6DE490014FF0A304F0FB39
:101D15007A01794F7D021219607F017E0012215AE6
:101D250090014F740CF0A304F07B017A01794F7D8B
:101D3500021216B8121D457F0A7E0012215A8090A4
:052011004201FA00800D
:0E196000900182EBF0A3EAF0A3E9F0A3EDF012
:10196E005380F75380FE900185E0D394005003021C
:10197E001A04900182E0FBA3E0FAA3E0F912135CD3
:10198E00541F1213C4E4900186F0900186E0C394B4
:10199E000250D3E4A3F0900182E0FBA3E0FAA3E0AF
:1019AE00F912135CFF9001FAE0FCA3E0FDED5F601D
:1019BE000543800480035380FB4380015380FEEC7B
:1019CE00C313FFED139001FACFF0A3EFF090018750
:1019DE00E004F0E0B408BF9001FAE4F0A37480F0E4
:1019EE00900183E475F00112140A900185E014F061
:0919FE00A3E004F080944380088A
:011A070022BC
:0E1AB000900163EBF0A3EAF0A3E9F0A3EDF0E0
:101ABE005380F75380FE900163E0FBA3E0FAA3E0AE
:101ACE00F912135C44201213C4900163E0FBA3E0EF
:101ADE00FAA3E0F912135C543F1213C4900166E0AE
:101AEE00D39400405FE4A3F0900163E0FBA3E0FA1F
:101AFE00A3E0F912135CFF9001FAE0FCA3E0FDED08
:101B0E005F600543800480035380FB438001538054
:101B1E00FEECC313FFED139001FACFF0A3EFF0909C
:101B2E000167E004F0E0B408BF9001FAE4F0A3749A
:101B3E0080F0900164E475F00112140A900166E0E1
:071B4E0014F08098438008A9
:011B5500226D
:1017AB00741C1213C4900137E0FBA3E0FAA3E0F919
:0217BB007D01AE
:0E17BD00900182EBF0A3EAF0A3E9F0A3EDF0B7
:1017CB005380F7900185E0D3940050030218B0903A
:1017DB000182E0FBA3E0FAA3E0F912135C44401290
:1017EB0013C4900182E0FBA3E0FAA3E0F912135CAF
:1017FB00545F1213C4E4900186F0900182E0FBA3C6
:10180B00E0FAA3E0F912135CFF9001FAE0FCA3E00D
:10181B00FDED5F600543800480035380FB43800133
:10182B005380FEECC313FFED139001FACFF0A3EF3F
:10183B00F0900186E004F0E0B408BF9001FAE4F008
:10184B00A37480F0900182E0FBA3E0FAA3E0F9E43B
:10185B001213C4900186F0900182E0FBA3E0FAA37F
:10186B00E0F912135C25E01213C44380015380FE90
:10187B00E58030E113900182E0FBA3E0FAA3E0F9ED
:10188B0012135C44011213C4900186E004F0E0B41F
:10189B0008C5900183E475F00112140A900185E0EC
:0818AB0014F00217CE4380087F
:0118B3002212
:10169300900137E0FBA3E0FAA3E0F9740C1213C442
:1016A300900137E0FBA3E0FAA3E0F9900001740D89
:0516B3001213D67D02B8
:0E16B800900182EBF0A3EAF0A3E9F0A3EDF0BD
:1016C6005380F7900182E0FBA3E0FAA3E0F912133E
:1016D6005C44601213C4900182E0FBA3E0FAA3E02D
:1016E600F912135C547F1213C4E4900186F0900142
:1016F60082E0FBA3E0FAA3E0F912135CFF9001FA83
:10170600E0FCA3E0FDED5F600543800480035380A9
:10171600FB4380015380FEECC313FFED139001FAE7
:10172600CFF0A3EFF0900186E004F0E0B408BF909C
:1017360001FAE4F0A37480F0900185E0D3940040B0
:1017460060900182E0FBA3E0FAA3E0F9E41213C47F
:10175600900186F0900182E0FBA3E0FAA3E0F91283
:10176600135C25E01213C44380015380FEE58030EC
:10177600E113900182E0FBA3E0FAA3E0F912135C07
:1017860044011213C4900186E004F0E0B408C59049
:101796000183E475F00112140A900185E014F080CB
:0417A60097438008DD
:0117AA00221C
:101A0800900137E0FBA3E0FAA3E0F9740F1213C4C6
:0B1A1800900137E0FBA3E0FAA3E0F927
:0B1A2300900182EBF0A3EAF0A3E9F0D1
:101A2E005380F7900182E0FBA3E0FAA3E0F91213D2
:101A3E005C44801213C4900182E0FBA3E0FAA3E0A1
:101A4E00F912135C549F1213C4E4900185F09001B7
:101A5E0082E0FBA3E0FAA3E0F912135CFF9001FA17
:101A6E00E0FCA3E0FDED5F6005438004800353803E
:101A7E00FB4380015380FEECC313FFED139001FA7C
:101A8E00CFF0A3EFF0900185E004F0E0B408BF9032
:101A9E0001FAE4F0A37480F04380015380FE43808A
:011AAE00082F
:011AAF002214
:051EF600900182EDF0F7
:101EFB005380F7900182E0D394004051E4A3F01299
:101F0B00135CFF9001FAE0FCA3E0FDED5F6005437D
:101F1B00800480035380FB4380015380FEECC3138A
:101F2B00FFED139001FACFF0A3EFF0900183E004E3
:101F3B00F0E0B408CA9001FAE4F0A37480F07401E5
:101F4B0029F9E43AFA900182E014F080A643800864
:011F5B002263
:10000E0090014F7409F0A37431F07B017A01794F9E
:05001E007D02021960E3
:0B06C200900137EBF0A3EAF0A3E9F091
:1006CD0012135CFFB4A003020A47EFB48007E49055
:1006DD0000010209C0900137E0FBA3E0FAA3E0F9A5
:1006ED0012135C30E16F9000017402F07416121A4F
:1006FD0015900003740EF07B017A0079037D0112D1
:10070D0017BD900003E024E090013AF0540F60040F
:10071D00E02410F090013AE0FFC4540FF0603390E4
:10072D000132E0FF3395E0FE74052FF58274003E33
:10073D00F583741FF074052FF974003EFA7B019058
:10074D00013AE0FD1216B890013AE0FF900132E057
:10075D002FF0020A63900137E0FBA3E0FAA3E0F962
:10076D0012135C6440600302087A900004E0B40246
:10077D00030209F1900137E0FBA3E0FAA3E0F912BF
:10078D0017AB900137E0FBA3E0FAA3E0F912135C7D
:10079D00540F041213C4900132E0FF3395E0FE7440
:1007AD00052FF58274003EF583741FF074052FF943
:1007BD0074003EFA7B01C003C002C001900137E016
:1007CD00FBA3E0FAA3E0F912135CFDD001D002D037
:1007DD00031216B8900137E0FBA3E0FAA3E0F9127B
:1007ED00135CFF900132E02FF0741E1213C49001C0
:1007FD0037E0FBA3E0FAA3E0F97D011216B89001F2
:10080D0037E0FBA3E0FAA3E0F912135CFF30E057E9
:10081D00EFC31354071213C4900137E0FBA3E0FAA2
:10082D00A3E0F912135CFFC374089F1213C4900167
:10083D0032E0FF3395E0FE74042FF58274003EF52F
:10084D0083C083C082E0FF900137E0FBA3E0FAA3F1
:10085D00E0F912135CFE74FFA806088002C333D8BA
:10086D00FC5FD082D083F0121A08020A099001377A
:10087D00E0FBA3E0FAA3E0F912135C6460600302ED
:10088D000A1090000104F0900132E0FF3395E0FE74
:10089D0074052FF58274003EF583741FF074052FD7
:1008AD00F974003EFA7B017D091216B8900132E011
:1008BD002409F0E58020E7030209F6121693538808
:1008CD00FD900137E0FBA3E0FAA3E0F912135C649D
:1008DD004060030209DF1217AB900137E0FBA3E084
:1008ED00FAA3E0F912135C04540F1213C4900132F1
:1008FD00E0FF3395E0FE74052FF58274003EF5831D
:10090D00741FF074052FF974003EFA7B01C003C00B
:10091D0002C001900137E0FBA3E0FAA3E0F9121346
:10092D005CFDD001D002D0031216B8900137E0FB68
:10093D00A3E0FAA3E0F912135CFF900132E02FF06F
:10094D00741E1217AD900137E0FBA3E0FAA3E0F996
:10095D0012135CFF30E057EFC31354071213C4900A
:10096D000137E0FBA3E0FAA3E0F912135CFFC374B7
:10097D00089F1213C4900132E0FF3395E0FE74041A
:10098D002FF58274003EF583C083C082E0FF900195
:10099D0037E0FBA3E0FAA3E0F912135CFE74FFA8A5
:1009AD0006088002C333D8FC5FD082D083F090005C
:1009BD000174FFF0900137E0FBA3E0FAA3E0F974B6
:1009CD000F1213C4900137E0FBA3E0FAA3E0F90284
:1009DD001A23900137E0FBA3E0FAA3E0F912135CB0
:1009ED006450707B9000018049121693900137E09E
:1009FD00FBA3E0FAA3E0F912135C7063900001749D
:100A0D00FFF022900137E0FBA3E0FAA3E0F9121307
:100A1D005CFF30E40A90000130E502800C8013EF9A
:100A2D0030E21390000130E5097401F090000404E8
:100A3D00F0227402F022EFB40106E4900001F022DE
:100A4D009000017402F0900137E0FBA3E0FAA3E0FF
:0F0A5D00F97416121A15121A081216935388FDFF
:010A6C002267
:03000300021E20BA
:101E2000C0E0C0F0C083C082C0D075D000C000C088
:0D1E300001C002C003C004C005C006C00709
:101E3D005388EF5388FD900133740CF0A304F07BAD
:101E4D00017A0179337D021216B8900133E064A056
:101E5D00600E7B017A0179331206C2E58020E7D34B
:031E6D0075870076
:101E7000D007D006D005D004D003D002D001D000C6
:0B1E8000D0D0D082D083D0F0D0E03270
:0722060043880143E40F22AD
:10215A00D3EF9400EE940040147D107C27ED1D709F
:0D216A00011CED4C70F7EF1F70E61E80E3C6
:012177002245
:101C5F00900182EEF0A3EFF0C28D5389F04389011A
:101C6F00538EFCD2A9C28C900182E0FEA3E0FF7CD0
:101C7F00037DE81213F8AA06EA3395E0F9F8C37466
:101C8F00FF9FFF74FF9AFEE499FDE498FC78081219
:101C9F0014368F8C900182E0FEA3E0FF7C037DE879
:101CAF001213F8AA06EA3395E0F9F8C374FF9FFF01
:101CBF0074FF9AFEE499FDE498FCE4FB7A01F9F8CD
:061CCF001220758F8A222D
:10213A00E4FFFE75B28375B9800FBF00010EEF642C
:0F214A00144E70F543B9C0E5B930E5FBE4F5A9D3
:012159002263
:03000B00021DB41F
:101DB400C0E0C0F0C083C082C0D075D000C000C0F5
:0D1DC40001C002C003C004C005C006C00776
:101DD1005388EF900140740CF0A304F07B017A0169
:101DE10079407D021216B8900140E054F7F060048A
:101DF100E0B48007900001E4F080069000017401D6
:041E0100F0758700F1
:101E0500D007D006D005D004D003D002D001D00031
:0B1E1500D0D0D082D083D0F0D0E032DB
:1021D60052656164657220656E61626C65642E008D
:042016004102020180
:0A21F20075A41075E10175E24022AA
:10219300759810758DCC538EF4438E08858D8B53B3
:0A21A300890F438920D28ED29922C1
:1021AD00EFB40A083099FDC29975990D3099FDC2A9
:0821BD00998F99AF997E002271
:0A21FC007F0D1221AD7F0A0221AD14
:1020B900900163EBF0A3EAF0A3E9F0900163E0FB80
:1020C900A3E0FAA3E0F912135C6017900163A3E49B
:1020D90075F001121420A9F0FA12135CFF1221AD58
:0320E90080D92279
:1021C500AE07EFD39409400474072EFE74302EFF3A
:0121D50022E7
:02217800AD07B1
:10217A00EDC4540FFF1221C5AE071221ADED540F65
:09218A00FF1221C5AE070221ADD0
:10201B007D01ED604F438701900000E0C364809425
:10202B00E14004E024E0F0900000E0FFC364809402
:10203B00B04008D3EF648094B94010C3EF64809430
:10204B00C140CFD3EF648094C650C7E4FD1221ADDD
:10205B00900000E0FFD3648094B940B6EF540F2496
:09206B0009F080AE900000E0FFD6
:012074002249
:03002300021BE2DB
:101BE200C0E0C0F0C083C082C0D075D000C000C0C9
:101BF20001C002C003C004C005C006C00730983D42
:101C0200C298900000E599F09000007401F09002F3
:101C120003E0701843C70812213A12000E7BFF7AC4
:101C22002179D61220B99002037401F075870090D1
:101C32000202E0600D53A8FE5388EF8005C2997539
:101C4200990DD007D006D005D004D003D002D00120
:0D1C5200D000D0D0D082D083D0F0D0E032CE
:0B1518009001C5E0FF7B017A0079061E
:0E1523009001F4EFF0A3EBF0A3EAF0A3E9F0DF
:10153100E49001F9F090003704F0A37408F07B0106
:101541007A0079377D02121960E49001F8F0900178
:10155100F5E0FBA3E0FAA3E0F9A3E0FFF5827583D0
:1015610000121375FE740C2FF582E43400F583EE3E
:10157100F09001F8E004F0E0B405D3900005748F19
:10158100F0A37491F0A3743DF0E4A3F0A37470F0A0
:101591009001F4E090000AF0A37470F07B017A00EE
:1015A10079057D0C121EF69000017401F090013254
:1015B100F0900001E0640160F87401F07F0A7E00A0
:1015C100121C5F438810900001E0FF640160F7EF97
:1015D100F4600302166D900006E030E2487F2812A5
:1015E10021AD9001F87401F0900132E0FF3395E0F4
:1015F100FE9001F8E0FDC39FEE6480F8748098507E
:101601001774052DF582E43400F583E0FF1221788B
:101611009001F8E004F080D07F291221AD9001F90A
:101621007401F080677F5B1221AD9001F87401F0C5
:10163100900132E0FF3395E0FE9001F8E0FDC39F99
:10164100EE6480F8748098501774052DF582E434A7
:1016510000F583E0FF1221789001F8E004F080D0DA
:101661007F5D1221ADE49001F9F08020900001E04E
:10167100B402097F5B1221AD7F7A8008900001E0FE
:10168100700A7F5B1221AD7F5D1221AD9001F9E0FF
:01169100FF59
:011692002235
:100026009001C5EFF0A3EDF0A3EBF0A3EAF0A3E98E
:01003600F0D9
:10003700E49001CFF0A3F0A3F0A3F090003704F011
:10004700A37488F07B017A0079377D02121960E486
:10005700900004F0900003F09001C6E0FFC4540F35
:10006700FE2405FDEF540F602C0DEE24FE9001D009
:10007700F0EF5407FFE49001CAF09001CAE0C39F74
:1000870050139001D1E0FE25E0F0E004F09001CAA2
:10009700E004F080E5900005748FF09001C6E090D1
:1000A7000006B470057491F080037490F090000717
:1000B700743DF0E4A3F09001C6E0FF54F09000090E
:1000C700F0EF5407FF600AE0FEEF25E004FFEE4F74
:1000D700F09001C5E090000AF09001C6E090000B97
:1000E700F09001C7E0FBA3E0FAA3E0F912135C90DC
:1000F700000CF090000112137590000DF0900002B3
:1001070012137590000EF090000312137590000FF4
:10011700F07B017A007905121EF69001327401F026
:10012700900001F0900001E0600F7F0A7E00121C32
:100137005F43881043870180EB9000017401F0E46E
:100147009001CAF0900001E0B4011B9001CAE0C31E
:1001570094025012E004F07F0A7E00121C5F43886D
:100167001043870180DE900004E0B402069000018E
:100177007402F0900001E0F4600302060A7F28127F
:1001870021AD9001CA7401F09001CAE0FFC3940643
:10019700501774052FF582E43400F583E0FF122130
:1001A700789001CAE004F080DF7F291221AD900129
:1001B700C5E0246B700302047124FE700302054A34
:1001C7002404600302062F900006E06488601590FF
:1001D70001C7E0FBA3E0FAA3E0F912135C648860AF
:1001E700030203549001D0E0D3940050030202C3EA
:1001F700E49001CAF09001CAE0FFC39404400302EF
:1002070003119001D0E014FEEFC39E502B9001C75D
:10021700E0FBA3E0FAA3E0F9A3E0FD7C00E92DF9F8
:10022700EC3AFA900001121375FD74D32FF582E4AE
:100237003401F583EDF0807B9001CAE0FF6E704AD0
:100247009001C7E0FBA3E0FAA3E07E002FF9EE3AA6
:10025700FA900001121375FF9001D1E05FFF900142
:10026700D0E0FD9001CAE0F9C39DFDE49400FC7461
:10027700072DF58274003CF583E0FE9001D1E0F490
:10028700FDEE5D4FFF74D32980209001D0E0FF90F1
:1002970001CAE0FDC39FFFE49400FE74072FF582B7
:1002A70074003EF583E0FF74D32DF582E43401F545
:1002B70083EFF09001CAE004F00201FC9001C7E06F
:1002C700FBA3E0FAA3E0F912135CFF9001D1E0FE73
:1002D7005FFFEEF4FE900007E05E4F9001D3F0E47D
:1002E7009001CAF09001CAE0FF2408F582E43400C7
:1002F700F583E0FE74D42FF582E43401F583EEF044
:100307009001CAE004F0E0B404DA9000067488F0C3
:10031700E49001CAF09001CAE0FF24D3F582E434E7
:1003270001F583E0FE74072FF582E43400F583EED0
:10033700F09001CAE004F0E0B404DA121518900155
:10034700C67420F09001CF7401F00204687F5B123D
:1003570021AD9001D0E0D39400500302041A7F62CC
:100367001221ADE49001CAF09001CAE0FFC39404E2
:1003770040030204639001D0E014FEEFC39E501BBC
:100387009001C7E0FBA3E0FAA3E0F97E00E92FF9AB
:10039700EE3AFA900001121375806B9001D0E0FFDE
:1003A700149001CAF060449001C7E0FBA3E0FAA3F0
:1003B700E0F9A3E0FD7C00E92DF9EC3AFA900001A1
:1003C700121375FE9001D1E0F95EFEEFFD9001CAB0
:1003D700E0C39DFDE49CFC74072DF58274003CF599
:1003E70083E0FFE9F4FDEF5D4E801B9001D0E0FF55
:1003F7009001CAE0C39FFFE49400FE74072FF582C3
:1004070074003EF583E0FF1221789001CAE004F002
:1004170002036F9001C7E0FBA3E0FAA3E0F9121310
:100427005CFF9001D1E0FE5FFFEEF4FE900006E076
:100437005E4FFF122178E49001CAF09001CAE0FFF5
:10044700C39404501774072FF582E43400F583E052
:10045700FF1221789001CAE004F080DF7F5D12214E
:10046700AD9001C57495F002062F900006E06488F0
:1004770070369001CAF09001CAE0FF2407F582E4C4
:100487003400F583E0FE74D72FF582E43401F58359
:10049700EEF09001CAE004F0E0B404DA1215189007
:1004A70001CF7401F0020541E49001CAF09001CA3E
:1004B700E0FF2406F582E43400F583E0FE74D72FCD
:1004C700F582E43401F583EEF09001CAE004F0E030
:1004D700B405DA7F5B1221ADE49001CAF09001CA3E
:1004E700E0FFC39403501774D32FF582E43401F56A
:1004F70083E0FF1221789001CAE004F080DF9001C9
:10050700D6E0FF1221789001CA7404F09001CAE086
:10051700FFC39408501774D32FF582E43401F58391
:10052700E0FF1221789001CAE004F080DF9001DB40
:10053700E0FF1221787F5D1221AD9001C57497F01D
:1005470002062FE49001CAF09001CAE0FF2406F5E5
:1005570082E43400F583E0FE74DB2FF582E4340196
:10056700F583EEF09001CAE004F0E0B405DA7F5BB2
:100577001221ADE49001CAF09001CAE0FFC39403D1
:10058700501774D32FF582E43401F583E0FF12216D
:10059700789001CAE004F080DF9001D6E0FF1221D5
:1005A700789001CA7404F09001CAE0FFC394075021
:1005B7001774D32FF582E43401F583E0FF12217815
:1005C7009001CAE004F080DF9001DAE0FF122178A1
:1005D7009001CA7408F09001CAE0FFC3940C501749
:1005E70074D32FF582E43401F583E0FF122178906C
:1005F70001CAE004F080DF9001DFE0FF1221787F7D
:100607005D8022900001E0B4020E7F281221AD7FA9
:100617007A1221AD7F29800D900001E0700A7F28B2
:100627001221AD7F291221AD900001E06402705DB7
:10063700900003E004F09001CA7401F09001CAE051
:10064700FF2405F582E43400F583E0FE74CA2FF534
:1006570082E43401F583EEF09001CAE004F0E0B4DF
:1006670005DA7F787E00121C5F43881090000174C2
:1006770001F0900001E0640160F89001C5E0FF908F
:100687000003E0FD7B017A0179CB1200269001CFB0
:10069700E0601A9001C5E0FFA3E0FDA3E0FBA3E043
:1006A700FAA3E0F91200269001D27401F09001D26A
:0A06B700E0600475A0FB2275A004AA
:0106C1002216
:0518B4009001FDEFF0C2
:1018B900A37493F0A37420F09000057409F0A37445
:1018C90021F07B017A0079057D02121960900005EB
:1018D9007401F0A37488F07B017A0079057D021206
:1018E90019609001FDE090000A60057426F08003FC
:1018F9007452F07B017A00790590015E740FF0A3B0
:101909007401F0E4FD120D9E5388FD43A801900077
:1019190001E0FFF46005EF640270207F0590002D5F
:10192900E4F0A3DFFC9001FEE0FFA3E0FD7B017A78
:1019390000792D12002675A0FB800375A004900084
:10194900057401F0A37408F07B017A0079057D0222
:0619590012196053A8FE04
:01195F002265
:0E0F97009001E1EBF0A3EAF0A3E9F0A3EDF086
:100FA500A3E0FFC4540F2408FEEF540F240890015A
:100FB500E9F0A37401F0AF06A3EFF07B017A0179A4
:100FC500EA7D021219609001E4E0900132F090018F
:100FD500E1E0FBA3E0FAA3E0F9748F1213C49001DA
:100FE500E1E0FBA3E0FAA3E0F9900001749112138C
:100FF500D6900002743D1213D6900132E0FF7804BA
:10100500A2E713D8FB9000031213D6EFC454F09057
:1010150000041213D69001E4E0D3940C4003740C41
:10102500F09001E1E0FBA3E0FAA3E0F9A3E02405D9
:10103500FD121EF65388FD43A801900132E024F409
:10104500F09001E67412F09000017401F090013205
:10105500E0FFD3648094804056438701D3EF6480DA
:10106500948940089001E4740AF0800EC3EF64800F
:101075009481403BEF049001E4F09001E6E0FF2409
:1010850004F582E43400F583741FF07E0074042FA8
:10109500F9EE3400FA7B019001E4E0FD121AB090FC
:1010A5000132E024F7F09001E6E02409F0809E90FB
:1010B50001327401F0900001E0640160F89001EAEA
:1010C5007401F09001E9E09001EBF07B017A017980
:1010D500EA7D021219609001E87416F07B017A012D
:1010E50079E8121A239001E87417F07B017A0179E7
:1010F500E8121A239000017401F07F3C7E00121C57
:101105005F438810900001E0FF640160F7EFF47021
:101115003B7F5B1221AD9001E77401F0900132E055
:10112500FF3395E0FE9001E7E0FDC39FEE6480F894
:10113500748098502874052DF582E43400F583E019
:10114500FF1221789001E7E004F080D0900001E0E3
:10115500B402127F5B1221AD7F7A1221AD7F5D1241
:1011650021AD7F0022900001E0700D7F5B1221AD63
:0D1175007F5D1221AD7F012253A8FE7F0196
:01118200224A
:101E8B00900204EFF0900005748FF0A37491F0A30F
:101E9B00743DF0E4A3F0A37410F07B017A00790594
:101EAB007D05121EF690000A743FF0900204E0FFCD
:101EBB00C454F0440590000BF0E4A3F0900001042F
:101ECB00F0FB7A00790A7D03121EF65388FD43A8B6
:101EDB0001900001E0B401127F287E00121C5F43C9
:0B1EEB00881043870143870180E72235
:081183009001ECEFF0A3EDF088
:10118B00E49001EFF09001F1F0A3F0A3F0900005D3
:10119B007409F0A37431F07B017A0079057D02129A
:1011AB001960E4900004F0900005748FF0A3749123
:1011BB00F0A3743DF0E4A3F0A37430F0A37405F036
:1011CB00E4A3F09001EDE0B4040A1220EC90000CC3
:1011DB00E04408F09001EDE090000CF09001ECE0A1
:1011EB00B4B10790000CE04408F09000017401F0DA
:1011FB00FB7A0079057D08121EF65388FD43A80182
:10120B00E49001F0F0900001E0B4011B9001F0E0DC
:10121B00C394025012E004F07F147E00121C5F4353
:10122B00881043870180DE9000017401F07F147EEB
:10123B0000121C5F4388109001EE7401F090013294
:10124B007401F0900001E0B401239001F3E004F08D
:10125B0070069001F2E004F09001F2E0B4FFE4A319
:10126B00E0B4F0DFE4900001F0900004F090000493
:10127B00E0B40204900001F0900001E0F4703B7FB9
:10128B005B1221AD9001F07401F0900132E0FF335D
:10129B0095E0FE9001F0E0FDC39FEE6480F8748052
:1012AB0098504574052DF582E43400F583E0FF1268
:1012BB0021789001F0E004F080D0900001E0B402BE
:1012CB00177F5B1221AD7F7A1221AD7F5D1221ADAD
:1012DB009001EF7401F08015900001E0700F7F5BBF
:1012EB001221AD7F431221AD7F5D1221AD9001ED37
:1012FB00E0FF60306401602CEF64026027EFB40400
:10130B0006A3E06410601D9001EEE0FF121E8B90AF
:10131B0000017401F09001EEE004F0E0C394115071
:10132B00030212489001EDE0B4040312211353A8F9
:10133B00FE9001F1E0600575A0FB800375A00490A1
:10134B0001EFE060057F641221AD7D027F20021169
:01135B00830E
:101F5C0053D9BFE4F5D912213A1221F2122193433D
:101F6C00AE0853C7F77F017E0012215A43C7087F82
:101F7C00017E0012215A43F18012220643A4084329
:101F8C00800843A40443F10243A40153C7F77F0123
:101F9C007E0012215A43C7087F017E0012215A127B
:101FAC00000E43A88053F5FB9002037401F0121C41
:031FBC00D580FBD2
:03000000021B568A
:0C1B5600787FE4F6D8FD758107021B9D26
:10135C00BB010689828A83E0225002E722BBFE028F
:09136C00E32289828A83E49322C2
:10137500BB010CE58229F582E5833AF583E022502D
:1013850006E92582F8E622BBFE06E92582F8E22277
:0D139500E58229F582E5833AF583E4932291
:1013A200BB010989828A83F8E028F022500327F7DB
:1013B20022BBFE05F8E328F3228A838982F8E493AC
:0213C2002822DF
:1013C400BB010689828A83F0225002F722BBFE0108
:0213D400F32202
:1013D600F8BB010DE58229F582E5833AF583E8F04D
:1013E600225006E92582C8F622BBFE05E92582C8F9
:0213F600F222E1
:1013F800EF8DF0A4A8F0CF8CF0A428CE8DF0A42E09
:02140800FE22C2
:10140A00C5F0F8A3E028F0C5F0F8E582158270026D
:06141A001583E038F0220A
:10142000A3F8E0C5F025F0F0E5821582700215837F
:06143000E0C838F0E822DC
:10207500C2D5E830E70FB2D5E4C39BFBE49AFAE496
:1020850099F9E498F8EC30E717B2D51220AB1214A1
:1020950086E4C39BFBE49AFAE499F9E498F8800393
:1020A50012148630D50DE4C39FFFE49EFEE49DFD2A
:0420B500E49CFC2289
:10143600E86010ECA2E713FCED13FDEE13FEEF13CC
:04144600FFD8F022B9
:101B6200021F5CE493A3F8E493A34003F68001F21E
:101B720008DFF48029E493A3F85407240CC8C33384
:101B8200C4540F4420C8834004F456800146F6DF53
:101B9200E4800B0102040810204080901FBFE47E05
:101BA200019360BCA3FF543F30E509541FFEE49348
:101BB200A360010ECF54C025E060A840B8E493A30F
:101BC200FAE493A3F8E493A3C8C582C8CAC583CA3A
:101BD200F0A3C8C582C8CAC583CADFE9DEE780BEF2
:01201A0000C5
:10144A0075F008758200EF2FFFEE33FECD33CDCC59
:10145A0033CCC58233C5829BED9AEC99E5829840DC
:10146A000CF582EE9BFEED9AFDEC99FC0FD5F0D6B9
:10147A00E4CEFBE4CDFAE4CCF9A88222B800C1B9E3
:10148A000059BA002DEC8BF084CFCECDFCE5F0CB21
:10149A00F97818EF2FFFEE33FEED33FDEC33FCEB5A
:1014AA0033FB10D703994004EB99FB0FD8E5E4F915
:1014BA00FA227818EF2FFFEE33FEED33FDEC33FC02
:1014CA00C933C910D7059BE99A4007EC9BFCE99AF6
:1014DA00F90FD8E0E4C9FAE4CCFB2275F010EF2F3B
:1014EA00FFEE33FEED33FDCC33CCC833C810D7073B
:1014FA009BEC9AE899400AED9BFDEC9AFCE899F876
:0E150A000FD5F0DAE4CDFBE4CCFAE4C8F92208
:00000001FF
